:020000040800F2
:100000000050002089180008991400089B1400086B
:100010009D1400089F140008A114000800000000AF
:10002000000000000000000000000000A314000811
:10003000A514000800000000A7140008A914000877
:10004000D1180008D1180008D1180008D1180008EC
:10005000D1180008D1180008D1180008D1180008DC
:10006000D1180008D1180008D1180008D1180008CC
:10007000D1180008D1180008D1180008D1180008BC
:10008000D1180008D1180008D1180008D1180008AC
:10009000D1180008D1180008D1180008D11800089C
:1000A000D1180008D1180008D1180008D11800088C
:1000B000B1140008C1140008D1140008D1180008B8
:1000C000D1180008D1180008D1180008D11800086C
:1000D000D1180008E1140008D1180008D118000850
:1000E000D1180008D1180008D1180008000000003D
:1000F0000000000000000000000000000000000000
:0C01000000000000000000005FF808F1A3
:1001100081F0004102E000BF83F0004330B54FEAB8
:1001200041044FEA430594EA050F08BF90EA020F25
:100130001FBF54EA000C55EA020C7FEA645C7FEAB8
:10014000655C00F0E2804FEA5454D4EB5555B8BFDB
:100150006D420CDD2C4480EA020281EA030382EA4C
:10016000000083EA010180EA020281EA0303362DDE
:1001700088BF30BD11F0004F4FEA01314FF4801CB1
:100180004CEA113102D0404261EB410113F0004FC3
:100190004FEA03334CEA133302D0524263EB43037A
:1001A00094EA050F00F0A780A4F10104D5F1200E18
:1001B0000DDB02FA0EFC22FA05F2801841F1000173
:1001C00003FA0EF2801843FA05F359410EE0A5F147
:1001D00020050EF1200E012A03FA0EFC28BF4CF078
:1001E000020C43FA05F3C01851EBE37101F000452E
:1001F00007D54FF0000EDCF1000C7EEB00006EEB3B
:100200000101B1F5801F1BD3B1F5001F0CD34908C4
:100210005FEA30004FEA3C0C04F101044FEA44521B
:1002200012F5800F80F09A80BCF1004F08BF5FEAA2
:10023000500C50F1000041EB045141EA050130BD82
:100240005FEA4C0C404141EB0101013C28BFB1F594
:10025000801FE9D291F0000F04BF01460020B1FADF
:1002600081F308BF2033A3F10B03B3F120020CDAB2
:100270000C3208DD02F1140CC2F10C0201FA0CF090
:1002800021FA02F10CE002F11402D8BFC2F1200CF5
:1002900001FA02F120FA0CFCDCBF41EA0C019040AB
:1002A000E41AA2BF01EB0451294330BD6FEA0404F4
:1002B0001F3C1CDA0C340EDC04F11404C4F12002DF
:1002C00020FA04F001FA02F340EA030021FA04F3F1
:1002D00045EA030130BDC4F10C04C4F1200220FA48
:1002E00002F001FA04F340EA0300294630BD21FA86
:1002F00004F0294630BD94F0000F83F4801306BF4C
:1003000081F480110134013D4EE77FEA645C18BF3F
:100310007FEA655C29D094EA050F08BF90EA020FD6
:1003200005D054EA000C04BF1946104630BD91EACE
:10033000030F1EBF0021002030BD5FEA545C05D1D1
:100340004000494128BF41F0004130BD14F5800410
:100350003CBF01F5801130BD01F0004545F0FE4184
:1003600041F470014FF0000030BD7FEA645C1ABFB9
:10037000194610467FEA655C1CBF0B46024650EAF0
:10038000013406BF52EA033591EA030F41F400211C
:1003900030BD00BF90F0000F04BF0021704730B5A2
:1003A0004FF4806404F132044FF000054FF0000177
:1003B00050E700BF90F0000F04BF0021704730B538
:1003C0004FF4806404F1320410F0004548BF40420D
:1003D0004FF000013EE700BF42004FEAE2014FEA62
:1003E00031014FEA02701FBF12F07F4393F07F4F3D
:1003F00081F06051704732F07F4208BF704793F040
:100400007F4F04BF41F40021704730B54FF4607452
:1004100001F0004521F000411CE700BF50EA010255
:1004200008BF704730B54FF000050AE050EA0102FE
:1004300008BF704730B511F0004502D5404261EB6E
:1004400041014FF4806404F132045FEA915C3FF4AF
:10045000D8AE4FF003025FEADC0C18BF03325FEA4C
:10046000DC0C18BF033202EBDC02C2F1200300FAFD
:1004700003FC20FA02F001FA03FE40EA0E0021FA22
:1004800002F11444BDE600BF70B54FF0FF0C4CF410
:10049000E06C1CEA11541DBF1CEA135594EA0C0FC2
:1004A00095EA0C0F00F0DEF82C4481EA030621EAFD
:1004B0004C5123EA4C5350EA013518BF52EA033538
:1004C00041F4801143F4801338D0A0FB02CE4FF0EA
:1004D0000005E1FB02E506F00042E0FB03E54FF01A
:1004E0000006E1FB03569CF0000F18BF4EF0010E12
:1004F000A4F1FF04B6F5007F64F5407404D25FEA0E
:100500004E0E6D4146EB060642EAC62141EA5551C0
:100510004FEAC52040EA5E504FEACE2EB4F1FD0C02
:1005200088BFBCF5E06F1ED8BEF1004F08BF5FEA80
:10053000500E50F1000041EB045170BD06F0004632
:1005400046EA010140EA020081EA0301B4EB5C04DF
:10055000C2BFD4EB0C0541EA045170BD41F48011D7
:100560004FF0000E013C00F3AB8014F1360FDEBFFC
:10057000002001F0004170BDC4F10004203C35DAD8
:100580000C341BDC04F11404C4F1200500FA05F35B
:1005900020FA04F001FA05F240EA020001F00042FC
:1005A00021F0004110EBD37021FA04F642EB060172
:1005B0005EEA430E08BF20EAD37070BDC4F10C049C
:1005C000C4F1200500FA04F320FA05F001FA04F260
:1005D00040EA020001F0004110EBD37041F100014C
:1005E0005EEA430E08BF20EAD37070BDC4F1200557
:1005F00000FA05F24EEA020E20FA04F301FA05F2BF
:1006000043EA020321FA04F001F0004121FA04F266
:1006100020EA020000EBD3705EEA430E08BF20EA36
:10062000D37070BD94F0000F0FD101F00046400070
:1006300041EB010111F4801F08BF013CF7D041EAF2
:10064000060195F0000F18BF704703F000465200F6
:1006500043EB030313F4801F08BF013DF7D043EAC7
:100660000603704794EA0C0F0CEA135518BF95EA7D
:100670000C0F0CD050EA410618BF52EA4306D1D104
:1006800081EA030101F000414FF0000070BD50EA23
:10069000410606BF1046194652EA430619D094EAAD
:1006A0000C0F02D150EA013613D195EA0C0F05D197
:1006B00052EA03361CBF104619460AD181EA0301EB
:1006C00001F0004141F0FE4141F470014FF00000A3
:1006D00070BD41F0FE4141F4780170BD70B54FF03E
:1006E000FF0C4CF4E06C1CEA11541DBF1CEA1355BE
:1006F00094EA0C0F95EA0C0F00F0A7F8A4EB0504A0
:1007000081EA030E52EA03354FEA013100F0888096
:100710004FEA03334FF0805545EA131343EA12635F
:100720004FEA022245EA111545EA10654FEA002614
:100730000EF000419D4208BF964244F1FD0404F5CD
:10074000407402D25B084FEA3202B61A65EB030529
:100750005B084FEA32024FF480104FF4002CB6EBE6
:10076000020E75EB030E22BFB61A754640EA0C0066
:100770005B084FEA3202B6EB020E75EB030E22BFA6
:10078000B61A754640EA5C005B084FEA3202B6EBE7
:10079000020E75EB030E22BFB61A754640EA9C00A6
:1007A0005B084FEA3202B6EB020E75EB030E22BF76
:1007B000B61A754640EADC0055EA060E18D04FEA34
:1007C000051545EA16754FEA06164FEAC30343EAD4
:1007D00052734FEAC2025FEA1C1CC0D111F4801FA1
:1007E0000BD141EA00014FF000004FF0004CB6E79A
:1007F00011F4801F04BF01430020B4F1FD0C88BF39
:10080000BCF5E06F3FF6AFAEB5EB030C04BFB6EB43
:10081000020C5FEA500C50F1000041EB045170BD36
:100820000EF0004E4EEA113114EB5C04C2BFD4EB63
:100830000C0541EA045170BD41F480114FF0000EE7
:10084000013C90E645EA060E8DE60CEA135594EA63
:100850000C0F08BF95EA0C0F3FF43BAF94EA0C0F66
:100860000AD150EA01347FF434AF95EA0C0F7FF4DB
:1008700025AF104619462CE795EA0C0F06D152EA2F
:1008800003353FF4FDAE1046194622E750EA410613
:1008900018BF52EA43067FF4C5AE50EA41047FF424
:1008A0000DAF52EA43057FF4EBAE12E74FF0FF3C89
:1008B00006E000BF4FF0010C02E000BF4FF0010C5A
:1008C0004DF804CD4FEA410C7FEA6C5C4FEA430CD3
:1008D00018BF7FEA6C5C1BD001B050EA410C0CBF22
:1008E00052EA430C91EA030F02BF90EA020F002084
:1008F000704710F1000F91EA030F58BF994208BFEB
:1009000090422CBFD8176FEAE37040F001007047A7
:100910004FEA410C7FEA6C5C02D150EA013C07D1FE
:100920004FEA430C7FEA6C5CD6D152EA033CD3D049
:100930005DF8040B704700BF8446104662468C4643
:100940001946634600E000BF01B5FFF7B7FF002876
:1009500048BF10F1000F01BD4DF808EDFFF7F4FF9F
:100960000CBF012000205DF808FB00BF4DF808ED2A
:10097000FFF7EAFF34BF012000205DF808FB00BF4D
:100980004DF808EDFFF7E0FF94BF012000205DF86F
:1009900008FB00BF4DF808EDFFF7CEFF94BF012024
:1009A00000205DF808FB00BF4DF808EDFFF7C4FF1D
:1009B00034BF012000205DF808FB00BF4A0011D2BF
:1009C00012F5001211D20DD56FF47873B3EB6252A9
:1009D0000ED44FEAC12343F0004343EA505323FAB5
:1009E00002F070474FF00000704750EA013002D12A
:1009F0004FF0FF3070474FF0000070474FEA410260
:100A0000B2F1E04324BFB3F5001CDCF1FE5C0DD96C
:100A100001F0004C4FEAC0024CEA5070B2F1004FB6
:100A200040EB830008BF20F00100704711F0804FB9
:100A300021D113F13872BCBF01F00040704741F47E
:100A400080114FEA5252C2F11802C2F1200C10FA82
:100A50000CF320FA02F018BF40F001004FEAC12366
:100A60004FEAD32303FA0CFC40EA0C0023FA02F30A
:100A70004FEA4303CCE77FEA625307D150EA0133E0
:100A80001EBF4FF0FE4040F44000704701F00040B0
:100A900040F0FE4040F40000704700BF80F000408E
:100AA00002E000BF81F0004142001FBF5FEA410346
:100AB00092EA030F7FEA226C7FEA236C6AD04FEA46
:100AC0001262D2EB1363C1BFD2184140484041408B
:100AD000B8BF5B42192B88BF704710F0004F40F43D
:100AE000000020F07F4018BF404211F0004F41F459
:100AF000000121F07F4118BF494292EA030F3FD025
:100B0000A2F1010241FA03FC10EB0C00C3F1200337
:100B100001FA03F100F0004302D5494260EB4000C6
:100B2000B0F5000F13D3B0F1807F06D340084FEA31
:100B3000310102F10102FE2A51D2B1F1004F40EB26
:100B4000C25008BF20F0010040EA0300704749008E
:100B500040EB0000013A28BFB0F5000FEDD2B0FA2B
:100B600080FCACF1080CB2EB0C0200FA0CF0AABF4E
:100B700000EBC25052421843BCBFD04018437047EC
:100B800092F0000F81F4000106BF80F400000132F2
:100B9000013BB5E74FEA41037FEA226C18BF7FEAC9
:100BA000236C21D092EA030F04D092F0000F08BF0B
:100BB0000846704790EA010F1CBF0020704712F0F2
:100BC0007F4F04D1400028BF40F00040704712F131
:100BD00000723CBF00F50000704700F0004343F096
:100BE000FE4040F4000070477FEA226216BF0846CC
:100BF0007FEA23630146420206BF5FEA412390EA8F
:100C0000010F40F4800070474FF0000304E000BF84
:100C100010F0004348BF40425FEA000C08BF704735
:100C200043F0964301464FF000001CE050EA0102F9
:100C300008BF70474FF000030AE000BF50EA01020E
:100C400008BF704711F0004302D5404261EB4101FB
:100C50005FEA010C02BF84460146002043F0B64320
:100C600008BFA3F18053A3F50003BCFA8CF2083A45
:100C7000A3EBC25310DB01FA02FC634400FA02FC4E
:100C8000C2F12002BCF1004F20FA02F243EB020055
:100C900008BF20F00100704702F1200201FA02FCB7
:100CA000C2F1200250EA4C0021FA02F243EB0200AA
:100CB00008BF20EADC7070474FF0FF0C1CEAD052EE
:100CC0001EBF1CEAD15392EA0C0F93EA0C0F6FD0AF
:100CD0001A4480EA010C400218BF5FEA41211ED08D
:100CE0004FF0006343EA501043EA5111A0FB013179
:100CF0000CF00040B1F5000F3EBF490041EAD3714E
:100D00005B0040EA010062F17F02FD2A1DD8B3F1C9
:100D1000004F40EBC25008BF20F00100704790F038
:100D2000000F0CF0004C08BF49024CEA502040EA8A
:100D300051207F3AC2BFD2F1FF0340EAC250704750
:100D400040F400004FF00003013A5DDC12F1190F8E
:100D5000DCBF00F000407047C2F10002410021FA00
:100D600002F1C2F1200200FA02FC5FEA310040F118
:100D7000000053EA4C0308BF20EADC70704792F091
:100D8000000F00F0004C02BF400010F4000F013AC9
:100D9000F9D040EA0C0093F0000F01F0004C02BFC4
:100DA000490011F4000F013BF9D041EA0C018FE733
:100DB0000CEAD15392EA0C0F18BF93EA0C0F0AD039
:100DC00030F0004C18BF31F0004CD8D180EA01005F
:100DD00000F00040704790F0000F17BF90F0004FF8
:100DE000084691F0000F91F0004F14D092EA0C0FDA
:100DF00001D142020FD193EA0C0F03D14B0218BF6D
:100E0000084608D180EA010000F0004040F0FE40B2
:100E100040F40000704740F0FE4040F4400070474E
:100E20004FF0FF0C1CEAD0521EBF1CEAD15392EACD
:100E30000C0F93EA0C0F69D0A2EB030280EA010CBD
:100E400049024FEA402037D04FF0805343EA111156
:100E500043EA10130CF000408B4238BF5B0042F1B4
:100E60007D024FF4000C8B4224BF5B1A40EA0C0059
:100E7000B3EB510F24BFA3EB510340EA5C00B3EB8B
:100E8000910F24BFA3EB910340EA9C00B3EBD10F79
:100E900024BFA3EBD10340EADC001B0118BF5FEACB
:100EA0001C1CE0D1FD2A3FF650AF8B4240EBC250F4
:100EB00008BF20F0010070470CF0004C4CEA5020B5
:100EC0007F32C2BFD2F1FF0340EAC250704740F404
:100ED00000004FF00003013A37E792F0000F00F0F6
:100EE000004C02BF400010F4000F013AF9D040EA74
:100EF0000C0093F0000F01F0004C02BF490011F408
:100F0000000F013BF9D041EA0C0195E70CEAD153FF
:100F100092EA0C0F08D142027FF47DAF93EA0C0FE6
:100F20007FF470AF084676E793EA0C0F04D14B02CA
:100F30003FF44CAF08466EE730F0004C18BF31F07C
:100F4000004CCAD130F000427FF45CAF31F0004376
:100F50007FF43CAF5FE700BF4FF0FF3C06E000BF0F
:100F60004FF0010C02E000BF4FF0010C4DF804CD32
:100F70004FEA40024FEA41037FEA226C18BF7FEA42
:100F8000236C11D001B052EA530C18BF90EA010F44
:100F900058BFB2EB030088BFC81738BF6FEAE170D3
:100FA00018BF40F0010070477FEA226C02D15FEA6F
:100FB000402C05D17FEA236CE4D15FEA412CE1D0DB
:100FC0005DF8040B704700BF844608466146FFE7A2
:100FD0000FB5FFF7C9FF002848BF10F1000F0FBD84
:100FE0004DF808EDFFF7F4FF0CBF012000205DF87D
:100FF00008FB00BF4DF808EDFFF7EAFF34BF012002
:1010000000205DF808FB00BF4DF808EDFFF7E0FF9A
:1010100094BF012000205DF808FB00BF4DF808EDEB
:10102000FFF7D2FF94BF012000205DF808FB00BF4E
:101030004DF808EDFFF7C8FF34BF012000205DF830
:1010400008FB00BF4FEA4002B2F1FE4F0FD34FF052
:101050009E03B3EB12620DD94FEA002343F0004325
:1010600010F0004F23FA02F018BF404270474FF0D3
:101070000000704712F1610F01D1420205D110F05A
:10108000004008BF6FF0004070474FF0000070470D
:101090004FEA410C7FEA6C5C02D150EA013C0AD174
:1010A0004FEA430C7FEA6C5C02D152EA033C02D166
:1010B0004FF0000070474FF0010070470348044BA9
:1010C000834202D0034B03B11847704774010020DC
:1010D00074010020000000000548064B1B1AD90FC0
:1010E00001EBA301491002D0034B03B1184770472D
:1010F00074010020740100200000000010B5064CAF
:10110000237843B9FFF7DAFF044B13B10448AFF378
:1011100000800123237010BD780100200000000032
:10112000385A000808B5054B1BB105490548AFF30F
:101130000080BDE80840FFF7CFBF00BF00000000FF
:101140007C010020385A00082DE9F04389B00024C2
:101150000494059406940794384B9A6942F010025F
:101160009A619A6902F010020092009A9A6942F01C
:1011700020029A619A6902F020020192019A9A690A
:1011800042F004029A619A6902F004020292029A01
:101190009A6942F008029A619B6903F0080303937D
:1011A000039BDFF89C9022464FF40051484601F023
:1011B00098FADFF89080224642F23F01404601F063
:1011C00090FA214D22464FF40041284601F089FA59
:1011D0004FF40053049301270597069403260796BE
:1011E00004A9484601F068F941F61C1304930594DC
:1011F000069404A9284601F05FF942F23F030493E4
:1012000005970694079604A9404601F055F94FF456
:10121000514304930594069404A9404601F04CF907
:101220004FF40043049305970694079604A92846B3
:1012300001F042F909B0BDE8F08300BF00100240A0
:1012400000100140000C01400008014008B50B48A7
:101250000B4B03600B4B436000238360C3604FF470
:101260008042026143618361C361036201F0E4FB78
:1012700000B908BD00F044F8FBE700BF940100206E
:1012800000580040A086010010B586B000230293EC
:101290000393049305930268114B9A4201D006B060
:1012A00010BD104CA36943F00803A361A36903F0C8
:1012B00008030093009B4FF44063029312230393AF
:1012C0000323059302A9084801F0F6F8E36943F403
:1012D0008003E361E36903F480030193019BDEE78C
:1012E0000058004000100240000C014008B5034BBC
:1012F000834200D008BD03F0CDF8FBE7E8010020F1
:1013000072B6FEE700B591B02822002106A803F0CE
:10131000E7FF0023019302930393049305930122B3
:1013200006924FF4803307930A9202220D920E9395
:101330004FF4E0130F9306A801F024FD80B90F23AA
:10134000019302210291002303934FF480620492DF
:10135000059301A801F048FF20B911B05DF804FB26
:10136000FFF7CEFFFFF7CCFF08B500F085FFFFF7D2
:10137000C9FFFFF7E9FE00F029FA00F0BBF800F022
:10138000EBF800F0C3F9FFF761FF4FF47A7000F05B
:1013900097FF03F049F8214B1878FFF735FC024618
:1013A0001F49002000F09AFE1E4B1878FFF72CFC16
:1013B00002461D49012000F091FE1C4B5878FFF7B2
:1013C00023FC02461A49022000F088FE194BB3F9AB
:1013D0000000FFF71DFC02461749042000F07EFEC6
:1013E000164BB3F90000FFF713FC02461449052021
:1013F00000F074FE134B1878FFF706FC0246124902
:10140000062000F06BFE114B1878FFF7FDFB02463B
:101410000F49072000F062FEBDE700BF6603002011
:10142000505A000857030020585A0008680300204B
:10143000605A000854030020705A0008520300202C
:10144000785A000876030020805A000828030020FC
:101450008C5A000882B00E4B9A6942F001029A61E0
:101460009A6902F001020092009ADA6942F0805211
:10147000DA61DB6903F080530193019B054A5368ED
:1014800023F0E06343F00073536002B0704700BF85
:101490000010024000000140FEE7FEE7FEE7FEE725
:1014A000FEE770477047704708B500F0F7FE08BDCB
:1014B00008B5024802F057F808BD00BF78020020C6
:1014C00008B5024802F04FF808BD00BF3002002006
:1014D00008B5024802F047F808BD00BFE801002047
:1014E00008B5024802F030FE08BD00BFC00200206F
:1014F0007047000000B58DB02422002103A803F03E
:10150000EFFE00230193029312484FF080420260E5
:10151000436083604FF6FF72C260036183610323FF
:10152000039301230593099303A902F06BF950B9C2
:1015300000230193029301A9064802F0C9FB28B9D0
:101540000DB05DF804FBFFF7DBFEF1E7FFF7D8FE17
:10155000F6E700BF7802002000B58DB024220021FC
:1015600003A803F0BDFE0023019302931148124A21
:101570000260436083604FF6FF72C2600361836163
:101580000323039301230593099303A902F03AF976
:1015900050B900230193029301A9064802F098FB79
:1015A00028B90DB05DF804FBFFF7AAFEF1E7FFF7DD
:1015B000A7FEF6E7300200200004004000B589B025
:1015C000002304930593069307930368B3F1804FB8
:1015D00005D0274A934227D009B05DF804FB03F5F4
:1015E0000433DA6942F00102DA61DA6902F00102D9
:1015F0000092009A9A6942F004029A619B6903F092
:1016000004030193019B032304930123069304A97C
:10161000184800F051FF002211461C2000F0AAFEDD
:101620001C2000F0B7FED7E7134BDA6942F0020244
:10163000DA61DA6902F002020292029A9A6942F0D1
:1016400004029A619B6903F004030393039BC02384
:1016500004930123069304A9064800F02DFF0022FD
:1016600011461D2000F086FE1D2000F093FEB3E71A
:1016700000040040000801400010024002680E4BC8
:101680009A4200D0704700B583B003F50233DA699F
:1016900042F00402DA61DB6903F004030193019B69
:1016A000002211461E2000F065FE1E2000F072FE92
:1016B00003B05DF804FB00BF0008004000B587B030
:1016C0000023029303930493059302680D4B9A42FF
:1016D00002D007B05DF804FB03F502339A6942F0CB
:1016E00008029A619B6903F008030193019BC023E0
:1016F000029302230393059302A9034800F0DCFE42
:10170000E7E700BF00080040000C014000B58FB0C3
:1017100000230A930B930C930D9308930993019361
:101720000293039304930593069307932548264A4F
:10173000026047224260836040F2E732C260036188
:10174000836102F007F858BB4FF480530A930AA94B
:101750001C4802F05BF930BB1A4802F027F828BB9E
:1017600000230893099308A9164802F0B1FA00BBB8
:1017700060230193002202920392059201A911486D
:1017800002F0CAF8C0B904220DEB02010D4802F0C4
:10179000C3F8A0B90B48FFF791FF0FB05DF804FB49
:1017A000FFF7AEFDD0E7FFF7ABFDD5E7FFF7A8FDEC
:1017B000D6E7FFF7A5FDDBE7FFF7A2FDE3E7FFF7BD
:1017C0009FFDE7E7E80100200008004008B50A484F
:1017D0000A4B03604FF4E133436000238360C3602E
:1017E00003610C2242618361C36102F093FB00B983
:1017F00008BDFFF785FDFBE7C0020020003801406F
:1018000030B587B0002302930393049305930268D5
:101810001B4B9A4201D007B030BD03F558439A697B
:1018200042F480429A619A6902F480420092009ADE
:101830009A6942F004029A619B6903F004030193E0
:10184000019B4FF400730293022303930323059338
:101850000C4D02A9284600F02FFE4FF4806302933E
:1018600000240394049402A9284600F025FE224691
:101870002146252000F07EFD252000F08BFDCAE7E3
:101880000038014000080140FFF732FE0B480C49C8
:101890000C4A002302E0D458C4500433C4188C42CC
:1018A000F9D3094A094C002301E013600432A24233
:1018B000FBD303F06DFDFFF757FD704700000020DC
:1018C0007401002014630008780100207C060020C9
:1018D000FEE7000008B500230B4A13800B4A138073
:1018E0000B4A13800B4A13800B4A13800B4A138058
:1018F0000B4A13803C210B4802F084F93C210A4832
:1019000002F080F908BD00BF0E0300201003002084
:101910001203002014030020080300200A03002003
:101920000C030020300200207802002030B4164B57
:101930001868426A154B1A80154B1B685A6A524246
:1019400014490A80416A144A1488214409B211805A
:101950005D6A124C2288521B12B22280002444621B
:101960005C620F48038801331BB20380092B08DD3A
:1019700004800C4801800C490A80074A1480074AF9
:10198000148030BC704700BF3002002014030020D8
:1019900078020020120300200A0300200803002020
:1019A0000C030020100300200E03002070470000ED
:1019B00010B50024124B1C700EE0124B33F81410BB
:1019C000114B53F8240000F085FE012814BF0020BD
:1019D00001200E4B18550134052CEEDD002306E0E6
:1019E0000A4AD25C0649087802440A700133032B84
:1019F000F6DD064A137952791344054A137010BD77
:101A000017030020B45A0008C05A00081803002029
:101A10001603002010B5064C01220221204600F0DA
:101A200060FE01221146204600F05BFE10BD00BFA3
:101A3000000C014010B503280ED8DFE800F00E02BC
:101A40001A26184C00220121204600F04AFE0122ED
:101A50000221204600F045FE10BD124C0122114625
:101A6000204600F03EFE00220221204600F039FE12
:101A7000F2E70C4C00220121204600F032FE002249
:101A80000221204600F02DFEE6E7064C012202214D
:101A9000204600F026FE01221146204600F021FEDD
:101AA000DAE700BF000C014008B50421024800F04D
:101AB00011FE024B187008BD000801401E030020F3
:101AC00010B50F4C00220821204600F00AFE00222B
:101AD0001021204600F005FE00222021204600F0C3
:101AE00000FE00224021204600F0FBFD054C0021B5
:101AF000204602F019F80421204602F015F810BD26
:101B0000000C0140E801002038B50C46051E1EDD22
:101B100001224FF400411E4800F0E3FD002208219D
:101B20001C4800F0DEFD1C4B1B685D63002C1EDDB5
:101B3000184D01221021284600F0D3FD002220215B
:101B4000284600F0CEFD144B1B689C6338BD002274
:101B50004FF400410E4800F0C4FD012208210D4859
:101B600000F0BFFD0C4B1B686D425D63DEE7094D65
:101B700000221021284600F0B4FD01222021284631
:101B800000F0AFFD044B1B6864429C63DEE700BFBE
:101B900000080140000C0140E80100200023C36060
:101BA0000361024B8361024BC361704700401C46D6
:101BB00000401CC60023C36003617047F8B50446AB
:101BC000084661611146FEF76DFF05460146206932
:101BD000FEF76AFF0646206129462068FFF76CF889
:101BE000074661683046FFF767F801463846FEF75A
:101BF0005BFF0646A768E1682846FEF753FF0146EB
:101C00003846FFF759F801463046FEF74DFF0646C5
:101C1000E560E56901462846FFF70AFA00B935464E
:101C2000A46929462046FFF7E5F900B92C4620466D
:101C3000F8BD08B50A464169FFF7C0FF08BD0000BE
:101C400010B5084C084B1A784FF40051204600F0AC
:101C500048FD4FF48051204600F03CFD034B1870C6
:101C600010BD00BF000C0140210300202003002014
:101C700008B5FFF7E5FF064B1B78012B03D0054B9A
:101C800000221A7008BD034B01221A70FAE700BF48
:101C9000200300201F03002000B587B08DF8170037
:101CA00064230293012301930DF117020092002295
:101CB00078210348006800F09DFF07B05DF804FB41
:101CC0002403002000B587B08DF817006423029329
:101CD000012301930DF1170200924022782103485D
:101CE000006800F087FF07B05DF804FB24030020C4
:101CF00008B52B4B1860AE20FFF7CEFF2020FFF772
:101D0000CBFF1020FFF7C8FFB020FFF7C5FFC820AA
:101D1000FFF7C2FF0020FFF7BFFF1020FFF7BCFF57
:101D20004020FFF7B9FF8120FFF7B6FFFF20FFF744
:101D3000B3FFA120FFF7B0FFA620FFF7ADFFA8205B
:101D4000FFF7AAFF3F20FFF7A7FFA420FFF7A4FF9C
:101D5000D320FFF7A1FF0020FFF79EFFD520FFF75C
:101D60009BFFF020FFF798FFD920FFF795FF222077
:101D7000FFF792FFDA20FFF78FFF1220FFF78CFFAB
:101D8000DB20FFF789FF2020FFF786FF8D20FFF77C
:101D900083FF1420FFF780FFAF20FFF77DFF08BD12
:101DA0002403002010B50446A1F15000C0B2FFF793
:101DB00073FF200940F01000FFF76EFF04F00E00E3
:101DC00040F00100FFF768FF10BD70B50546002622
:101DD00009E02846FFF776FF0134E4B214F0800FE3
:101DE000F7D00136F6B2072E0CD8A6F15000C0B2DB
:101DF000FFF752FF0020FFF74FFF1020FFF74CFFC7
:101E00000024EBE770BD08B50020FFF7DEFF08BD3A
:101E10002DE9F84306460F469046012B26D0022BAB
:101E20005AD0BDE8F88305EB45022D4B03EB420386
:101E3000185DFFF747FF0134E4B2052CF3D90636ED
:101E4000F6B209F101095FFA89F918F80950002D75
:101E5000E7D0203DEDB27E2E02D90137FFB2002639
:101E600039463046FFF79EFF0024E6E74FF00009B1
:101E7000EBE704EB05131B4AD05CFFF723FF0134AB
:101E8000E4B2072CF5D9791CC9B23046FFF78AFFB6
:101E9000002408E004EB05130833124AD05CFFF776
:101EA00011FF0134E4B2072CF4D90836F6B209F177
:101EB00001095FFA89F918F80950002DB1D0203DC9
:101EC000EDB2782E02D90137FFB2002639463046EE
:101ED000FFF768FF0024D4E74FF00009EBE700BFED
:101EE000C8600008D85A0008F8B507460E46203AE0
:101EF000D5B210F0800F07D1102B09D031463846EB
:101F0000FFF750FF002430E00236F6B20027F3E777
:101F100031463846FFF746FF002407E004EB05137F
:101F2000134AD05CFFF7CEFE0134E4B2072CF5D99A
:101F3000711CC9B23846FFF735FF002408E004EBF6
:101F4000051308330A4AD05CFFF7BCFE0134E4B243
:101F5000072CF4D90BE005EB4502064B03EB4203DB
:101F6000185DFFF7AFFE0134E4B2052CF3D9F8BDDC
:101F7000D85A0008C86000080246012002E002FBAF
:101F800000F019464B1EDBB20029F8D17047000063
:101F90002DE9F04F83B08246894616469B460021C4
:101FA0001046FFF727F840B900244FF07E51304625
:101FB000FFF73EF858B9012573E00C232D2249465E
:101FC0005046FFF791FF06F100460124EDE7304649
:101FD000FEF702FA03F070FA00223E4BFEF79EF87D
:101FE000FEF7ECFCC5B25CE0651CEDB2303204EBF0
:101FF00044000AEB40000C23D2B24946C0B2FFF7BE
:1020000073FF0234E4B205EB45050AEB45000C23EF
:102010002E224946C0B2FFF767FF3046FFF712F89D
:10202000FEF7F6FD01463046FEF73CFD5C454DD21D
:10203000661CF6B22849FEF73FFE0746FFF702F896
:10204000054600F1300204EB44040AEB44000C2383
:10205000D2B24946C0B2FFF747FF2846FEF7D8FD87
:1020600001463846FEF71EFD3446DFE704F101085D
:102070005FFA88F8303204EB44040AEB44000C2386
:10208000D2B24946C0B2FFF72FFF9DF8040007FB0C
:1020900000F0FEF7B9FD01463046FEF703FD0646A7
:1020A0004446013DEDB229460A20FFF765FF074689
:1020B000FEF7AAFD01463046FEF7B2FEFEF7C2FF6C
:1020C0000190C2B2002D8FD05C45CFD303B0BDE8E4
:1020D000F08F00BF0000F03F00002041F8B5064639
:1020E0000D46174601230A4601460020FFF790FEE1
:1020F000002400E001342B5D002BFBD104EB4400F5
:10210000400001233A22314600F0FE00FFF7ECFECA
:10211000013404EB4404640006233A46314604F0DB
:10212000FE00FFF735FFF8BD10B5074909230B7016
:10213000064CFF230122204601F01CFF0122044926
:10214000204602F05EF910BD32030020C0020020DC
:102150002803002010B5084B9B7808490B70084CE9
:10216000FF230122204601F005FF012205492046F8
:1021700002F047F910BD00BF6803002032030020C1
:10218000C00200202803002010B5084B9B781033B4
:1021900007490B70074CFF230122204601F0EAFE9D
:1021A00001220549204602F02CF910BD68030020E9
:1021B00032030020C002002028030020174B834276
:1021C00000D07047164B1B78092B0BD05A1ED2B289
:1021D000072A16D8134B1A78134BDA70104B0022CB
:1021E0001A7070470F4B1A780F4B9A70531EDBB260
:1021F000012B03D90A4B00221A7070470A4BDA7080
:10220000F8E7113BDBB2072BDBD8064B1A78064BFD
:102210001A71034B00221A70D3E700BFC0020020DE
:1022200032030020280300206803002010B5044674
:102230000E4B1A784FF47A73B3FBF2F30C4A106822
:10224000B0FBF3F000F0B4F868B90F2C01D901200D
:102250000AE0002221464FF0FF3000F08BF8054BDA
:102260001C60002000E0012010BD00BF0400002021
:10227000000000200800002008B5074A136843F05A
:1022800010031360032000F063F80F20FFF7CEFF68
:10229000FFF7E0F8002008BD00200240034A116863
:1022A000034B1B780B441360704700BF34030020BE
:1022B00004000020014B1868704700BF3403002061
:1022C00038B50446FFF7F6FF0546B4F1FF3F02D0EC
:1022D000044B1B781C44FFF7EDFF401BA042FAD3D0
:1022E00038BD00BF04000020002808DB0901C9B286
:1022F00000F1604000F5614080F80013704700F085
:102300000F000901C9B2014B1954704714ED00E0E8
:1023100000B500F00700C0F1070CBCF1040F28BFA6
:102320004FF0040C031D062B0FD9C31E4FF0FF3EC8
:102330000EFA0CF021EA000199400EFA03FE22EA9F
:102340000E0241EA02005DF804FB0023EEE7000004
:10235000074AD36823F4E0631B041B0C000200F45B
:10236000E060034343F0BF6343F40033D36070473E
:1023700000ED00E010B50446054BD868C0F302201C
:10238000FFF7C6FF01462046FFF7AEFF10BD00BFB6
:1023900000ED00E0002807DB00F01F0240090123E8
:1023A0009340024A42F82030704700BF00E100E04D
:1023B0000138B0F1807F0BD24FF0E0235861054A1D
:1023C000F02182F823100020986107221A617047DB
:1023D0000120704700ED00E0034690F82120D2B2C2
:1023E000022A06D004228263002280F820200120E5
:1023F000704701680A6822F00E020A6001680A68E4
:1024000022F001020A60026CC06B012101FA02F2A3
:10241000426083F82110002083F8200070470000FC
:1024200008B590F82130DBB2022B03D0042383637C
:10243000012008BD0268136823F00E0313600268D0
:10244000136823F0010313600368194A934214D000
:10245000143293421FD0143293421ED0143293424E
:102460001ED0143293421ED01432934202D04FF049
:10247000807203E04FF4801200E001220D4B5A609D
:10248000012380F82130002380F82030436B6BB1AA
:1024900098470020CDE71022F0E74FF48072EDE777
:1024A0004FF48052EAE74FF48032E7E70020C0E7BC
:1024B000080002400000024070B582B00024A4462B
:1024C000A2E07E4DAB4210D007D97D4DAB420CD07F
:1024D00005F58035AB4208D013E0A5F58015AB4279
:1024E00003D005F57025AB4207D18B68002B55D082
:1024F000012B4ED04261082403E0A5F58015AB42C4
:10250000F3D0BEF1FF0F4BD806464FEA8C0233687A
:102510000F25954023EA050304FA02F213433360C2
:102520004B6813F0805F6DD0664B9A6942F00102F0
:102530009A619B6903F001030193019B4FEA9C029E
:10254000951C614B53F825600CF00305AD000F237B
:10255000AB4026EA03065D4B984228D003F5806322
:10256000984200F08D8003F58063984200F08A80E5
:1025700003F58063984218D0042319E0CC68C0E7C3
:10258000CC680434BDE7CC680834BAE7CC680C34B6
:10259000B7E702610824B4E70024B2E70424B0E7F7
:1025A000061DACF108029200B1E7032300E000230E
:1025B000AB4033430232444D45F822304B6813F4AC
:1025C000801F61D0424A936843EA0E0393604B68D0
:1025D00013F4001F5ED03E4AD36843EA0E03D36073
:1025E0004B6813F4003F5BD0394A536843EA0E034B
:1025F00053604B6813F4803F58D0354A136843EA60
:102600000E0313600CF1010C0B6833FA0CF253D07B
:10261000012202FA0CF203EA020E32EA0303F1D1BC
:102620004B68122B3FF64DAF122B3FF66AAF01A558
:1026300055F823F0EB2400087D25000887250008C5
:102640009925000803250008032500080325000834
:1026500003250008032500080325000803250008BA
:1026600003250008032500080325000803250008AA
:102670000325000803250008812500088D25000892
:10268000012395E7022393E7114A936823EA0E0397
:1026900093609CE70E4AD36823EA0E03D3609FE75A
:1026A0000B4A536823EA0E035360A2E7084A1368F3
:1026B00023EA0E031360A5E702B070BD00002210EC
:1026C00000003110001002400000014000080140ED
:1026D000000401408368194201D0012070470020A6
:1026E00070470AB1016170470904016170470368CE
:1026F0005A6912F4806F01D1002070476FF4806234
:102700005A6100230363202280F83D2080F83E3088
:10271000026C42F00402026480F83C3001207047F1
:102720002DE9F04106460C46174698463BE0FFF778
:10273000C1FD069BC01A404502D8B8F1000F32D146
:10274000012D18D033689B6924EA03039BB2B3FAC6
:1027500083F35B099F4226D100233363202286F84E
:102760003D2086F83E30326C42F02002326486F81A
:102770003C30012027E033685B6924EA03039BB205
:10278000B3FA83F35B09E5E733685B6924EA030C7A
:102790001FFA8CFCBCFA8CFC4FEA5C1C674511D11B
:1027A000B8F1FF3FC3D1C4F30745012DECD0336826
:1027B0009B6924EA030C1FFA8CFCBCFA8CFC4FEAE0
:1027C0005C1CEBE70020BDE8F0812DE9F8430546ED
:1027D0000E469046994653E01A6842F400721A6019
:1027E0002B686FF480625A6100232B63202285F8E6
:1027F0003D2085F83E302A6C42F004022A6485F8B8
:102800003C3001204AE0FFF755FDA0EB09004045B0
:1028100002D8B8F1000F33D1012F17D02B689B6974
:1028200026EA03039BB2003B18BF012343B30023F6
:102830002B63202285F83D2085F83E302A6C42F03B
:1028400020022A6485F83C30012027E02B685B6970
:1028500026EA03039BB2003B18BF0123E6E72B687F
:102860009C6926EA0404A4B2003C18BF0124A4B168
:102870002B685A6912F4806FAED1B8F1FF3FC2D114
:10288000C6F30747012FEAD12B685C6926EA0404E6
:10289000A4B2003C18BF0124E9E70020BDE8F8839A
:1028A00070B504460D46164623685B6913F0800F29
:1028B00021D12046FFF71BFFF8B9B5F1FF3FF3D058
:1028C000FFF7F8FC801BA84201D8002DECD123684B
:1028D0005B6913F0800FE7D100232363202284F883
:1028E0003D2084F83E30226C42F02002226484F8BD
:1028F0003C30012000E0002070BD0120FCE700001A
:102900002DE9F04385B004460D4691461F46DDF89B
:1029100030800D9E0368196841F48071196000963B
:10292000434600224FF00111FFF7FAFE60B9236819
:1029300005F0FE051D613346424626492046FFF755
:1029400044FF68B1012008E023681B6813F4807F0E
:1029500002D04FF400732364032005B0BDE8F08378
:102960000023039323685A6903929B690393039B93
:10297000324641462046FFF793FF30B9012F0FD171
:1029800023685FFA89F61E61E7E7236C042B01D008
:102990000120E2E72268136843F400731360F7E74D
:1029A00023684FEA19221A61324641462046FFF752
:1029B00077FF20B923685FFA89F61E61CDE7236CA3
:1029C000042B01D00120C8E72268136843F4007388
:1029D0001360F7E70200010070B504460D46164685
:1029E00023685B6913F0040F21D12046FFF77FFEB7
:1029F000F8B9B5F1FF3FF3D0FFF75CFC801BA842AC
:102A000001D8002DECD123685B6913F0040FE7D1E6
:102A100000232363202284F83D2084F83E30226C7A
:102A200042F02002226484F83C30012000E00020C3
:102A300070BD0120FCE70000002800F0CC8070B5DC
:102A4000044690F83D30002B77D0242384F83D30A5
:102A50002268136823F0010313602268136843F4AB
:102A6000004313602268136823F40043136000F0EE
:102A700077FC62685A4B9A4264D85A4B98428CBF92
:102A800000230123002B40F0A8805749A1FB00310F
:102A90008B0C25686A6822F03F0242EA91426A6024
:102AA00021680A6A22F03F0266684D4DAE424FD857
:102AB000013313430B622168CA6922F44F4222F0AA
:102AC000FF026568464B9D424CD8431E6D00B3FB28
:102AD000F5F3013340F6FC70034278D0C3F30B03E7
:102AE0001A43CA6121680B6823F0C003E269206AB7
:102AF000024313430B6021688B6823F4034323F0E4
:102B0000FF032269E068024313438B602168CB68AE
:102B100023F0FF036269A06902431343CB6022687C
:102B2000136843F00103136000202064202384F81D
:102B30003D30206384F83E0070BD80F83C30FEF7E5
:102B4000A3FB82E7294B98428CBF0023012399E71E
:102B50004FF4967505FB03F3254DA5FB03539B0925
:102B60000133A6E7A668BEB9431E05EB450CB3FBCF
:102B7000FCF30133C3F30B03B3FA83F35B0943BBE9
:102B8000C6B9431E05EB4505B3FBF5F30133C3F3AB
:102B90000B0343F40043A3E7431E05EB850C0CEB4A
:102BA0008C0CB3FBFCF30133C3F30B03B3FA83F3D5
:102BB0005B09E4E7431E05EB850505EB8505B3FBE3
:102BC000F5F30133C3F30B0343F4404388E70423D5
:102BD00086E7012384E7012070470120ACE700BFAE
:102BE000A08601007F841E0083DE1B43FF083D009A
:102BF000D34D62102DE9F04383B004460F46904652
:102C000099460C9EFFF756FB054694F83D00C0B26E
:102C1000202803D0022003B0BDE8F08300951923DB
:102C200001224B492046FFF77BFD002840F08980B8
:102C300094F83C30012B00F08680012384F83C306E
:102C400023681A6812F0010F03D11A6842F00102DA
:102C50001A602268136823F400631360212384F848
:102C60003D30402384F83E30002323640A9B636296
:102C7000BDF82C306385638D2385364BE362019567
:102C800000964B46424639462046FFF739FE00285B
:102C90005BD1238D002B35D02A4631462046FFF7E5
:102CA000FFFD20BB626A236812781A61626A531CB6
:102CB0006362218D013989B22185638D9BB2013B0D
:102CC0009BB263852368586910F0040FE1D0002996
:102CD000DFD052781A61636A01336362238D013B4E
:102CE0002385638D9BB2013B9BB26385D1E7236C47
:102CF000042B01D001208EE72268136843F400738F
:102D00001360F7E72A4631462046FFF765FE50B1CB
:102D1000236C042B01D001207DE72268136843F463
:102D200000731360F7E72268136843F400731360BD
:102D3000202384F83D30002384F83E3084F83C3072
:102D400069E7022067E7022065E7012063E700BF2B
:102D5000020010000000FFFF82B0084B1B68084A09
:102D6000A2FB03235B0A00FB03F3019300BF019B5B
:102D70005A1E0192002BF9D102B0704700000020CA
:102D8000D34D6210002800F0F18170B582B0044686
:102D9000036813F0010F2CD0994B5B6803F00C0310
:102DA000042B1DD0964B5B6803F00C03082B12D04C
:102DB0006368B3F5803F41D0002B55D103F18043C8
:102DC00003F504331A6822F480321A601A6822F478
:102DD00080221A6037E08A4B5B6813F4803FE7D0AB
:102DE000874B1B6813F4003F03D06368002B00F08F
:102DF000BF81236813F0020F75D0814B5B6813F01D
:102E00000C0F5FD07E4B5B6803F00C03082B54D093
:102E10002369002B00F08A807A4B01221A60FFF7A9
:102E200049FA0546764B1B6813F0020F75D1FFF780
:102E300041FA401B0228F5D903209EE1704A13682D
:102E400043F480331360636843B3FFF733FA0546F6
:102E50006B4B1B6813F4003FCBD1FFF72BFA401BE1
:102E60006428F5D9032088E1B3F5A02F09D0644B7D
:102E70001A6822F480321A601A6822F480221A60DA
:102E8000E1E703F18043A3F53C331A6842F4802262
:102E90001A601A6842F480321A60D4E7FFF70AFA1F
:102EA0000546574B1B6813F4003FA2D0FFF702FA08
:102EB000401B6428F5D903205FE1514B5B6813F494
:102EC000803FA5D14E4B1B6813F0020F03D023693E
:102ED000012B40F04F814A4A136823F0F8036169DF
:102EE00043EAC1031360236813F0080F33D0A369CA
:102EF000002B5CD0434B0122C3F88024FFF7DAF9A2
:102F000005463F4B5B6A13F0020F21D1FFF7D2F960
:102F1000401B0228F5D903202FE1394A136823F01A
:102F2000F803616943EAC1031360DCE7354B002213
:102F30001A60FFF7BFF90546314B1B6813F0020F0B
:102F4000D1D0FFF7B7F9401B0228F5D9032014E1CF
:102F50000120FFF701FF236813F0040F00F09680B3
:102F6000274BDB6913F0805F34D1254BDA6942F0DF
:102F70008052DA61DB6903F080530193019B0125E4
:102F8000214B1B6813F4807F26D0E368012B3DD0D2
:102F9000002B53D103F1804303F504331A6A22F066
:102FA00001021A621A6A22F004021A6233E0154B17
:102FB0000022C3F88024FFF77DF90546104B5B6AB9
:102FC00013F0020FC7D0FFF775F9401B0228F5D99F
:102FD0000320D2E00025D3E70B4A136843F4807343
:102FE0001360FFF767F90646074B1B6813F4807FF1
:102FF000CBD1FFF75FF9801B6428F5D90320BCE033
:103000000010024000004242007000405F4A136A14
:1030100043F001031362E36833B3FFF74BF906464D
:103020005A4B1B6A13F0020F2FD1FFF743F9801B95
:1030300041F288339842F3D903209EE0052B09D052
:10304000524B1A6A22F001021A621A6A22F0040232
:103050001A62E0E74D4B1A6A42F004021A621A6AD9
:1030600042F001021A62D6E7FFF724F90646474B01
:103070001B6A13F0020F08D0FFF71CF9801B41F206
:1030800088339842F3D9032077E0E5B9E369002B50
:1030900072D03E4A526802F00C02082A56D0022B27
:1030A00017D03B4B00221A66FFF704F90446374B52
:1030B0001B6813F0007F47D0FFF7FCF8001B0228C5
:1030C000F5D9032059E0314AD36923F08053D36105
:1030D000DCE72F4B00221A66FFF7ECF805462B4B76
:1030E0001B6813F0007F06D0FFF7E4F8401B0228AE
:1030F000F5D9032041E0236AB3F5803F1AD0234974
:103100004B6823F47413226A606A024313434B60D2
:103110001F4B01221A66FFF7CDF804461B4B1B68B4
:1031200013F0007F0ED1FFF7C5F8001B0228F5D978
:10313000032022E0154A536823F40033A1680B43AF
:103140005360DCE7002018E0002016E0012B16D0C9
:103150000E4B5B6803F48031226A914211D103F473
:103160007013626A93420ED1002006E0012070477E
:10317000012002E0012000E0002002B070BD01202B
:10318000FBE70120F9E70120F7E700BF001002404C
:10319000000042420F4B5B6803F00C02082A01D08A
:1031A0000D487047C3F383420C49885C13F4803F99
:1031B0000BD0084B5B68C3F34043094AD35C064A13
:1031C00002FB00F0B0FBF3F07047064B03FB00F08E
:1031D000704700BF0010024000127A00F46200083D
:1031E000F062000800093D00002800F0A08070B5E2
:1031F0000D460446524B1B6803F007038B420BD26B
:103200004F4A136823F007030B431360136803F05E
:1032100007038B4240F08D80236813F0020F17D014
:1032200013F0040F04D0474A536843F4E06353603B
:10323000236813F0080F04D0424A536843F46053E4
:103240005360404A536823F0F003A1680B43536076
:10325000236813F0010F31D06368012B20D0022BBB
:1032600025D0384A126812F0020F64D035494A68F6
:1032700022F0030213434B60FFF71CF80646314B64
:103280005B6803F00C036268B3EB820F16D0FFF7A4
:1032900011F8801B41F288339842F0D9032045E0B1
:1032A000284A126812F4003FE0D101203EE0254A8E
:1032B000126812F0007FD9D1012037E0204B1B6843
:1032C00003F00703AB420AD91D4A136823F0070332
:1032D0002B431360136803F00703AB422DD123681F
:1032E00013F0040F06D0174A536823F4E063E16833
:1032F0000B435360236813F0080F07D0114A53683B
:1033000023F46053216943EAC1035360FFF742FF8E
:103310000C4B5B68C3F303130B4AD35CD8400B4BD5
:1033200018600B4B1868FEF781FF002070BD01206C
:1033300070470120FAE70120F8E70120F6E700BF17
:103340000020024000100240A45A000800000020A3
:1033500008000020014B1868704700BF00000020E3
:1033600008B5FFF7F7FF044B5B68C3F30223034A7A
:10337000D35CD84008BD00BF001002409C5A000832
:1033800008B5FFF7E7FF044B5B68C3F3C223034AAA
:10339000D35CD84008BD00BF001002409C5A000812
:1033A00030B4026A036A23F001030362456883694B
:1033B00023F073030C681C4322F002028B68134352
:1033C0000B4A904206D0456084614A6842630362BA
:1033D00030BC704723F00803CA681A4322F0040384
:1033E00025F440754A692A438D691543EBE700BF10
:1033F000002C014030B4036A026A22F48072026237
:103400004468C26922F073020D68154323F4007307
:103410008A6843EA02230D4A904206D04460C5619F
:103420004A68C263036230BC704723F40063CA6811
:1034300043EA022323F4806324F440544A6944EAB3
:1034400002148A6944EA0214E8E700BF002C014034
:1034500030B4036A026A22F4805202624468C2698C
:1034600022F4E6420D6842EA052223F400538D68F7
:1034700043EA0533074DA84206D04460C2614A685A
:103480000264036230BC704724F480444D6944EA0E
:103490008514F2E7002C014010B4036A046A24F09A
:1034A00001040462846924F0F00C4CEA021223F057
:1034B0000A030B438261036210BC704710B4036AB5
:1034C000046A24F010040462846924F4704C4CEA09
:1034D000023223F0A00343EA01138261036210BCAD
:1034E0007047836823F070030B4343F00703836046
:1034F0007047000090F83D30DBB2012B27D102234A
:1035000080F83D300268D36843F00103D36003685C
:10351000114A934210D0B3F1804F0DD0A2F59432EE
:10352000934209D002F58062934205D01A6842F0B6
:1035300001021A60002070479A6802F00702062A0A
:1035400007D01A6842F001021A600020704701207B
:1035500070470020704700BF002C01407047704743
:1035600070477047704710B5044603681A6912F037
:10357000020F11D0DA6812F0020F0DD06FF00202C4
:103580001A610123037703689B6913F0030F70D05E
:10359000FFF7E6FF0023237723681A6912F0040F70
:1035A00012D0DA6812F0040F0ED06FF004021A6124
:1035B0000223237723689B6913F4407F5FD0204662
:1035C000FFF7CEFF0023237723681A6912F0080F54
:1035D00012D0DA6812F0080F0ED06FF008021A61EC
:1035E000042323772368DB6913F0030F4ED02046B2
:1035F000FFF7B6FF0023237723681A6912F0100F34
:1036000012D0DA6812F0100F0ED06FF010021A61AB
:10361000082323772368DB6913F4407F3DD02046DD
:10362000FFF79EFF0023237723681A6912F0010F2A
:1036300003D0DA6812F0010F36D123681A6912F04C
:10364000800F03D0DA6812F0800F34D123681A6932
:1036500012F0400F03D0DA6812F0400F32D1236825
:103660001A6912F0200F03D0DA6812F0200F30D15F
:1036700010BDFFF774FF2046FFF773FF8AE720466F
:10368000FFF76DFF2046FFF76CFF9BE72046FFF733
:1036900066FF2046FFF765FFACE72046FFF75FFFB8
:1036A0002046FFF75EFFBDE76FF001021A6120467A
:1036B000FDF71CFEC1E76FF080021A61204600F0A2
:1036C0003EFBC3E76FF040021A612046FFF74AFF56
:1036D000C5E76FF020021A61204600F02FFBC7E714
:1036E00003681B4A90420AD0B0F1804F07D0A2F580
:1036F0009432904203D002F58062904203D123F0CD
:1037000070034A681343124A90420AD0B0F1804FC6
:1037100007D0A2F59432904203D002F58062904225
:1037200003D123F44073CA68134323F080034A692A
:10373000134303608B68C3620B688362044B984237
:1037400002D00123436170470B690363F9E700BFAF
:10375000002C014040B310B5044690F83D30F3B161
:10376000022384F83D30214651F8040BFFF7B8FFDF
:10377000012384F8463084F83E3084F83F3084F8E2
:10378000403084F8413084F8423084F8433084F883
:10379000443084F8453084F83D30002010BD80F876
:1037A0003C30FDF76BFFDBE70120704740B310B5FD
:1037B000044690F83D30F3B1022384F83D302146B1
:1037C00051F8040BFFF78CFF012384F8463084F88E
:1037D0003E3084F83F3084F8403084F8413084F83B
:1037E000423084F8433084F8443084F8453084F81B
:1037F0003D30002010BD80F83C30FFF7AFFEDBE726
:1038000001207047002856D070B50D46044690F848
:103810003D30002B4AD0022384F83D302268936863
:1038200023F4804323F007039360214651F8040BEF
:10383000FFF756FF21688B688A690E6A286818436B
:1038400022F4407222F00302AB68D5F818C043EAB4
:103850000C23134323F47C4323F0FC03EA68D5F8DC
:103860001CC042EA0C221A432B6A1B03D5F810C075
:1038700043EA0C13134326F022066A686D6942EA94
:1038800005123243886021688B6123681A62012324
:1038900084F8463084F83E3084F83F3084F8423073
:1038A00084F8433084F83D30002070BD80F83C300F
:1038B000FDF784FEAFE701207047000030B4036AD3
:1038C000026A22F0100202624468826922F4E6422F
:1038D0000D6842EA052223F020038D6843EA0513B0
:1038E0000C4DA84206D0446082614A68826303623C
:1038F00030BC704723F08003CD6843EA051323F002
:10390000400324F440644D6944EA85048D6944EA27
:103910008504E8E7002C014038B590F83C30012BD5
:1039200066D004460D46012380F83C300C2A5AD854
:10393000DFE802F0075959591B595959305959595B
:1039400044000068FFF72CFD2268936943F00803E8
:1039500093612268936923F0040393612268936959
:1039600029690B43936100203EE00068FFF7A6FF42
:103970002268936943F4006393612268936923F496
:103980008063936122689369296943EA0123936103
:10399000002029E00068FFF72DFD2268D36943F07D
:1039A0000803D3612268D36923F00403D36122683A
:1039B000D36929690B43D361002015E00068FFF744
:1039C00047FD2268D36943F40063D3612268D36959
:1039D00023F48063D3612268D369296943EA012310
:1039E000D361002000E00120002384F83C3038BD82
:1039F0000220FCE710B4846824F47F4C42EA0322DE
:103A00000A4342EA0C02826010BC704790F83C30D6
:103A1000012B78D010B50446012380F83C300223F6
:103A200080F83D300268936823F47F4323F07703E6
:103A300093600B68602B4CD029D8402B54D00CD904
:103A4000502B22D1CA6849680068FFF725FD502134
:103A50002068FFF746FD002005E0202B0DD009D996
:103A6000302B0AD00120012384F83D30002384F854
:103A70003C3010BD0BB1102B05D119462068FFF763
:103A800030FD0020EFE70120EDE70120EBE7B3F583
:103A9000805F34D0B3F5005F0CD1CB684A68896889
:103AA0000068FFF7A7FF2268936843F480439360A0
:103AB0000020D8E7702B24D1CB684A688968006859
:103AC000FFF798FF2268936843F077039360002024
:103AD000C9E7CA6849680068FFF7F0FC6021206800
:103AE000FFF7FFFC0020BEE7CA6849680068FFF7DF
:103AF000D3FC40212068FFF7F4FC0020B3E700204E
:103B0000B1E70120AFE70220704701F01F014FF03D
:103B1000010C0CFA01FC036A23EA0C030362036A3A
:103B20008A4013430362704710B50446084651BBF0
:103B300094F83E30DBB2013B18BF0123002B5BD170
:103B4000002839D1022384F83E3001220146206842
:103B5000FFF7DBFF23682A4A93423DD02368284AB7
:103B600093423ED0B3F1804F3BD0A2F594329342C2
:103B700037D002F58062934233D01A6842F00102D6
:103B80001A60002039E0042908D008290DD094F8E3
:103B90004130DBB2013B18BF0123CFE794F83F303F
:103BA000DBB2013B18BF0123C8E794F84030DBB219
:103BB000013B18BF0123C1E7042805D0082807D01E
:103BC000022384F84130C0E7022384F83F30BCE789
:103BD000022384F84030B8E75A6C42F400425A6439
:103BE000BCE79A6802F00702062A07D01A6842F07A
:103BF00001021A60002000E0012010BD0020FCE757
:103C0000002C014038B5044690F83E00C0B294F84C
:103C10003F3094F84220D2B294F843C00D46B1B977
:103C2000012849D1012A48D1022384F83E3084F882
:103C300042307DB3042D39D0012200212068FFF7E6
:103C400064FF012204212068FFF75FFF27E0DBB259
:103C50005FFA8CFC042912D0012833D1012B2CD11E
:103C6000012A31D1BCF1010F30D1022384F83E305A
:103C700084F83F3084F8423084F84330D9E7012B90
:103C80001CD1BCF1010F1BD1022384F83F3084F812
:103C90004330CEE7012200212068FFF736FF22687B
:103CA000136843F001031360002006E001220421A1
:103CB0002068FFF72AFFF2E7012038BD0120FCE76A
:103CC0001846FAE70120F8E71846F6E71046F4E749
:103CD00090F83C20012A2CD010B40346012280F831
:103CE0003C20022280F83D2002685068946820F051
:103CF000700C086840EA0C0050601A680E48824256
:103D00000AD0B2F1804F07D0A0F59430824203D0A0
:103D100000F58060824204D124F080044968214388
:103D20009160012283F83D20002083F83C0010BC04
:103D300070470220704700BF002C01407047704759
:103D4000026802F10C0353E8003F23F490730C3235
:103D500042E800310029F3D1026802F1140353E86C
:103D6000003F23F00103143242E800310029F3D16F
:103D7000036B012B05D0202380F84230002303631E
:103D80007047026802F10C0353E8003F23F0100370
:103D90000C3242E800310029F3D1ECE790F84130D1
:103DA000DBB2212B01D0022070478368B3F5805F1E
:103DB00017D0036A5A1C02621A7803685A60C38CCF
:103DC0009BB2013B9BB2C3844BB90268D36823F01A
:103DD0008003D3600268D36843F04003D3600020BF
:103DE00070470369002BE4D1036A1B880268C3F3A0
:103DF00008035360036A02330362E0E710B5044628
:103E00000268136923F44053C1680B43136183684C
:103E10000269134342691A430168CB6823F4B05323
:103E200023F00C031343CB600268536923F44073FF
:103E300081690B4353610268134B9A4220D0FFF70C
:103E40008FFA024602EB820202EB820263689B0059
:103E5000B2FBF3F20D48A0FB02314909642303FBD6
:103E600011231B013233A0FB03035B0903F0F002B3
:103E700002EB011203F00F03216813448B6010BDA5
:103E8000FFF77EFA0246DDE7003801401F85EB515F
:103E90002DE9F84305460F4616469946DDF8208081
:103EA0002B681C6837EA04040CBF01240024B442C8
:103EB0002DD1B8F1FF3FF3D0B8F1000F05D0FEF7D8
:103EC000F9F9A0EB09004045EAD92A6802F10C0390
:103ED00053E8003F23F4D0730C3242E8003100294C
:103EE000F3D12A6802F1140353E8003F23F00103E1
:103EF000143242E800310029F3D1202385F8413003
:103F000085F84230002385F84030032000E000208F
:103F1000BDE8F88360B310B5044690F8413013B3A0
:103F2000242384F841302268D36823F40053D360FB
:103F30002046FFF763FF2268136923F4904313615F
:103F40002268536923F02A0353612268D36843F43B
:103F50000053D36000206064202384F8413084F84B
:103F60004230606310BD80F84030FDF749FCD7E770
:103F7000012070472DE9F04182B01E4690F8413093
:103F8000DBB2202B4BD104460D46904600294AD087
:103F90000AB9012044E000234364212380F8413022
:103FA000FEF788F90746A4F82480A4F82680A368C1
:103FB000B3F5805F02D04FF000080FE02369FBB13A
:103FC0004FF000080AE038F8023B2268C3F3080308
:103FD0005360E28C92B2013A92B2E284E38C9BB2DB
:103FE0008BB100963B46002280212046FFF750FF10
:103FF000D8B9002DE7D015F8012B23685A60E8E7FF
:10400000A8460025EAE700963B46002240212046CC
:10401000FFF73EFF58B9202384F8413000E002202A
:1040200002B0BDE8F0810120FAE70320F8E70320A1
:10403000F6E7704708B50168CA6822F04002CA6016
:10404000202280F84120FFF7F4FF002008BD7047D0
:1040500008B5406A0023C385C384FFF7F8FF08BD95
:10406000704790F84230DBB2222B69D18368B3F5F8
:10407000805F4FD0826AB3F5805F04D0002B56D1A9
:104080000369002B53D103685B681370836A0133A3
:104090008362C38D9BB2013B9BB2C385002B51D180
:1040A00000B583B00268D36823F02003D3600268B0
:1040B000D36823F48073D3600268536923F001034B
:1040C0005361202380F8423000234363036B012BAC
:1040D00033D100230363026802F10C0353E8003F6D
:1040E00023F010030C3242E800310029F3D10368B9
:1040F0001A6812F0100F06D0002201921A6801927D
:104100005B680193019B818DFFF7AAFF002003B03C
:104110005DF804FB0269002AACD1826A03685B681F
:10412000C3F308031380836A02338362B1E7036831
:104130005B6803F07F031370A8E7FEF73FF8E5E73D
:10414000022070470020704710B582B00446026814
:104150001368D068516913F00F0F09D113F0200FC5
:104160000CD010F0200F09D02046FFF77AFF16E0A0
:1041700011F0010115D110F4907F12D1216B0129AA
:1041800079D013F0800F03D010F0800F40F013812E
:1041900013F0400F03D010F0400F40F0108102B038
:1041A00010BD13F0010F06D010F4807F03D0626CB5
:1041B00042F00102626413F0040F04D019B1626C82
:1041C00042F00202626413F0020F04D019B1626C73
:1041D00042F00402626413F0080F07D010F0200FC1
:1041E00000D119B1626C42F008026264626C002A6C
:1041F000D5D013F0200F02D010F0200F29D1236862
:104200005B6903F04003626C12F0080F00D163B3E6
:104210002046FFF795FD23685B6913F0400F20D01F
:10422000226802F1140353E8003F23F040031432E4
:1042300042E800310029F3D1E36B73B1624A5A635B
:10424000E06BFEF7EDF80028A9D0E06B436B9847D0
:10425000A5E72046FFF705FFD1E72046FFF7F7FE69
:104260009DE72046FFF7F3FE99E72046FFF7EFFEB4
:104270000023636493E713F0100F82D010F0100F47
:104280003FF47FAF002301931368019353680193B8
:10429000019B536913F0400F51D0E26B13685B68C8
:1042A0009BB2002B3FF47BAFA18D99427FF677AF95
:1042B000E3859369202B37D0226802F10C0353E881
:1042C000003F23F480730C3242E800310029F3D11F
:1042D000226802F1140353E8003F23F00103143273
:1042E00042E800310029F3D1226802F1140353E8B7
:1042F000003F23F04003143242E800310029F3D19B
:10430000202384F8423000232363226802F10C0347
:1043100053E8003F23F010030C3242E8003100293B
:10432000F3D1E06BFEF758F802236363A18DE38DB0
:104330009BB2C91A89B22046FFF792FE2FE7A18DE2
:10434000E38D9BB2C91A89B2E38D9BB2002B3FF477
:1043500026AF00293FF423AF226802F10C0353E893
:10436000003F23F490730C3242E800300028F3D170
:10437000226802F1140353E8003F23F001031432D2
:1043800042E800300028F3D1202384F84230002393
:104390002363226802F10C0353E8003F23F010036B
:1043A0000C3242E800300028F3D102236363204638
:1043B000FFF756FEF3E62046FFF7F0FCEFE6204657
:1043C000FFF738FEEBE600BF5140000881628285AE
:1043D000C28500234364222380F84230036923B15D
:1043E0000268D36843F48073D3600268536943F072
:1043F000010353610268D36843F02003D3600020B7
:10440000704708B590F84230DBB2202B08D149B193
:104410000AB9012008BD00230363FFF7D7FFF9E7BE
:104420000220F7E70120F5E708B5FDF753FAFDF79D
:10443000F1FAFDF745FB1048FDF7BCFB0F48FDF70F
:10444000B9FB0F48FDF754FCFDF7DDFCFDF710FC50
:1044500000F0C2FC00F026FE0A48FFF74BF80A4ABB
:10446000002353701370094A53701370084A137075
:104470000123137008BD00BF2C0000200C00002099
:1044800094010020E80100204003002044030020A4
:104490004603002070B5224C23786370214D2B78A1
:1044A0006B70214E10213046FEF714F92070082160
:1044B0003046FEF70FF928706378D3B92378C3B17B
:1044C0001A4B00221A70194B1B78E3B9184A13686B
:1044D0005168013341F1000113605160FDF726FA84
:1044E000FDF766FAFDF7ACFBFDF7DEFA00F0A4FD80
:1044F00070BD0C4B5B78002BE5D10028E3D00B4B53
:1045000001221A70DFE7FDF711FAFDF751FA0021D9
:104510000846FDF7F9FA0120FDF78CFAE8E700BF3D
:10452000440300204003002000080140460300200F
:104530003803002070B506460D46154BB3F9000050
:10454000FCF766FB04463046FCF762FB0146224658
:104550001048FDF733FB104EFCF774FD30800F4B15
:10456000B3F90000FCF754FB04462846FCF750FB67
:10457000014622460A48FDF721FBFCF763FD01B224
:10458000084B1980B6F90000FDF7BEFA70BD00BFF8
:10459000100300202C000020540300200E030020F4
:1045A0000C0000205203002008B50348FDF702FB71
:1045B0000248FDF7FFFA08BD2C0000200C00002087
:1045C00038B586468C4690FBF2F000B291FBF2F2D1
:1045D00011B21F4BB3F900201E4B1C6822441A6015
:1045E0001D4BB3F900301D4C25682B442360002A75
:1045F000B8BF5242BEF1000FB8BFCEF1000E1FFA95
:104600008EFEA2EB0E0212B2002BB8BF5B42BCF1D1
:10461000000FB8BFCCF1000C1FFA8CFCA3EB0C030D
:104620001BB2002A02DD002B07DC0020002B00DD7E
:104630000021FFF77FFF002038BDFFF7B5FF002006
:10464000044B186020600146FDF75EFA0120F3E795
:10465000100300204C0300200E030020480300201C
:1046600008B538B94FF47A720B4945F2F050FFF7AC
:10467000A7FF08BDC0EBC00200EBC202C2EB4212B2
:10468000C0EB8200C00080B241424FF4FA7209B21E
:1046900000B2FFF795FFECE710AAFFFF10B5134B30
:1046A0001B7913B1124B1B7893B1114B1C78ACB131
:1046B0000120FFF7D5FF0446A8B1FFF775FF0C4BAB
:1046C00000221A700B4A13780133137001240AE098
:1046D000074B01221A70FFF767FFE6E700F004FDC1
:1046E000152000F009FD204610BD00BF1803002072
:1046F000470300205003002008B54E4B1B78052BC4
:104700000ED8DFE803F0031F3B49637E4A4A127864
:10471000934206D100F0AEFC484B1B78012B08D029
:1047200008BD454A137000F0ADFD444B00221A70DD
:10473000F0E700210846FDF7E7F93E4A1378013318
:104740001370EDE73C4A1278934212D1152000F025
:10475000D3FC49F28801152000F0A2FD0028DFD02B
:1047600000210846FDF7D0F9324A1378013313705F
:10477000D6E7314A137000F085FDE7E72E4A12783C
:10478000934201D02C4A13702D4A1278002AC7D1C7
:104790000133284A1370C3E7274A1278934210D195
:1047A0006FF0140000F0A8FC264B1B78002BB7D04C
:1047B00000210846FDF7A8F91E4A1378013313704B
:1047C000AEE71D4A137000F05DFDE9E71A4A127862
:1047D00093420ED100F04EFC184B1B78012B9FD159
:1047E00000210846FDF790F9124A1378013313703F
:1047F00096E7114A1370114B00221A7000F042FD27
:10480000E8E70D4A127893420FD1152000F074FCAE
:104810000C4B1B78002B83D000210846FDF774F960
:10482000044A1378013313707AE7034A137000F0D7
:1048300029FDEAE757030020560300205F0300200C
:104840001E0300207603002008B5444B1B78052B7F
:1048500000F28380DFE803F0031E37455E78404AAC
:10486000127893420ED100F005FC3E4B1B78012BD1
:1048700073D100210846FDF747F9384A1378013310
:1048800013706AE0364A137000F0FCFC354B0022CE
:104890001A70E8E7324A127893420FD1152000F0DF
:1048A0002BFC314B1B78012B57D900210846FDF713
:1048B0002BF92A4A1378013313704EE0284A1370FB
:1048C00000F0E0FCEAE7264A1278934201D0244A3D
:1048D0001370264A1278002A3FD101331F4A137001
:1048E0003BE01F4A127893420FD16FF0140000F0A2
:1048F00003FC1D4B1B7883B300210846FDF704F928
:10490000164A13780133137027E0154A137000F02C
:10491000B9FCEAE7124A127893420DD100F0AAFBE3
:10492000104B1B78CBB100210846FDF7EDF80B4A80
:1049300013780133137010E0094A1370094B0022F9
:104940001A7000F09FFCE9E7054A1278934201D003
:10495000034A1370152000F0CFFB08BD5903002057
:10496000580300205F030020760300201E03002070
:1049700008B5A44B1B780A2B2FD8DFE813F00B00E7
:10498000260034004D00770090009E00B800E30040
:10499000FD0028019C4A127893420ED100F06AFB78
:1049A0009A4B1B78012B18D100210846FDF7ACF873
:1049B000944A1378013313700FE0934A137000F098
:1049C00061FC924B00221A70E8E78F4A12789342FA
:1049D00004D18C4A13780133137008BD8A4A1370CE
:1049E000FDF7D2FBF5E7884A127893420FD11520E4
:1049F00000F082FB864B1B78002BEED0002108468E
:104A0000FDF782F87F4A137801331370E5E77E4A99
:104A1000137000F037FCEAE77B4A1278934216D114
:104A20007C4B1B7913F0010F19D00120FFF736FEE4
:104A3000764B1870754B1B78012BCED100210846A0
:104A4000FDF762F86F4A137801331370C5E76E4AB9
:104A500013706E4B00221A7000F014FCE0E74FF068
:104A6000FF30FFF71BFE694B1870E3E7664A1278C8
:104A700093420FD1152000F03FFB654B1B78002BB4
:104A8000ABD000210846FDF73FF85E4A13780133AA
:104A90001370A2E75C4A137000F0F4FBEAE75A4A8D
:104AA0001278934201D0584A13705B4A1278002A58
:104AB00093D10133534A13708FE7534A12789342CC
:104AC00010D16FF0140000F017FB514B1B78002B36
:104AD00083D000210846FDF717F84A4A13780133BE
:104AE00013707AE7484A137000F0CCFBE9E7464AB6
:104AF0001278934217D1474B1B7913F0010F1AD04C
:104B00000120FFF7CBFD414B1870404B1B78012B68
:104B10007FF463AF00210846FCF7F6FF394A1378AB
:104B20000133137059E7384A1370384B00221A705A
:104B300000F0A8FBDFE74FF0FF30FFF7AFFD334B8E
:104B40001870E2E7304A1278934210D1152000F035
:104B5000D3FA2F4B1B78002B3FF43FAF00210846C0
:104B6000FCF7D2FF274A13780133137035E7264A42
:104B7000137000F087FBE9E7234A1278934218D1BB
:104B8000244B1B7913F0010F1BD04FF0FF30FFF7C0
:104B900085FD1E4B18701D4B1B78012B7FF41DAF3C
:104BA00000210846FCF7B0FF164A13780133137052
:104BB00013E7154A1370154B00221A7000F062FBC0
:104BC000DEE70120FFF76AFD104B1870E3E70E4A9D
:104BD0001278934210D1152000F08EFA0C4B1B78FE
:104BE000022B7FF6FAAE00210846FCF78DFF054A3E
:104BF000137801331370F0E6034A137000F042FBA0
:104C0000E9E700BF5B0300205A0300205F03002098
:104C100076030020680300201E03002008B5654BC2
:104C20001B78082B14D8DFE803F0051C38455364C3
:104C300072889F00604A127893420AD100F01AFAF3
:104C400000210846FCF760FF5A4A137801331370BD
:104C500008BD594A137000F015FB584B00221A701A
:104C6000ECE7554A1278934212D1152000F044FA2D
:104C700049F28801152000F013FB0028E8D000213C
:104C80000846FCF741FF4B4A137801331370DFE706
:104C9000494A137000F0F6FAE7E7474A1278934260
:104CA00004D0454A1370464A002111700133414A2D
:104CB0001370CDE7404A1278934201D03E4A1370F8
:104CC000404A1278012AC3D101333A4A1370BFE730
:104CD000394A1278934201D0374A1370394A127810
:104CE000002AB5D1364A012111700B44314A1370A4
:104CF000AEE7314A1278934201D02F4A1370324AFC
:104D00001278002AA4D101332A4A1370A0E72A4A54
:104D1000127893420CD16FF0140000F0EDF90021ED
:104D20000846FCF7F1FE234A1378013313708FE72E
:104D3000214A137000F0A6FAEDE71F4A1278934259
:104D40000AD100F097F91D4B1B78012B80D1194A2D
:104D50001378013313707BE7174A1370174B002247
:104D60001A7000F08FFAECE7134A1278934218D1C8
:104D700000F050F8154B1B6813B9114B00221A7044
:104D8000152000F0B9F9124B1B78002B3FF460AFEF
:104D900000210846FCF7B8FE064A13780133137069
:104DA00056E7054A137000F06DFA4FF4FA7000F000
:104DB0002BF8DDE75D0300205C0300205F0300208B
:104DC00021030020200300201E0300206003002098
:104DD00076030020704700000023064A1370064A3D
:104DE0001370064A5370064A1370064B01221A705C
:104DF000704700BF5F0300206403002068030020A9
:104E00006603002065030020014B1860704700BF57
:104E100060030020034B1B6813B1013B014A136080
:104E2000704700BF6003002008B54FF4805106486A
:104E3000FDF750FC012803D0044B02221A7008BD74
:104E4000024B01221A70FAE7000C014068030020AF
:104E500008B5FDF769F908BD194B1B78012B0AD07D
:104E6000184B1B78022B23D0174B00221A70144BBF
:104E700005225A707047124B5B78022B06D8134BF1
:104E800000221A700E4B01225A7070470D4B1B788E
:104E9000022B06D00E4B00221A70094B03225A70C7
:104EA00070470C4B00221A70054B02225A70704753
:104EB000094B00221A70024B04225A70704700BF3F
:104EC00068030020760300205E03002057030020C3
:104ED0005B030020590300205D03002008B54E4B02
:104EE0001B78072B26D8DFE803F004192638465C28
:104EF0006A884A4A1278934209D1FFF78BFF484BE0
:104F00001B68BBB9444A13780133137012E0434A5B
:104F100013704FF4FA60FFF777FFEEE73F4A12781D
:104F2000934201D03D4A1370FFF77EFF3A4A13784F
:104F30000133137008BD394A1278934208D1394BB6
:104F40001B78002BF6D1344A137801331370F1E744
:104F5000324A1370FFF77CFFF1E7304A1278934230
:104F600001D02E4A1370304A1278002AE2D0013361
:104F7000294A1370DEE7294A1278934201D0274A62
:104F800013704FF47A7245F6D8110846FFF718FBF4
:104F90000028CFD0FFF708FB1F4A137801331370A6
:104FA000C8E71E4A1278934204D11B4A1378013392
:104FB0001370BFE7194A1370FDF7CCF8F5E7174AED
:104FC0001278934214D1152000F096F8174B1A78F6
:104FD000174B1B789A42ADD0124B1B781BB1154B67
:104FE0009B78022BA6D80C4A137801331370A1E7E3
:104FF0000A4A137000F046F9E5E7084A127893422E
:1050000004D1054A13780133137093E7034A1370F0
:10501000FFF722FFF5E700BF6603002065030020CD
:1050200060030020320300201E03002076030020CE
:10503000750300206803002008B50D4B5B78052B35
:1050400006D8DFE803F00306090C0F12FFF746FF4E
:1050500008BDFFF751FBFBE7FFF7F6FBF8E7FFF7AB
:1050600087FCF5E7FFF7DAFDF2E7FFF7B3FEEFE7BE
:105070006803002008B5094BDB7813F0010F05D059
:105080000120FFF70BFB064B187008BD4FF0FF30F7
:10509000FFF704FB024B1870F7E700BF680300201E
:1050A0005F03002010B50B4C2046FCF777FD002372
:1050B00063614FF07E5222606360074BA360002360
:1050C000064A1370064A1370064A1370FCF76EFC0A
:1050D00010BD00BF8C030020A69BC43B76030020BC
:1050E0007503002074030020014B00221A607047F2
:1050F00088030020000000002DE9F8430546002346
:10510000534A1360534A1360534B1A785878161851
:10511000F6B252490E7093F80280DF7808EB07046C
:10512000E4B24F4B1C704F4B1B7843B376B102EB8C
:1051300042021044FBF76CFD81463046FBF764FDEC
:1051400001464846FBF76CFE414B18607CB107EB0B
:10515000470707EB0800FBF75BFD06462046FBF719
:1051600053FD01463046FBF75BFE3A4B1860384B67
:105170001968384B1868FBF795FC3B4B18603A4BA5
:105180001C6824F00040FBF727F90022374BFAF7A0
:10519000C3FF21F000412AA3D3E90023FBF7E6FB7C
:1051A00058B12046FBF718F927A3D3E90023FBF7F2
:1051B0006BF9FBF723FC014600E000212C48FCF7CB
:1051C00038FD04462B4B18602846FBF721FD0646A8
:1051D0002146FBF767FC054631462046FBF764FC99
:1051E000FBF730FF04B22846FBF72CFF214600B244
:1051F000FFF7A0F9204B1B78204A1370194A127848
:10520000042A0AD01E490978012911D01A4A1278B5
:10521000934213D10020BDE8F88319490978002989
:10522000F0D1174901200870191813480170E9E7F7
:10523000042AEBD0124A00211170E7E70120EAE7C7
:1052400048AFBC9AF2D77A3E48E17A14AE47F53FB0
:10525000800300207C030020180300207803002036
:105260007703002017030020880300200000084077
:105270008C030020840300207603002075030020A7
:10528000740300200023034A1370034A1370034A77
:10529000137070477603002075030020740300200C
:1052A00010B50C46FFF728FF0A4BB3F900300A4A45
:1052B000B2F90020134403EBD37308490A6802EBE8
:1052C00063030B60A34203D900220A60012010BDD2
:1052D0000020FCE7100300200E03002070030020D4
:1052E000830730B547D0541E002A3ED0CAB20346C9
:1052F00001E0013C39D303F8012B9D07F9D1032CC0
:105300002CD9CDB205EB05250F2C05EB054535D97C
:10531000A4F1100222F00F0C03F1100EE6444FEA44
:10532000121C1A46156055609560D56010327245A2
:10533000F8D10CF1010214F00C0F03EB021204F08F
:105340000F0C13D0ACF1040323F003030433134414
:1053500042F8045B9A42FBD10CF003042CB1C9B2B1
:105360001C4403F8011B9C42FBD130BD644613462C
:10537000002CF4D1F9E703461446C0E71A46A446C8
:10538000E0E700BF014B1868704700BF4C000020E9
:1053900070B50F4B0F4DAB42A3EB050607D0B6100F
:1053A000002455F8043B01349847A642F9D800F090
:1053B00043FB094D094B5E1BAB424FEAA60606D0E4
:1053C000002455F8043B01349847A642F9D870BD33
:1053D00008630008086300080863000810630008F9
:1053E000704700BF704700BF024B13B1024800F086
:1053F00005B870470000000009540008002301466A
:105400001A46184600F014B838B5074D074C2C1B47
:10541000A41005D0013C55F8043D9847002CF9D163
:10542000BDE8384000F00EBB1463000810630008AC
:105430002DE9F047DFF874A00646DAF80000984638
:105440000F469146FFF7CCFF194B1C6824B36568E3
:105450001F2D24DC5EB96B1C0235DAF80000636096
:1054600044F82570FFF7BEFF0020BDE8F08704EB8D
:1054700085010123C1F88890D4F88821AB401A43F4
:10548000022EC4F88821C1F80881E4D1D4F88C2117
:105490001A43C4F88C21DEE7064C1C60D7E7DAF823
:1054A0000000FFF79FFF4FF0FF30DEE770010020A4
:1054B000E8040020EC040020F8B504460D4600F096
:1054C00037F8224606460F462B4620462946FBF76C
:1054D000DFFD98B90022002320462946FBF750FA49
:1054E00060B10022002320462946FBF735FA40B17F
:1054F000FFF748FF084F2223036000263046394655
:10550000F8BDFFF73FFF034621221A600348BDE8BC
:10551000F84000F005B800BF0000F0FF0463000889
:1055200001490020704700BF0000F87F0000000024
:10553000B1F5801FF8B504460D460B4618DA21F088
:105540000042024352D0002957DB374B0022FAF7C2
:105550009BFF364A0B4693420D4604466FF03501D9
:105560000BDD22462B4620462946FAF7D7FDF8BD2B
:105570002E4A93424FF00001F3DC1815A0F2FF30E1
:105580000844C70F00EBD070C3F31306FAF712FFFD
:10559000C7F57F7C0CF1030C1DA3D3E9002346EA79
:1055A0000C550F460646FAF76FFF02460B4620469B
:1055B000294614461D4600F03FF817A3D3E90023FF
:1055C000FAF762FF22462B46FAF7A8FD14A3D3E9A7
:1055D000002304460D4630463946FAF755FF024689
:1055E0000B4620462946FAF799FDF8BD0022002314
:1055F0000F490020FBF772F8F8BD0246FAF78CFD60
:1056000000220023FBF76AF8F8BD00BFAFF300806B
:10561000362BF111F3FE593D0EE526157BCBDB3F12
:1056200000609F501344D33F00005043FFFFEF7FC3
:10563000000050C3000000002DE9F04FB1F5801FBD
:1056400087B002460B460F4658DA21F00044044367
:1056500000F0F7800029C0F23181D74B0022FAF721
:1056600013FF0F460B46D5498F4202466FF03500B7
:1056700049DC3E15C7F3130707F51521A6F2FF36DF
:1056800001F66471064401F4801106EB115681F0B5
:105690007F5181F4401141EA070310461946002268
:1056A000C74BFAF739FDBB1CC3F31303022B824629
:1056B0008B462FDC00220023FBF74EF9002800F078
:1056C000C980002E00F04A813046FAF773FEA6A387
:1056D000D3E9002306460F46FAF7D6FEA4A3D3E982
:1056E000002304460D4630463946FAF7CDFE024601
:1056F0000B4620462946FAF711FD08E0AF498F42D4
:105700004FF00000B5DD10461946FAF707FD07B067
:10571000BDE8F08F00224FF08043FAF7FFFC02460D
:105720000B4650465946FAF7D9FF044630460D4617
:10573000FAF740FE2246CDE904012B4620462946D1
:10574000CDE90245FAF7A0FE02460B46CDE900235B
:10575000FAF79AFE88A3D3E9002304460D46FAF728
:1057600093FE87A3D3E90023FAF7D8FC22462B4601
:10577000FAF78AFE84A3D3E90023FAF7CFFC224686
:105780002B46FAF781FE82A3D3E90023FAF7C6FC81
:10579000DDE90023FAF778FE7FA3D3E90023CDE902
:1057A000000120462946FAF76FFE7DA3D3E90023C6
:1057B000FAF7B4FC22462B46FAF766FE7AA3D3E941
:1057C0000023FAF7ABFC22462B46FAF75DFEA7F55D
:1057D000C22902460B46C7F5D727DDE90001FAF7D3
:1057E0009DFCA9F27A49513747EA0907002F804604
:1057F000894655DD734B002250465946FAF744FE60
:1058000052465B46FAF740FE04460D46002E5CD138
:1058100022462B4640464946FAF780FCDDE9022342
:10582000FAF732FE02460B4620462946FAF774FC88
:1058300002460B4650465946FAF76EFC07B0BDE8E3
:10584000F08F0022002360490020FAF747FF07B0DD
:10585000BDE8F08F56A3D3E9002350465946FAF726
:1058600013FE02460B4600205649FAF755FC5246F5
:1058700004460D465B4650465946FAF705FE024679
:105880000B4620462946FAF7FFFD04460D46002E3A
:1058900050D102460B4650465946FAF73DFC36E7D2
:1058A000002E40F0938002460B4650465946FAF7C8
:1058B00033FCDDE90223FAF7E7FDB9E7FAF72CFC40
:1058C00000220023FAF70AFF21E727A3D3E90023E8
:1058D000DDE90401FAF7D8FD22462B4606460F46BD
:1058E00040464946FAF71AFCDDE90223FAF7CCFDF7
:1058F0001FA3D3E9002380468946DDE90401FAF7B6
:10590000C3FD02460B4640464946FAF707FC0246ED
:105910000B4620462946FAF7FFFB52465B46FAF74C
:10592000FBFB02460B4630463946FAF7F5FB07B05B
:10593000BDE8F08F3046FAF73DFD0BA3D3E9002315
:1059400080468946FAF7A0FD09A3D3E9002306465D
:105950000F4640464946FAF797FDD8E70020002158
:10596000D5E600BFAFF300800000E0FE422EE63F28
:10597000763C7935EF39EA3D44523EDF12F1C23FC1
:10598000DE03CB966446C73F599322942449D23F05
:10599000935555555555E53F9FC678D0099AC33F55
:1059A000AF788E1DC571CC3F04FA97999999D93F6C
:1059B000555555555555D53F00005043FFFFEF7FD6
:1059C0000000F03F0000E03F000050C316A3D3E901
:1059D0000023DDE90401FAF757FD42464B46044631
:1059E0000D4650465946FAF797FBDDE90223FAF7D0
:1059F0004BFD0FA3D3E9002306460F46DDE9040162
:105A0000FAF742FD02460B4630463946FAF784FB68
:105A100052465B46FAF780FB02460B462046294673
:105A2000FAF77AFB73E600BF0000E0FE422EE63F85
:105A3000763C7935EF39EA3DF8B500BFF8BC08BCD3
:105A40009E467047F8B500BFF8BC08BC9E4670473C
:105A500073746167653000007374616765310000BD
:105A60006D697373696F6E5F6E756D62657200004C
:105A70004C6F757470757400526F75747075740026
:105A80006C696E655F636F756E7400006F70656E34
:105A90006D765F7278627566666572000000000060
:105AA00001020304000000000000000001020304E2
:105AB00006070809004000800001000800100001EE
:105AC000000C0140000C01400008014000080140AA
:105AD00000080140000C0140000000000000000030
