:020000040800F2
:10000000E0090020C9010008792E00084F260008E9
:10001000312E0008EF020008793B000800000000C4
:10002000000000000000000000000000053400088F
:100030001D04000800000000D93300082135000825
:10004000E3010008E3010008E3010008E301000800
:10005000E3010008E3010008E3010008E3010008F0
:10006000E3010008E3010008E3010008E3010008E0
:10007000E3010008E3010008E3010008E3010008D0
:10008000E3010008E3010008E3010008E3010008C0
:10009000E3010008E3010008E3010008E3010008B0
:1000A000E3010008E3010008E3010008E3010008A0
:1000B00091350008A1350008B1350008E3010008BA
:1000C000E3010008E3010008E3010008E301000880
:1000D000E3010008693B0008E3010008E3010008B0
:1000E000E3010008E3010008E301000800F002F862
:1000F00000F05AF80AA090E8000C82448344AAF168
:100100000107DA4501D100F04FF8AFF2090EBAE865
:100110000F0013F0010F18BFFB1A43F0010318473B
:10012000A85B0000C85B00000A444FF0000C10F808
:10013000013B13F0070408BF10F8014B1D1108BF65
:1001400010F8015B641E05D010F8016B641E01F805
:10015000016BF9D113F0080F1EBF10F8014BAD1C55
:100160000C1B09D16D1E58BF01F801CBFAD505E073
:1001700014F8016B01F8016B6D1EF9D59142D6D3CD
:10018000704700000023002400250026103A28BFF5
:1001900078C1FBD8520728BF30C148BF0B607047F9
:1001A0001FB51FBD10B510BD00F06CF81146FFF76C
:1001B000F7FF03F0AFFF00F08AF803B4FFF7F2FF98
:1001C00003BC00F08DF8000009488047094800474B
:1001D000FEE7FEE7FEE7FEE7FEE7FEE7FEE7FEE7F7
:1001E000FEE7FEE704480549054A064B7047000054
:1001F0008F350008ED000008E0030020E009002032
:10020000E0050020E00500204FF0000200B5134695
:1002100094469646203922BFA0E80C50A0E80C5026
:10022000B1F12001BFF4F7AF090728BFA0E80C50D7
:1002300048BF0CC05DF804EB890028BF40F8042BD0
:1002400008BF704748BF20F8022B11F0804F18BF3D
:1002500000F8012B704770477047704710B500F0E9
:1002600009F8006810BD10B5044600F003F80460FA
:1002700010BD000000487047800300200048704710
:10028000800300207546FFF7F9FFAE46050069467A
:10029000534620F00700854618B020B5FFF7A2FFAF
:1002A000BDE820404FF000064FF000074FF0000877
:1002B0004FF0000B21F00701AC46ACE8C009ACE8F8
:1002C000C009ACE8C009ACE8C0098D46704710B55C
:1002D0000446AFF300802046BDE81040FFF76DBF35
:1002E00001491820ABBEFEE726000200704700BFA0
:1002F000FEE7000010B527480078264948702648D8
:100300000078254948701021244800F081FC2149DB
:1003100008700821214800F07BFC1F4908701D4827
:10032000407830B91B48007818B100201C4908708B
:1003300008E01948407828B91748007810B1012022
:100340001749087016480078D0B91648D0E900302F
:100350005A1C40F100001349C1E9002002F084FB5F
:100360001B2000F0E5F802F057FD0F48007818B99F
:10037000022002F03FFB0CE0002002F03BFB08E013
:1003800000F0DCF90021084603F03EF8012002F0FD
:1003900031FB10BD41010020430100200008014055
:1003A00040010020480100205000002010B500F05E
:1003B000C5F900F08DF802F07FFB02F03BFD10481C
:1003C00002F0F9FF0F4802F0F6FF0F4802F078FD47
:1003D00002F054FD02F05EFB03F036FA00F090F9F3
:1003E00001200A490870002009494870087009492D
:1003F00048700870084908700120087010BD00009E
:1004000080010020A0010020E0010020DB0100208D
:1004100043010020410100204001002070470000FE
:1004200022480068406A00B22149088021480068DB
:10043000406A404200B2204908801C480068406A77
:100440001E49B1F90010012202FB001000B21B4945
:10045000088018480068406A1949B1F90010921ED6
:1004600002FB001000B21649088000200F490968FD
:10047000486210490968486212480088401C00B26E
:1004800010490880092810DD002008800B48B0F9C9
:1004900000000D4908800A48B0F900000B490880A7
:1004A0000020064908800649088070477C02002029
:1004B0001000002034020020120000201A0000204A
:1004C0001C0000201800002014000020160000204E
:1004D00010B500200B4908800B4908800B490880A3
:1004E0000B4908800B4908800B4908800B4908809C
:1004F0003C210B4801F0EAFB3C210A4801F0E6FBF5
:1005000010BD000016000020140000201200002082
:10051000100000201C0000201A00002018000020FD
:100520007C0200203402002072B600BFFEE700000B
:100530002DE9F05F834600F001F9FFF771FF00201D
:100540005E4908605E4908605E4800785D49497808
:1005500008445D4908705B4880785A49C978084466
:100560005A4908705A480078B8B3574800780028AC
:1005700013DD5548007804F029FD044651494978B7
:10058000504A1278032303FB021004F0D7FC0546FF
:10059000214604F0F5FB494908604C4800780028E2
:1005A00013DD4A48007804F011FD04464549897876
:1005B000444AD278032303FB021004F0BFFC054633
:1005C000214604F0DDFB3E4908603C4801683C4898
:1005D000006804F04BFE3F4908603E48006804F0A4
:1005E00035FB21F00041064600223B4B04F044FA63
:1005F00021F000418046394A394B04F0C1F809D254
:100600003448006804F022FB0646364A364B04F0B4
:10061000F3F801E000200146044603F0EBFD8246BA
:100620005146324802F0BEFE31490860584604F097
:1006300085FC07462E480168384604F033FB064621
:1006400004F060FC04B2584604F078FC07462848E1
:100650000168384604F00AFE064604F053FC05B271
:100660002146284602F018FF1948007804280AD1CC
:100670002048007838B901201E4908701E480078CB
:10068000401C1D4908701B480078012806D11048FD
:100690000078042802D00020164908701648007817
:1006A00016490978884206D0134800781349087023
:1006B0000120BDE8F09F0020FBE70000640100205E
:1006C00068010020200000206C0100206D01002046
:1006D000270000205C0100200000084048AFBC9AC1
:1006E000F2D77A3E48E17A14AE47F53F6003002026
:1006F00060010020700100206E0100206F010020C9
:1007000010B50A4802F05CFE0020084948614FF02D
:100710007C500860002048608860054908700549E1
:1007200008700549087000F04BF810BD6003002008
:100730006E0100206F0100207001002010B5002024
:100740001949087019490870002416E0184A32F84F
:100750001410184A52F8240000F05AFA012800D167
:1007600000E00020144908550846005DA0400E49ED
:10077000097808440C490870641C062CE6DB002448
:1007800007E00D48005D09490978084407490870E9
:10079000641C042CF5DB08480079074949790844B2
:1007A0000649087010BD0000260000202700002028
:1007B000440000202C000020200000202800002001
:1007C00070470146002291F82100022808D0042039
:1007D000886300BF002081F8200000BF012070471F
:1007E0000868006820F00E000B6818600868006850
:1007F00020F001000B68186091F84030012098400B
:10080000CB6B5860012081F8210000BF002081F8E7
:10081000200000BF1046E2E770B50446002594F8BA
:100820002100022803D00420A063012548E02068AD
:10083000006820F00E00216808602068006820F041
:100840000100216808601F492068884201D1012009
:1008500026E01C4914312068884201D110201FE095
:10086000184928312068884201D1801518E01549BF
:100870003C312068884201D1801411E01149503187
:100880002068884202D14FF4803009E00D4964317C
:100890002068884202D14FF4801001E04FF0807050
:1008A000084908394860012084F8210000BF002071
:1008B00084F8200000BF606B10B12046616B884750
:1008C000284670BD0800024070B5044600F0AEF93D
:1008D00006462546681C10B104480078054400BF50
:1008E00000F0A4F9801BA842FAD370BD08000020D4
:1008F0002DE9F8470346002294466EE14FF00108C7
:1009000008FA02F4D1F8008008EA0400A0427DD180
:10091000DFF8DCA2D1F80480A8EB0A09D0453AD070
:1009200014DCB8F1030F50D009DCB8F1000F31D05E
:10093000B8F1010F1CD0B8F1020F49D120E0B8F195
:10094000110F18D0B8F1120F42D11EE0B9F5881F6F
:1009500025D006DCB9F5803F20D0B9F5801F37D10E
:100960001AE0B9F5001F18D0B9F5041F30D117E00F
:10097000D1F80CC02DE0D1F80C8008F1040C28E06F
:10098000D1F80C8008F1080C23E0D1F80C8008F1B4
:100990000C0C1EE000BF00BF00BF00BF00BF00BFC7
:1009A000D1F80880B8F1000F02D14FF0040C0BE031
:1009B000D1F80880B8F1010F03D14FF0080C1C6189
:1009C00002E04FF0080C5C6103E04FF0000C00E027
:1009D00000BF00BFFF2801D8984601E003F10408DA
:1009E0004646FF2802D84FEA820803E0A2F1080831
:1009F0004FEA88084746D6F800804FF00F0909FAF9
:100A000007F928EA09080CFA07F900E088E048EA43
:100A10000908C6F80080D1F8048008F08058B8F1C1
:100A2000805F7DD100BFDFF8CC81D8F8188048F016
:100A30000108DFF8C091C9F81880C846D8F81880B6
:100A400008F00108CDF8008000BF00BF4FEAB938B8
:100A50004FEA920958F829504FEA82784FEA1879FC
:100A60004FF00F0808FA09F825EA0805DFF8888131
:100A7000434502D14FF0000816E0DFF8808143457E
:100A800002D14FF001080FE0DFF87481434502D135
:100A90004FF0020808E0DFF86C81434502D14FF0C7
:100AA000030801E04FF004084FEA82794FEA197910
:100AB00008FA09F848EA0505DFF84C814FEA92097F
:100AC00048F82950D1F8048008F48018B8F5801F40
:100AD0000AD1DFF83881D8F8008048EA0008DFF84A
:100AE0002C91C9F8008009E0DFF82081D8F8008057
:100AF00028EA0008DFF81491C9F80080D1F80480D2
:100B000008F40018B8F5001F10D1DFF8008108F1D3
:100B10000408D8F8008048EA0008DFF8F09000E008
:100B20005AE009F10409C9F800800DE0DFF8DC8023
:100B300008F10408D8F8008028EA0008DFF8CC9013
:100B400009F10409C9F80080D1F8048008F40038DC
:100B5000B8F5003F0ED1DFF8B480A8F10408D8F84A
:100B6000008048EA0008DFF8A490A9F10409C9F858
:100B700000800DE0DFF89480A8F10408D8F8008028
:100B800028EA0008DFF88490A9F10409C9F8008078
:100B9000D1F8048008F48038B8F5803F0ED1DFF832
:100BA0006C80A8F10808D8F8008048EA0008DFF84F
:100BB0005C90A9F10809C9F800800DE0DFF84C80CD
:100BC000A8F10808D8F8008028EA0008DFF83C906F
:100BD000A9F10809C9F80080521CD1F8008028FA50
:100BE00002F8B8F1000F7FF489AEBDE8F887000085
:100BF000000011100010024000080140000C0140EC
:100C000000100140001401400800014008040140A8
:100C1000024693680B400BB1012000E000207047B2
:100C20000AB1016101E00B040361704701480068EB
:100C3000704700000000002070B504460CB9012088
:100C400070BD94F83D0028B9002084F83C0020468F
:100C500000F08CF9242084F83D002068006820F022
:100C60000100216808602068006840F400402168A5
:100C700008602068006820F400402168086000F0E7
:100C80004FFB05465C496068884206D85B48854250
:100C900001D2012007E0002005E05948854201D239
:100CA000012000E00020012800D1C9E75548B5FB2C
:100CB000F0F62068406820F03F003043216848602B
:100CC0004D496068884201D8701C07E04FF4967067
:100CD00070434FF47A71B0FBF1F0401C2168096A4F
:100CE00021F03F0108432168086243496068884257
:100CF00014D8681E61684900B0FBF1F0401CC0F3D5
:100D00000B00042801D204203DE0681E6168490000
:100D1000B0FBF1F0401CC0F30B0034E0A06838B920
:100D2000681E616801EB4101B0FBF1F0401C0AE074
:100D3000681E616801EBC10202EB0111B0FBF1F02A
:100D4000401C40F48040C0F30B0008B901201AE0B9
:100D5000A06848B9681E616801EB4101B0FBF1F081
:100D6000401CC0F30B000CE0681E616801EBC1027F
:100D700002EB0111B0FBF1F0401CC0F30B0040F49A
:100D8000804040F400402168C9694CF6FF729143ED
:100D900008432168C861D4E907010843216809684C
:100DA00021F0C001084321680860D4E9031008431A
:100DB0002168896848F2FF329143084321688860BE
:100DC000D4E9050108432168C96821F0FF010843FF
:100DD0002168C8602068006840F001002168086050
:100DE00000202064202084F83D000020206384F847
:100DF0003E0000BF24E70000A086010080841E00A2
:100E000000093D0040420F002DE9FC5F04460F46FB
:100E100090469946DDE90CAB0E9EFFF707FF0546AD
:100E200094F83D0020287DD1192301224D49204608
:100E3000009501F0D0FC10B10220BDE8FC9F00BF7E
:100E400094F83C00012801D10220F6E7012084F843
:100E50003C0000BF2068006800F0010028B920684D
:100E6000006840F00100216808602068006820F4F4
:100E7000006021680860212084F83D00402084F84B
:100E80003E0000202064C4F824A0A4F82AB0608D9D
:100E900020853548E0624B46424639462046CDE93A
:100EA000006501F0F5FB08B10120C6E731E02A46F4
:100EB0003146204601F06BFD50B1206C042805D16D
:100EC0002068006840F40070216808600120B4E7E1
:100ED000606A007821680861606A401C6062208D49
:100EE000401E2085608D401E608520684069C0F3EB
:100EF000800070B1208D60B1606A0078216808615F
:100F0000606A401C6062208D401E2085608D401EFE
:100F10006085208D0028CAD12A463146204601F03E
:100F200027FC00E01CE050B1206C042805D12068AB
:100F3000006840F400702168086001207DE72068A7
:100F4000006840F4007021680860202084F83D00AB
:100F5000002084F83E0000BF84F83C0000BF6CE72E
:100F600002206AE7020010000000FFFF10B586B003
:100F700004460020029003900490059016492068D2
:100F8000884226D100BF1548806940F00800134907
:100F900088610846806900F00800019000BF00BF2A
:100FA0004FF440600290122003900320059002A9A4
:100FB0000B48FFF79DFC00BF0848C06940F4800063
:100FC0000649C8610846C06900F48000019000BF6E
:100FD00000BF06B010BD00000058004000100240E5
:100FE000000C01400348006803490978084401499E
:100FF00008607047000000200800002010B5084875
:10100000006840F0100006490860032000F0A8F8CE
:101010000F2000F007F800F02BF8002010BD0000B2
:101020000020024070B504460E4800784FF47A71F3
:10103000B1FBF0F00C490968B1FBF0F5284600F06F
:10104000F9FB08B1012070BD102C07D20022214607
:10105000501E00F047F80548046001E00120F2E767
:101060000020F0E7080000200C0000200400002011
:1010700008B500BF1148806940F001000F49886140
:101080000846806900F00100009000BF00BF00BF6B
:101090000846C06940F08050C8610846C06900F049
:1010A0008050009000BF00BF00BF0549486820F095
:1010B000E06040F00070486000BF08BD00100240D2
:1010C0000000014001460846002809DB00F01F032C
:1010D00001229A4043099B0003F1E023C3F8002159
:1010E00000BF70472DE9F05F80460D461646002789
:1010F00002F06CFD074639462A46334601F00700E8
:10110000C0F1070ABAF1040F02D94FF0040A01E056
:10111000C0F1070AD14600F1040ABAF1070F02D262
:101120004FF0000A01E0A0F1030AD4464FF0010A93
:101130000AFA09FAAAF1010A0AEA020A0AFA0CFAF8
:101140004FF0010B0BFA0CFBABF1010B0BEA030B9D
:101150004AEA0B042146404602F040FDBDE8F09FFC
:1011600000BF00F00702064B19684FF6FF03194055
:10117000044B0B4343EA0221014B196000BF704747
:101180000CED00E00000FA0570B504460D460CB900
:10119000012070BD5A48006800F00700A8420ED236
:1011A0005748006820F00700284355490860084662
:1011B000006800F00700A84201D00120E9E720788C
:1011C00000F0020002281DD1207800F0040004285D
:1011D00005D14C48406840F4E0604A4948602078B6
:1011E00000F00800082805D14648406840F46050E7
:1011F000444948604348406820F0F000A168084333
:1012000040494860207800F0010078B36068012808
:1012100006D13C48006800F4003090B90120B8E7DE
:101220006068022806D13748006800F0007040B9B5
:101230000120AEE73348006800F0020008B9012041
:10124000A7E73048406820F00300616808432D4953
:101250004860FFF7EBFC064609E0FFF7E7FC801B60
:1012600041F28831884202D9032092E707E02548FD
:10127000406800F00C006168B0EB810FEDD12048B0
:10128000006800F00700A8420ED91D48006820F051
:10129000070028431A4908600846006800F0070064
:1012A000A84201D0012074E7207800F0040004284F
:1012B00007D11448406820F4E060E1680843114910
:1012C0004860207800F00800082808D10D484068E0
:1012D00020F46050216940EAC1000A49486000F0EA
:1012E0003FF808494968C1F30311074A515CC840F7
:1012F0000649086006480068FFF794FE002048E7AA
:101300000020024000100240585400080C00002049
:101310000400002001480068704700000C00002015
:1013200000B5FFF7F7FF04494968C1F30221034AFA
:10133000515CC84000BD0000001002406854000825
:1013400000B5FFF7E7FF04494968C1F3C221034A2A
:10135000515CC84000BD0000001002406854000805
:1013600070B500210022002400230020134D69687D
:1013700001F00C05F5B1042D02D0082D19D101E0C2
:101380000F4819E00F4DC1F38346AB5D01F4803582
:1013900055B10A4D6D68C5F340450B4E725D084D61
:1013A0005D43B5FBF2F402E0084D03FB05F4204673
:1013B00002E000BF024800BF00BF70BD0010024045
:1013C00000127A00465400085654000800093D00F7
:1013D000F8B504460CB90120F8BD207800F00100F2
:1013E000002878D0F848406800F00C0004280CD0A1
:1013F000F548406800F00C00082811D1F248406818
:1014000000F48030B0F5803F0AD1EF48006800F466
:10141000003000285FD0606800285CD10120DBE745
:1014200000BF6068B0F5803F06D1E748006840F42F
:101430008030E549086028E0606858B9E2480068F3
:1014400020F48030E04908600846006820F48020DD
:1014500008601AE06068B0F5A02F0BD1DA48006888
:1014600040F48020D84908600846006840F4803085
:1014700008600AE0D448006820F48030D24908604F
:101480000846006820F48020086000BF606888B1CA
:10149000FFF7CCFB054606E0FFF7C8FB401B6428BE
:1014A00001D9032098E7C848006800F400300028FC
:1014B000F2D010E0FFF7BAFB054606E0FFF7B6FBF7
:1014C000401B642801D9032086E7BF48006800F468
:1014D00000300028F2D1207800F00200022857D115
:1014E000B948406800F00C0050B1B748406800F0BF
:1014F0000C00082818D1B448406800F4803098B92E
:10150000B148006800F0020020B12069012801D034
:10151000012061E7AC48006820F0F800616940EA0A
:10152000C100A949086033E02069E8B10120A7495A
:101530000860FFF77BFB054606E0FFF777FB401BE3
:10154000022801D9032047E79F48006800F0020005
:101550000028F2D09C48006820F0F800616940EA59
:10156000C1009949086013E0002098490860FFF71E
:101570005DFB054606E0FFF759FB401B022801D939
:10158000032029E79048006800F002000028F2D10B
:10159000207800F0080008282DD1A069B8B10120FA
:1015A0008B490860FFF742FB054606E0FFF73EFB6C
:1015B000401B022801D903200EE78348406A00F04F
:1015C00002000028F2D0012001F008FF13E0002003
:1015D0007F490860FFF72AFB054606E0FFF726FB78
:1015E000401B022801D90320F6E67748406A00F044
:1015F00002000028F2D1207800F00400042873D102
:1016000000277148C06900F0805070B900BF6E4873
:10161000C06940F080506C49C8610846C06900F05C
:101620008050009000BF00BF01276A48006800F4A6
:101630008070B0B96748006840F480706549086000
:10164000FFF7F4FA054606E0FFF7F0FA401B6428BE
:1016500001D90320C0E65F48006800F480700028CC
:10166000F2D000BFE068012806D15748006A40F078
:1016700001005549086227E0E06858B95248006AFD
:1016800020F00100504908620846006A20F004007A
:10169000086219E0E06805280BD14B48006A40F069
:1016A0000400494908620846006A40F001000862E7
:1016B0000AE04548006A20F00100434908620846F4
:1016C000006A20F00400086200BFE068A0B1FFF7E4
:1016D000ADFA054609E0FFF7A9FA401B41F288314F
:1016E000884202D9032077E622E03748006A00F0FA
:1016F00002000028EFD012E0FFF798FA054608E054
:10170000FFF794FA401B41F28831884201D9032047
:1017100062E62D48006A00F002000028F0D1012F97
:1017200005D12948C06920F080502749C86100BF11
:10173000E069C8B32448406800F00C00082860D075
:10174000E069022848D1002020490866FFF76EFAB8
:10175000054606E0FFF76AFA401B022801D903207C
:101760003AE61948006800F000700028F2D1206ABB
:10177000B0F5803F07D11448406820F40030A168DC
:10178000084311494860D4E9080108430E494968F3
:1017900021F4741108430C49486001200B49086684
:1017A000FFF744FA054607E03DE0FFF73FFA401B2C
:1017B000022801D903200FE60348006800F00070FA
:1017C0000028F2D02FE0000000100240000042424A
:1017D0008004424200700040002014490866FFF770
:1017E00025FA054606E0FFF721FA401B022801D939
:1017F0000320F1E50E48006800F000700028F2D1E7
:1018000011E0E069012800D1E6E50948466806F4E0
:101810008031206A814204D106F47011606A8142ED
:1018200001D00120D8E50020D6E5000000004242AA
:101830000010024070B504462546681EB0F1807F56
:1018400001D301200FE0681E4FF0E02148610F2115
:101850004FF0FF3002F0C2F900204FF0E021886124
:1018600007200861002070BD7047704730B5024600
:101870000B4600BF92F83C00012801D1022030BD88
:10188000012082F83C0000BF022082F83D00106871
:1018900044681068816824F0700418680443106874
:1018A0004460104D1068A8420BD01068B0F1804F12
:1018B00007D00D4D1068A84203D00C4D1068A84207
:1018C00005D121F080015868014310688160012032
:1018D00082F83D0000BF002082F83C0000BF00BF3E
:1018E000CDE70000002C014000040040000800404B
:1018F00010B504460CB9012010BD94F83D0028B97C
:10190000002084F83C00204600F026F8022084F8ED
:101910003D00211D206801F053FE012084F846009F
:1019200000BF84F83E0001213F20015540200155B1
:101930004120015500BF00BF012084F84200432030
:101940000155442001554520015500BF012084F870
:101950003D000020D0E7000038B504460D4920685E
:10196000884215D100BF0C48C06940F004000A4904
:10197000C8610846C06900F00400009000BF00BFC5
:10198000002211461E20FFF7ADFB1E20FFF79AFB39
:1019900038BD00000008004000100240014691F8E8
:1019A0003D00012801D001207047022081F83D0050
:1019B0000868C06840F001000B68D860124B0868E6
:1019C00098420BD00868B0F1804F07D00F4B0868E1
:1019D000984203D00E4B086898420CD10868806882
:1019E00000F00702062A0CD00868006840F00100E9
:1019F0000B68186005E00868006840F001000B689B
:101A000018600020D0E70000002C014000040040D6
:101A1000000800402DE9F04104460D46002700BFB4
:101A200094F83C00012802D10220BDE8F081012099
:101A300084F83C0000BF022084F83D0020688668DE
:101A400026F0770626F47F462068866028685028AE
:101A500033D00CDC202850D004DC00284BD01028D8
:101A600051D149E0302849D040284CD139E0602894
:101A70002DD0702807D0B0F5805F03D0B0F5005F9F
:101A800041D10DE041E0D5E902136A68206801F018
:101A9000E2FD2068866846F077062068866034E0BC
:101AA000D5E902136A68206801F0D5FD20688068D6
:101AB00040F480402168886027E0EA68696820680F
:101AC00001F09AFE5021206801F0D0FD1DE0EA6887
:101AD0006968206801F0A3FE6021206801F0C6FD5E
:101AE00013E0EA686968206801F086FE40212068FA
:101AF00001F0BCFD09E000BF00BF00BF29682068FD
:101B000001F0B4FD01E0012700BF00BF012084F80F
:101B10003D0000BF002084F83C0000BF384684E749
:101B20002DE9F04104460D4614B90120BDE8F081CD
:101B300094F83D0028B9002084F83C00204600F0CD
:101B400051F8022084F83D002068806844F20701C3
:101B5000884321688860211D206801F031FD2068DC
:101B6000D0F80880206886692068076A286840EAFB
:101B7000080840F203308643A969A86840EA0120BA
:101B8000064340F60C4086434FF2F0008643E96975
:101B9000E86840EA0120064328690001296A40EA12
:101BA0000130064327F022076969686840EA01109E
:101BB00007432068C0F808802068866120680762B3
:101BC000012084F8460084F83E0001213F200155A1
:101BD000012084F8420043200155012084F83D0093
:101BE0000020A3E710B586B00446002002900390C1
:101BF000049005902068B0F1804F2DD100BF30488F
:101C0000C06940F001002E49C8610846C06900F073
:101C10000100019000BF00BF00BF0846806940F08E
:101C2000040088610846806900F00400019000BF4C
:101C300000BF03200290002003900120049002A91D
:101C40002048FEF755FE002211461C20FFF74AFAF5
:101C50001C20FFF737FA30E01B49206888422CD15E
:101C600000BF1748C06940F002001549C861084626
:101C7000C06900F00200019000BF00BF00BF08462D
:101C8000806940F0040088610846806900F0040023
:101C9000019000BF00BFC0200290002003900120EF
:101CA000049002A90748FEF723FE002211461D20DA
:101CB000FFF718FA1D20FFF705FA06B010BD000067
:101CC0000010024000080140000400402DE9F043EC
:101CD00004460D4694F83E603F20075D94F842802C
:101CE000432010F804906DB9012E02D1B8F1010F14
:101CF00002D00120BDE8F083022084F83E0084F881
:101D0000420025E0042D0CD1012F02D1B9F1010FC1
:101D100001D00120EEE702213F200155432001556B
:101D200016E0012E07D1012F05D1B8F1010F02D124
:101D3000B9F1010F01D00120DCE7022084F83E0058
:101D400002213F200155022084F842004320015522
:101D500015B1042D0CD105E001220021206801F00D
:101D600069FC10E001220421206801F063FC0AE014
:101D700001220021206801F05DFC0122042120687D
:101D800001F058FC00BF00BF2068006840F001006F
:101D9000216808600020ADE7704710B50446206850
:101DA0000069C0F34000D8B12068C068C0F34000AB
:101DB000B0B16FF00200216808610120207720682F
:101DC000806900F0030018B12046FFF7E5FF05E049
:101DD000204600F0D9F8204600F08DF90020207749
:101DE00020680069C0F38000D8B12068C068C0F3E3
:101DF0008000B0B16FF004002168086102202077F4
:101E00002068806900F4407018B12046FFF7C4FFD5
:101E100005E0204600F0B8F8204600F06CF90020FC
:101E2000207720680069C0F3C000D8B12068C0687E
:101E3000C0F3C000B0B16FF0080021680861042051
:101E400020772068C06900F0030018B12046FFF732
:101E5000A3FF05E0204600F097F8204600F04BF97C
:101E60000020207720680069C0F30010D8B12068F6
:101E7000C068C0F30010B0B16FF0100021680861B5
:101E8000082020772068C06900F4407018B120460F
:101E9000FFF782FF05E0204600F076F8204600F0CC
:101EA0002AF9002020772068006900F0010058B16D
:101EB0002068C06800F0010030B16FF001002168B7
:101EC0000861204600F082F920680069C0F3C01064
:101ED00058B12068C068C0F3C01030B16FF0800006
:101EE000216808612046FFF7BFFC20680069C0F345
:101EF000801058B12068C068C0F3801030B16FF016
:101F0000400021680861204600F06AF920680069F5
:101F1000C0F3401058B12068C068C0F3401030B121
:101F20006FF02000216808612046FFF79EFC10BD7D
:101F300010B586B0044600200290039004900590EE
:101F40000E492068884216D100BF0D48806940F0D4
:101F500008000B4988610846806900F0080001907C
:101F600000BF00BFC020029002200390059002A98C
:101F70000448FEF7BDFC06B010BD0000000800409C
:101F800000100240000C014070472DE9F04104466A
:101F90000D461646002700BF94F83C00012802D1E8
:101FA0000220BDE8F081012084F83C0000BF36B17A
:101FB000042E1BD0082E31D00C2E5ED145E02946D0
:101FC000206801F05DFB2068806940F0080021680E
:101FD00088612068806920F0040021688861206899
:101FE0008069296908432168886148E0294620689A
:101FF00001F076FB2068806940F400602168886108
:102000002068806920F48060216888612068806988
:10201000296940EA01202168886130E0294620686A
:1020200001F092FB2068C06940F008002168C86197
:102030002068C06920F004002168C8612068C06978
:10204000296908432168C86119E02946206801F020
:10205000AFFB2068C06940F400602168C861206857
:10206000C06920F480602168C8612068C06929695E
:1020700040EA01202168C86101E0012700BF00BFDC
:1020800000BF002084F83C0000BF384689E710B547
:1020900004460CB9012010BD94F83D0028B9002079
:1020A00084F83C00204600F025F8022084F83D002A
:1020B000211D206801F084FA012084F8460000BF49
:1020C00084F83E0001213F20015540200155412068
:1020D000015500BF00BF012084F842004320015594
:1020E000442001554520015500BF012084F83D00E2
:1020F0000020D0E77047704770B504460D4615B90B
:1021000094F83E000BE0042D02D13F20005D06E074
:10211000082D02D14020005D01E04120005D012832
:1021200001D0012070BD1DB9022084F83E000EE0F0
:10213000042D03D102213F20015508E0082D03D1D1
:1021400002214020015502E00221412001550122D7
:102150002946206801F06EFA19492068884201D1A9
:10216000012000E0002028B12068406C40F40040CD
:10217000216848641249206888420BD02068B0F179
:10218000804F07D00F492068884203D00E4920684D
:1021900088420CD12068806800F00706062E0CD01B
:1021A0002068006840F001002168086005E02068B0
:1021B000006840F00100216808600020B2E70000DC
:1021C000002C0140000400400008004010B5044607
:1021D0000248844201D1FEF78DF810BDC4020020F0
:1021E00070477047704700002DE9F84F044620689B
:1021F00005682068C668206847694FF00009CA462C
:1022000005F00F09B9F1000F0AD105F0200038B12F
:1022100006F0200020B1204601F07AFBBDE8F88FDF
:10222000B9F1000F7BD007F0010018B906F49070E7
:10223000002874D005F0010030B106F4807018B1A8
:10224000606C40F00100606405F0040030B107F0FC
:10225000010018B1606C40F00200606405F00200FB
:1022600030B107F0010018B1606C40F00400606408
:1022700005F0080048B106F0200010B907F0010091
:1022800018B1606C40F008006064606C002845D0B4
:1022900005F0200028B106F0200010B1204601F022
:1022A00037FB20684069C0F3801A606C00F00800BA
:1022B00010B9BAF1000F2CD0204601F0E3FA2068E3
:1022C000406900F0400000B300BF00BF2168143136
:1022D00051E8001F21F040002168143141E800025C
:1022E000002AF3D100BFE06B50B17748E16B48633F
:1022F000E06BFEF791FA88B1E06B416B88470DE027
:102300002046FFF76FFF09E009E02046FFF76AFF6C
:1023100004E02046FFF766FF002060647EE7206B44
:10232000012877D105F01000002873D006F01000C6
:102330000028FAD000BF00200090206800680090BC
:1023400020684068009000BF00BF2068406900F02E
:10235000400000285FD0E06B006840681FFA80F8FA
:10236000B8F1000F55D0A08D404552DDA4F82E8065
:10237000E06B8069202843D000BF00BF21680C318A
:1023800051E8001F21F4807021680C3141E80002FF
:10239000002AF3D100BF00BF00BF2168143151E80B
:1023A000001F21F001002168143141E80002002AD9
:1023B000F3D100BF00BF00BF2168143151E8001FF6
:1023C00021F040002168143141E80002002AF3D1D5
:1023D00000BF202084F842000020206300BF00BF1F
:1023E00021680C3151E8001F21F0100021680C31E8
:1023F00041E80002002AF3D100BFE06BFEF7E1F9EB
:1024000002206063A08DE28D801A81B22046FFF722
:10241000E8FE03E742E0A08DE18D401A1FFA80F844
:10242000E08DD0B3B8F1000F37D000BF00BF2168F6
:102430000C3151E8001F21F4907021680C3141E803
:102440000002002AF3D100BF00BF00BF2168143191
:1024500051E8001F21F001002168143141E8000219
:10246000002AF3D100BF202084F84200002020631E
:1024700000BF00BF21680C3151E8001F21F010009F
:1024800021680C3141E80002002AF3D100BF02208C
:10249000606341462046FFF7A4FEBFE605F08000DA
:1024A00030B106F0800018B1204601F02DFBB5E6F2
:1024B00005F0400030B106F0400018B1204601F0B0
:1024C00017FAABE600BFA9E67138000810B504465C
:1024D0000CB9012010BDA06900B100E000BF94F864
:1024E000410028B9002084F84000204600F02AF876
:1024F000242084F841002068C06820F4005021683E
:10250000C860204601F082FA2068006920F49040FB
:10251000216808612068406920F02A00216848612C
:102520002068C06840F400502168C86000206064E2
:10253000202084F8410084F842000020606300BF3E
:10254000C8E7000010B586B0044600200290039052
:10255000049005901E492068884236D100BF1D486E
:10256000806940F480401B4988610846806900F416
:102570008040019000BF00BF00BF0846806940F066
:10258000040088610846806900F00400019000BFE3
:1025900000BF48150290022003900320059002A975
:1025A0000D48FEF7A5F94FF48060029000200390DB
:1025B000049002A90848FEF79BF900221146252045
:1025C000FEF790FD2520FEF77DFD06B010BD000052
:1025D00000380140001002400008014017498842BD
:1025E0002AD117490978092907D116490978164AC5
:1025F00091700021124A11701EE0114909780029DA
:102600000BDD0F490978092907DA0E4909780E4AC6
:10261000D17000210A4A11700EE009490978102989
:102620000ADD07490978192906DA06490978064AB0
:1026300011710021024A1170704700000C03002044
:102640003B0100205403002074010020704700BFAC
:10265000FEE7014608684069C0F38020B0B16FF41E
:1026600080600A68506100200863202081F83D00E6
:10267000002081F83E00086C40F00400086400BFB0
:10268000002081F83C0000BF012070470020FCE7DB
:102690002DE9F8430446884615469946DDE9086762
:1026A0002068006840F4807021680860334600228A
:1026B0004FF001112046009700F08DF860B12068BE
:1026C000006800F48070B0F5807F02D14FF4007094
:1026D00020640320BDE8F88308F0FE00216808614B
:1026E0003B4632462149204600F0D4F808B101208B
:1026F000F0E700BF0020009020684069009020684B
:102700008069009000BF00BF3A463146204600F085
:102710003EF950B1206C042805D12068006840F4CF
:102720000070216808600120D4E7B9F1010F03D1DE
:10273000E8B22168086117E0C5F307202168086145
:102740003A463146204600F022F950B1206C042868
:1027500005D12068006840F40070216808600120FD
:10276000B8E7E8B2216808610020B3E70200010081
:1027700070B504460D46164625E02046FFF769FF72
:1027800008B1012070BD681CE8B1FEF74FFA801B4C
:10279000A84200D8BDB920684069C0F3800090B954
:1027A00000202063202084F83D00002084F83E00B3
:1027B000206C40F02000206400BF002084F83C0022
:1027C00000BF0120DEE720684069C0F380000028D8
:1027D000D3D00020D6E72DE9F04104460D46174638
:1027E0001E46DDF8188038E0701CA8B3FEF71EFA0C
:1027F000A0EB0800B04200D876BBC5F30740012823
:102800000AD120684069A9B20840A9B2884201D122
:1028100001200BE0002009E020688069A9B208408F
:10282000A9B2884201D1012000E00020B84214D1B1
:1028300000202063202084F83D00002084F83E0022
:10284000206C40F02000206400BF002084F83C0091
:1028500000BF0120BDE8F081FFE7C5F30740012874
:102860000AD120684069A9B20840A9B2884201D1C2
:1028700001200BE0002009E020688069A9B208402F
:10288000A9B2884201D1012000E00020B842ABD0BB
:102890000020DFE72DE9F04104460D4616461F46AD
:1028A00058E020684069C0F38020E8B120680068E3
:1028B00040F40070216808606FF48060216848610E
:1028C00000202063202084F83D00002084F83E0092
:1028D000206C40F00400206400BF002084F83C001D
:1028E00000BF0120BDE8F081701C90B3FEF79EF997
:1028F000C01BB04200D866BBC5F3074001280AD10F
:1029000020684069A9B20840A9B2884201D10120DB
:102910000BE0002009E020688069A9B20840A9B254
:10292000884201D1012000E0002090B900202063FE
:10293000202084F83D00002084F83E00206C40F008
:102940002000206400BF002084F83C0000BF01206C
:10295000C8E7FFE7C5F3074001280AD120684069AE
:10296000A9B20840A9B2884201D101200BE00020A1
:1029700009E020688069A9B20840A9B2884201D163
:10298000012000E0002000288BD00020AAE770B5CD
:1029900004460D46164625E02046FFF75AFE08B1CC
:1029A000012070BD681CE8B1FEF740F9801BA84209
:1029B00000D8BDB920684069C0F3C01090B90020AC
:1029C0002063202084F83D00002084F83E00206C25
:1029D00040F02000206400BF002084F83C0000BFCD
:1029E0000120DEE720684069C0F3C0100028D3D082
:1029F0000020D6E710B504468CB1012C04D0022C7F
:102A000018D0032C2CD120E0002201211548FEF71C
:102A100007F9012202211348FEF702F920E0012202
:102A200011461048FEF7FCF8002202210D48FEF77F
:102A3000F7F815E0002201210A48FEF7F1F800221C
:102A400002210848FEF7ECF80AE0012202210548BD
:102A5000FEF7E6F8012211460248FEF7E1F800BF52
:102A600000BF10BD000C014010B5074802784FF4BC
:102A700000510648FEF7D4F84FF480510348FEF7A2
:102A8000C7F80349087010BD38010020000C014050
:102A90003901002010B5FFF7E7FF0548007801284D
:102AA00002D10449087002E000200249087010BDFC
:102AB000390100203A01002010B50122022104480A
:102AC000FEF7AEF8012211460148FEF7A9F810BD45
:102AD000000C014000B585B00020019002900390E9
:102AE000049000BF4148806940F010003F49886170
:102AF0000846806900F01000009000BF00BF00BFD2
:102B00000846806940F0200088610846806900F02E
:102B10002000009000BF00BF00BF0846806940F061
:102B2000040088610846806900F00400009000BF3E
:102B300000BF00BF0846806940F008008861084671
:102B4000806900F00800009000BF00BF00224FF431
:102B500000512748FEF764F8002242F23F01254861
:102B6000FEF75EF800224FF400412348FEF758F8C4
:102B70004FF40050019001200290002003900320A8
:102B8000049001A91A48FDF7B3FE41F61C1001900C
:102B900000200290039001A91748FDF7A9FE42F218
:102BA0003F00019001200290002003900320049038
:102BB00001A91048FDF79CFE4FF451400190002000
:102BC0000290039001A90B48FDF792FE4FF40040DC
:102BD000019001200290002003900320049001A99D
:102BE0000548FDF785FE05B000BD0000001002405D
:102BF00000100140000C01400008014010B50B48D6
:102C00000B4908600B484860002109488160C16099
:102C10004FF480410161002141618161C161016224
:102C2000FEF70AF808B1FDF77FFC10BD0058004020
:102C3000E0010020A086010000B58BB0242102A88D
:102C4000FDF7E2FA0020009001904FF08040174914
:102C50000860002048600021144881604FF6FF7131
:102C6000C160002101618161032002900020039076
:102C70000120049000200590069007900120089004
:102C8000002009900A9002A90848FEF749FF08B100
:102C9000FDF74AFC00200090019069460348FEF7CA
:102CA000E5FD08B1FDF740FC0BB000BD340200208B
:102CB00000B58BB0242102A8FDF7A6FA00200090F1
:102CC0000190184818490860002048600021164803
:102CD00081604FF6FF71C1600021016181610320B5
:102CE000029000200390012004900020059006909F
:102CF000079001200890002009900A9002A90A4834
:102D0000FEF70EFF08B1FDF70FFC002000900190C8
:102D100069460548FEF7AAFD08B1FDF705FC0BB0B2
:102D200000BD0000000400407C02002000B58DB012
:102D3000002009900A900B900C90079008901C219D
:102D40006846FDF761FA2448244908604720486036
:102D500000212248816040F2E731C1600021016119
:102D60008161FEF7C5FD08B1FDF7DEFB4FF4805031
:102D7000099009A91948FEF74DFE08B1FDF7D4FBEB
:102D80001648FFF784F908B1FDF7CEFB0020079045
:102D9000089007A91148FEF769FD08B1FDF7C4FBCB
:102DA000602000900020019002900490002269466B
:102DB0000A48FFF7EAF808B1FDF7B6FB04226946B6
:102DC0000648FFF7E2F808B1FDF7AEFB0348FFF74E
:102DD000AFF80DB000BD000000080040C4020020A4
:102DE00010B50B480B4908604FF4E13048600021F2
:102DF00008488160C16001610C214161002181614D
:102E0000C161FFF763FB08B1FDF78EFB10BD000049
:102E1000003801400C03002010B504210248FDF7E2
:102E2000F7FE0249087010BD000801405000002064
:102E300000BFFEE710B5002208210D48FDF7F0FEA7
:102E4000002210210A48FDF7EBFE0022202108484D
:102E5000FDF7E6FE002240210548FDF7E1FE0021D6
:102E60000448FFF749F904210248FFF745F910BD6E
:102E7000000C0140C402002000BFFEE710B5002096
:102E800000F001F810BD70B50646002415E004F10D
:102E9000B001C8B200F072FE002000F06FFE1020FA
:102EA00000F06CFE002504E0304600F07BFE681C5C
:102EB000C5B2802DF8DB601CC4B2082CE7DB70BD06
:102EC00010B504462B480460AE2000F057FE2020C9
:102ED00000F054FE102000F051FEB02000F04EFE35
:102EE000C82000F04BFE002000F048FE102000F04B
:102EF00045FE402000F042FE812000F03FFEFF2012
:102F000000F03CFEA12000F039FEA62000F036FEC5
:102F1000A82000F033FE3F2000F030FEA42000F097
:102F20002DFED32000F02AFE002000F027FED52041
:102F300000F024FEF02000F021FED92000F01EFE5B
:102F4000222000F01BFEDA2000F018FE122000F014
:102F500015FEDB2000F012FE202000F00FFE8D2079
:102F600000F00CFE142000F009FEAF2000F006FE79
:102F700010BD00003401002070B504460D4605F177
:102F8000B001C8B200F0FAFD102141EA141000F0BF
:102F9000F5FD04F00F0141F0010000F0EFFD70BD00
:102FA0002DE9F04707460E46904699460025002435
:102FB000A8F12000C5B27F2F02DD0027B01CC6B2E9
:102FC000B9F1100F22D131463846FFF7D5FF002462
:102FD00007E004EB0511174A505C00F0E3FD601CAC
:102FE000C4B2082CF5DB701CC1B23846FFF7C4FF31
:102FF000002408E004EB051108310E4A505C00F093
:10300000D1FD601CC4B2082CF4DB11E03146384617
:10301000FFF7B2FF002409E005EB4501064A02EB89
:103020004101085D00F0BEFD601CC4B2062CF3DB5C
:10303000BDE8F08798560008705400082DE9FF4F4E
:1030400087B005461646994600240021304601F017
:10305000D1FF0DD22146621CD4B2062202FB0151DF
:10306000C8B20C232D220899FFF79AFF86F000467C
:103070004FF07E51304602F0BDF813D2304601F0D9
:10308000E5FDCDE9000100F0D3FF00224B4BCDE977
:10309000020101F0E1F8CDE9040101F02DFB00F09F
:1030A000FF0A01E04FF0010AD04652E0A8F101000A
:1030B000C1B20A2001F092F8039001F087FF0146A7
:1030C0000490304601F05CFE059001F01BFFC7B292
:1030D000A8F10100C0B2B0F100081AD107F1300127
:1030E000CAB22146631CDCB2062303FB0151C8B2FD
:1030F0000C230899FFF754FF2146621CD4B2062224
:1031000002FB0151C8B20C232E220899FFF748FF99
:1031100020E04C4502DB0BB0BDE8F08F07F1300139
:10312000CAB22146631CDCB2062303FB0151C8B2BC
:103130000C230899FFF734FF41460A2001F04EF8AE
:103140007843049001F042FF3146059002F083F885
:103150000646ABE700BF304601F0D4FE049001F014
:10316000EDFE3146059002F076F8834621E01449E1
:10317000584601F073FF8346049001F0C3FE3030DF
:10318000C0B22146621CD4B2062202FB0151059056
:10319000C8B20C23059A0899FFF702FF584601F0C0
:1031A000B1FE049001F0CAFE5946059002F053F8B2
:1031B00083464C45DBDB00BFADE700000000F03F7D
:1031C000000020412DE9F0470646894617469A46F9
:1031D0004FF0000800240025BAF1010F03D0BAF126
:1031E000020F5ED125E020E0785D203800F0FF0876
:1031F0007E2E04DD002609F1010000F0FF0949469A
:103200003046FFF7B9FE002409E008EB4801264AE2
:1032100002EB4101085D00F0C5FC601CC4B2062C45
:10322000F3DBB01DC6B2681CC5B2785D0028DBD1E7
:1032300037E032E0785D203800F0FF08782E04DDBA
:10324000002609F1010000F0FF0949463046FFF76A
:1032500093FE002407E004EB0811144A505C00F0D0
:10326000A1FC601CC4B2082CF5DB09F10100C1B25D
:103270003046FFF781FE002408E004EB0811083116
:103280000A4A505C00F08EFC601CC4B2082CF4DBCF
:1032900006F10800C6B2681CC5B2785D0028C9D125
:1032A00000BF00BFBDE8F0877054000898560008C2
:1032B0002DE9F04106460D46174601232A463146C0
:1032C0000020FFF77FFF002400E0641C285D002839
:1032D000FBD104EB44014906080E01233A22314692
:1032E000FFF75EFE611C01EB41014906080E062353
:1032F0003A463146FFF7A2FEBDE8F0812DE9F84FCE
:1033000004460E4691463146606901F0AFFF8346A0
:1033100001F09CFC21F000410746204A204B01F0BF
:1033200069FB03D2204600F046F8666149466069B1
:1033300001F09CFF05462946206901F0B3FC20619D
:103340002846E16801F092FF8346A16801F086FEFD
:1033500007462169606801F081FE8346294620689E
:1033600001F07CFE5946009001F09CFC80463946F5
:1033700001F098FC8246E5605046E16901F03AFEB2
:1033800001D2D4F81CA05046A16901F033FF01D24C
:10339000D4F818A05046BDE8F88F000048AFBC9A9A
:1033A000F2D77A3E70B504460D462A46204661693A
:1033B000FFF7A4FF70BD0021C160016170470000EC
:1033C0000021C1600161024981610249C161704708
:1033D00000401C4600401CC67047000008B5084964
:1033E0000968C9084FF47A72B1FBF2F141430091C8
:1033F00000BF00BF00994A1E00920029F9D108BD04
:103400000C0000207047000070B505460C46002DEA
:103410000DDD0122D1031D48FDF702FC0022082129
:103420001B48FDF7FDFB1B48006845630EE00022CA
:103430004FF400411548FDF7F3FB01220821144821
:10344000FDF7EEFB6842134909684863002C0DDD67
:10345000012210210E48FDF7E3FB002220210C4839
:10346000FDF7DEFB0B48006884630DE000221021AD
:103470000748FDF7D5FB012220210548FDF7D0FBC9
:10348000604204490968886370BD0000000801407B
:10349000000C0140C40200202DE9F04105460C4615
:1034A0001948B0F9000001F049FD0746284601F02F
:1034B00045FD80463A4641461448FFF71FFF064641
:1034C00001F020FD00B2124908801248B0F9000056
:1034D00001F034FD0746204601F030FD80463A46B3
:1034E00041460D48FFF70AFF064601F00BFD00B20A
:1034F0000A4908800846B0F900100548B0F90000F4
:10350000FFF782FFBDE8F081140000208001002059
:10351000C001002016000020A0010020C2010020F0
:1035200010B5FDF75FFD10BD00B58FB0282105A8CF
:10353000FCF76AFE14216846FCF766FE0120059040
:1035400000040690002007900120099002200C90B2
:10355000C1030D914FF4E0110E9105A8FDF738FF5E
:1035600008B1FCF7E1FF0F2000900220019000203D
:1035700002904FF48060039000200490022168467E
:10358000FDF702FE08B1FCF7CFFF0FB000BD70479A
:1035900010B50248FEF701FC10BD00003402002007
:1035A00010B50248FEF7F9FB10BD00007C020020B8
:1035B00010B50248FEF7F1FB10BD0000C402002068
:1035C00010B50268184B984208D0B0F1804F05D072
:1035D000164B984202D0164B984203D122F070024B
:1035E0004B681A43104B984208D0B0F1804F05D079
:1035F0000E4B984202D00E4B984203D122F44072F7
:10360000CB681A4322F080034C6943EA040202604B
:103610008B68C3620B688362034B984201D10B69CC
:1036200003630123436110BD002C014000040040EE
:103630000008004030B501F01F05012404FA05F32D
:10364000046A9C430462046A01F01F0502FA05F54E
:103650002C43046230BD30B50C46816821F47F41B3
:1036600042EA032525432943816030BD0A4681682B
:1036700021F0700142F00703194381607047000098
:1036800030B5026A056A25F0010505624368846960
:1036900024F0700424F003040D682C4322F002028D
:1036A0008D682A430D4DA84206D100BF22F00802C2
:1036B000CD682A4322F00402084DA84207D123F422
:1036C000807323F400734D692B438D692B43436052
:1036D00084614D684563026230BD0000002C0140EA
:1036E00030B5026A056A25F01005056243688469F1
:1036F00024F4E04424F440740D6844EA052422F0E4
:1037000020028D6842EA05120E4DA84207D100BF83
:1037100022F08002CD6842EA051222F04002094DF3
:10372000A84209D123F4806323F400634D6943EA7E
:1037300085038D6943EA8503436084614D68856331
:10374000026230BD002C014030B5026A056A25F4E2
:10375000807505624368C46924F0700424F0030492
:103760000D682C4322F400728D6842EA05220F4D49
:10377000A84207D100BF22F40062CD6842EA0522C8
:1037800022F48062094DA84209D123F4805323F426
:1037900000534D6943EA05138D6943EA05134360FD
:1037A000C4614D68C563026230BD0000002C014059
:1037B00030B5036A056A25F4805505624468C2691C
:1037C00022F4E04222F440720D6842EA052223F41A
:1037D00000538D6843EA0533064DA84204D124F412
:1037E00080444D6944EA85144460C2614D680564B3
:1037F000036230BD002C014030B50B461446026A0E
:10380000056A25F001050562816921F0F00141EAB0
:10381000041122F00A021A438161026230BD30B500
:103820000B461446026A056A25F010050562816997
:1038300021F4704141EA043122F0A00242EA03126D
:103840008161026230BD0000002005490870054911
:10385000487002200449087001200449087070472C
:103860007B01002074010020790100207A010020F2
:1038700070B505466C6A0020E085E0842046FEF7BE
:10388000B1FC70BD00BF00BF02680C3252E8002FCF
:1038900022F4907102680C3242E80013002BF3D13D
:1038A00000BF00BF00BF0268143252E8002F22F0B0
:1038B00001010268143242E80013002BF3D100BF6B
:1038C000016B01290ED100BF00BF02680C3252E823
:1038D000002F22F0100102680C3242E80013002B86
:1038E000F3D100BF202180F842100021016370470E
:1038F00010B504462068C06820F040002168C86008
:10390000202084F841002046FEF7A0FE002010BDD4
:10391000F8B5044694F84200222875D1A068B0F5A5
:10392000805F0CD1206950B90025A66A20684068E4
:10393000C0F308003080A06A801CA06215E0A56A70
:103940000026A068B0F5805F03D0A06828B9206980
:1039500018B920684068287004E02068406800F0CA
:103960007F002870A06A401CA062E08D401E80B2DB
:10397000E085002846D12068C06820F0200021683A
:10398000C8602068C06820F480702168C860206822
:10399000406920F0010021684861202084F842003D
:1039A00000206063206B012826D10020206300BF27
:1039B00000BF21680C3151E8001F21F01000216880
:1039C0000C3141E80002002AF3D100BF20680068F2
:1039D00000F0100010280AD100BF002000902068DD
:1039E0000068009020684068009000BF00BFA18D73
:1039F0002046FEF7F6FB02E02046FEF7EFFD002032
:103A0000F8BD01E00020FBE70220F9E770B50446AD
:103A10002168096921F44051E2681143226811616B
:103A20002269A1681143626941EA02052168C968F7
:103A300041F20C62914329432268D16021684969AF
:103A400021F44071A2691143226851612D4A216815
:103A5000914202D1FDF774FC01E0FDF761FC00EB3F
:103A6000C00101EB001162689200B1FBF2F100EBC2
:103A7000C00202EB001263689B00B2FBF3F2642306
:103A8000B2FBF3F202EBC20303EB0212A1EB8201E1
:103A9000322202EB01116422B1FBF2F101F0F001DC
:103AA00000EBC00202EB001263689B00B2FBF3F272
:103AB0006423B2FBF3F201EB021200EBC00101EB55
:103AC000001163689B00B1FBF3F100EBC00303EB53
:103AD00000136668B600B3FBF6F36426B3FBF6F397
:103AE00003EBC30606EB0313A1EB8301322303EBC5
:103AF00001116423B1FBF3F101F00F0111442268BD
:103B0000916070BD00380140014691F841002128C4
:103B100028D18868B0F5805F0BD1086948B90A6A76
:103B20001088C0F308000B685860086A801C08629F
:103B300005E00B6A581C086218780B685860C88C3E
:103B4000401E80B2C88458B90868C06820F0800060
:103B50000B68D8600868C06840F040000B68D86007
:103B6000002070470220FCE710B50248FEF73CFB3E
:103B700010BD00000C03002000BFFEE701B584B0BB
:103B80006420012104AA0B46CDE900210290002205
:103B9000782103480068FDF737F905B000BD000043
:103BA0003401002001B584B06420012104AA0B4631
:103BB000CDE9002102904022782103480068FDF7FA
:103BC00023F905B000BD0000340100200248006860
:103BD000C0F30220704700000CED00E010B5002893
:103BE00004DB0A07130E054A135406E00A07140EF5
:103BF000034A00F00F031B1FD45410BD00E400E083
:103C000018ED00E02DE9F0414F1E00EBC70104461E
:103C1000D1E9000115461E4637F006020DD02A46AE
:103C2000334600F0E9FD7F1E04EBC703D3E9002310
:103C300000F012FB37F00602F1D1022F25D0042F3D
:103C400013D0062F18BFBDE8F0812A46334600F096
:103C5000D3FDD4E90A2300F0FFFA2A46334600F0E8
:103C6000CBFDD4E9082300F0F7FA2A46334600F0EA
:103C7000C3FDD4E9062300F0EFFA2A46334600F0EC
:103C8000BBFDD4E9042300F0E7FA2A46334600F0EE
:103C9000B3FDD4E9022300F0DFFA2A46334600F0F0
:103CA000ABFDD4E90023BDE8F04100F0D5BA000037
:103CB000002213461046014900F08ABB0000F03F85
:103CC000012201F07ABB002213461046114600F093
:103CD0007FBB00002DE9F04DC84A002490B091420E
:103CE00005DA21F00043934201D805D120B110B08C
:103CF000BDE8F04DFFF7E4BFB1F5801F1BDA53EAD2
:103D0000000209D0002911DA0120FCF7ACFA10B04A
:103D1000BDE8F04DFFF7D7BF0220FCF7A4FAFFF78C
:103D2000C7FF10B081F00041BDE8F08D6FF03504A1
:103D3000362201F042FB04EB2152C1F31308B049D3
:103D4000A2F2FF33414401F4801282F07F6103EB61
:103D5000225281F04051009241EA08010022A94B11
:103D600000F08AFE044608F10200A74EC0F31300DB
:103D70000D467E44032867D2D6E90023204600F092
:103D80007FFC1ED10098002802BFD6E9000110B0C8
:103D9000BDE8F08D00F0DDFC07460C469B4A9C4BCD
:103DA00000F02AFD06460D469A4A9B4B38462146AE
:103DB00000F022FD10B032462B46BDE8F04D00F079
:103DC0004BBA4FF05532954B2046294600F014FD72
:103DD0000022934B00F044FE06460F4622462B4637
:103DE0001046194600F008FD32463B4600F004FD3F
:103DF000064600980F46F0B100F0ABFC80468A46BC
:103E0000824A834B00F0F8FC32463B4600F028FE25
:103E100022462B4600F030FE05460C467D4A7E4B7E
:103E20004046514600F0E8FC10B02A462346BDE863
:103E3000F04D00F021BE0B4610B032462046294618
:103E4000BDE8F04D00F018BE00224FF08043204640
:103E500000F002FA02460B462046294600F0B8FA66
:103E600006460F46009800F074FCCDE90401324686
:103E70003B461046394600F0BFFC0C9069480C9A4E
:103E80004044019009910B46104600F0B5FC824673
:103E9000024665488B46C8F151080B4608F5D728FD
:103EA00003217844FFF7AEFE52465B4600F0A4FCC7
:103EB0000A905E480D9152465B4604217844FFF714
:103EC000A1FE099B0C9A00F097FC844601980D9B7B
:103ED00040EA080860460A9A00F0BEF98346089155
:103EE000B8F1000F4EDD4FF0FF322046294601F0B9
:103EF00064FA22462B4600F07FFC804600988A46F2
:103F000060B3DDE90401414A414B00F075FC0991C1
:103F100000905A4640465146089B00F09DF93246B3
:103F20003B4600F069FC099B009A00F095F9424677
:103F3000534600F095FD22462B4600F09DFD0446B9
:103F40000D46DDE90401334A334B00F055FC10B057
:103F500022462B46BDE8F04D00F08EBD5A46404645
:103F6000089B00F079F932463B4600F045FC42469A
:103F7000534600F075FD10B022462B46BDE8F04DCB
:103F800000F06EBD009840B3DDE904011F4A204BEC
:103F900000F032FC80468A465A4620462946089B55
:103FA00000F06AFD32463B4600F026FC424653468E
:103FB00000F062FD22462B4600F05EFD04460D46F1
:103FC000DDE90401134A144B00F016FC10B0224640
:103FD0002B46BDE8F04D00F04FBD0B465A4620463B
:103FE000294600F049FD32463B4600F005FC10B082
:103FF00022462B46BDE8F04D00F032BD0000F07FB8
:10400000645F09000000F03F4A1F0000763C7935EC
:10401000EF39EA3D0000E0FE422EE63F5555D53F20
:104020000000E03F86EBF9FFE21D0000E01D00000C
:104030002DE9F041044630480025814205DA21F09F
:104040000042824201D805D124B12046BDE8F041AA
:10405000FFF736BEB1F5801F1BDA52EA040008D024
:1040600000290FDA0120FCF7FEF8BDE8F041FFF768
:104070002ABE0220FCF7F7F8FFF71AFE81F0004194
:10408000BDE8F0816FF035053622204601F095F944
:10409000044605EB2150A0F2FF32D00F40F2FF336F
:1040A0001B1A0D4663F31F55104400F052FB0646E1
:1040B0000F4629462046FFF70DFE104A104B00F030
:1040C0009BFB04460D460F4A0F4B3046394600F025
:1040D00093FB22462B4600F0BFF805460C460B4AE0
:1040E0000B4B3046394600F087FB2A462346BDE895
:1040F000F04100F0B1B800000000F07F0EE5261599
:104100007BCBDB3F362BF111F3FE593D00609F5016
:104110001344D33FFCF772FFFFF706FAFEF7DAFC11
:10412000FEF75EFEFEF788FDFEF7C2FDFEF7FEFD20
:10413000FEF764FD4FF47A70FCF7C6FBFCF736F926
:104140001748FDF72BFC29E01648007800F03EFFE9
:104150000446224614A10020FFF7AAF8154903C916
:1041600000F004FF0446224613A10120FFF7A0F847
:104170001248B0F9000000F0E1FE0446224610A10A
:104180000220FFF795F81148B0F9000000F0D6FEC4
:10419000044622460EA10320FFF78AF8D4E7000068
:1041A000C4020020D9010020506174685F6E6F77EF
:1041B0000000000048010020667073001400002019
:1041C000656E636F6465724C00000000160000208D
:1041D000656E636F646572520000000010B50246A0
:1041E000012000E050430B1EA1F10104E1B2F9D11E
:1041F00010BD000021F00042A2F16052B2F5801F14
:1042000001F0004328BFD2F17F6C0BD95FEA001C9C
:1042100043EAC20242EB507018BF704728BF20F03B
:1042200001007047B2F5801FBCBF184670474FEAC7
:10423000410C1CF5001F02D2084600F0D6BF70B535
:1042400000F084FB00000089FFF7F6BF4FF000404C
:10425000A0F580007047000010B591EA030F48BF39
:1042600083F0004300F11084841A71EB030C05D233
:10427000121943EB0C03001B61EB0C01DFF824E186
:104280004FEA1154A4EB135C1EEA430F18BF9EEAD9
:10429000445F73D023EA0E03DCF1200E21EA0451BF
:1042A00043F4801332D322FA0CFE10EB0E0023FAF3
:1042B0000CFE41EB0E01CCF1200E03FA0EFE10EBCA
:1042C0000E0051F10001B1F5801FCCF1200E32D269
:1042D00001EB045112FA0EF2BDE8104058BF7047CE
:1042E000401C38BF5FEA420218BF7047002814BF65
:1042F00020F0010041F100014FEA410313F5001FD6
:1043000038BF7047A1F1C04100F06EBB012A43EBFA
:104310000302ACF1200CDCF11F0E32BF4FF0000E97
:1043200023FA0CF310EB030041EB0451B4EB115FE3
:10433000D0D0A1EB045101F5801149085FEA3000AB
:1043400001EB04510ED350F1000038BF12FA0EFEFB
:1043500008D1BDE81040C9E7401C38BF5FEA4202FF
:10436000CAD1C3E7BDE810404FEA410313F5001F6F
:1043700038BF7047A1F1C04100F036BB9EEA445FF0
:1043800008D011EA5E0FBDE8104004BF01F0004103
:1043900000207047BDE8104070B500F0D7FA00BFAC
:1043A00064FBBE3E0000E0FF02494FF0000000F059
:1043B000D2BF00BF0000F87F491058BFC1F1404193
:1043C0005B1058BFC3F140438B42EFF3008070474E
:1043D0002DE9C04130B4DFF8A0C23CEA111418BF87
:1043E0003CEA131400F0EC8081EA03051CEA111486
:1043F00044EAD57418BF1CEA131500F0C780A4EB7B
:1044000005044FF0004545EAC12145EAC32341EACE
:10441000505143EA525304F17F74994204F5003439
:104420004FEAC0204FEAC22208BF904200F09C80B1
:104430004FEA13650FF24016765D4FEA134506FB0F
:1044400005F7C7F1807706FB07F74FEAD737A7FBD9
:1044500003687642C8F58038A7FB06CE38BFA8F1BE
:10446000010807FB08E64FF0000EA6FB028CE6FBF6
:1044700003CEDCF1000CCEF1004E38BFAEF1010EE0
:10448000A6FB0C584FF000074FF00005E6FB0E8727
:10449000A1FB08C6A0FB07CE16EB0E0645F10005F2
:1044A000E1FB076515F1E04E7EBFA4F580345FEABD
:1044B00046066D4116F1800745F100054FEA1727C2
:1044C0004FEA066647EA0567A6F1DE46B6F1805F69
:1044D0004FEA15251FD9384624F0010C05EBC471AD
:1044E000BCF1FE6F01EB0C1102D8F0BCBDE80081FD
:1044F00024425CBF01F5801E9EEAC47F02D4F0BC5A
:10450000BDE80081244238D4F0BCA1F1C041BDE82F
:10451000004100F069BA4FEAD22242EA43524FEA20
:10452000D323A7FB02864FEAD02040EA415007FB85
:1045300003661EEA0E0F4FEAD12105FB026658BF43
:10454000A6EB0056B6EB00564FEA520E4EEAC37E7B
:1045500018EB0E0E56EB530EBDD518EB02085E415C
:104560007F1C55F10005B6E74FF480154FF00007AA
:104570004FF000064FF00008ADE7F0BC4FF0000030
:1045800001F1C04101F00041BDE8008111EA0C1FBA
:104590000CEA131500D00CE013EA0C1F00F0258084
:1045A0004FF00000F0BC81EA030101F00041BDE8DA
:1045B0000081F0BCBDE8004181EA030100F014BABB
:1045C000F0BCBDE8004170B500F0C0F9097EFC3ECA
:1045D00000F007B881EA03014FF0000001F000414C
:1045E000704781EA030100F0FFB9F0BCBDE800416B
:1045F0004FF0000021497047FFFDFBF9F7F5F4F299
:10460000F0EEEDEBE9E8E6E4E3E1E0DEDDDBDAD86D
:10461000D7D5D4D3D1D0CFCDCCCBCAC8C7C6C5C4CB
:10462000C2C1C0BFBEBDBCBBBAB9B8B7B6B5B4B3E2
:10463000B2B1B0AFAEADACABAAA9A8A8A7A6A5A4CD
:10464000A3A3A2A1A09F9F9E9D9C9C9B9A99999891
:104650009797969595949393929191908F8F8E8E34
:104660008D8C8C8B8B8A89898888878786858584C1
:1046700084838382828181800000FF070000F87FAD
:1046800051EA030C17D41CF5801F58BFBCF5801FDE
:1046900000F10680994218BF704708BF90427047EA
:1046A00007D711F5801F58BF13F5801F19D4994201
:1046B0007047894270471CF5801F08D5BCF5801FE4
:1046C000F7D58B4218BF704708BF824270474FF43E
:1046D000001C1CEB410F38BF1CEB430F01D28B4277
:1046E000704770B500F032F9922449004FF0005144
:1046F0004FF08053FFF760BE4FEA1153A3F580637C
:10470000D3F11E03A8BFD3F1200C08DB4FF0004209
:1047100042EAC12252EA505232FA03F0704709428B
:104720000BD4102BC4BF0020704703F5787CBCF17C
:10473000FF3F05D04FF0FF3070474FF0000070474B
:1047400070B500F003F900BF499224800020704743
:10475000F0E710F0004248BF4042B0FA80F310FA90
:1047600003F10AD0C3F11D0303F580634FEA415002
:1047700002EB035202EBD12170474FF0000070476B
:1047800051EA030C17D41CF5801F58BFBCF5801FDD
:1047900000F10680994218BF704708BF90427047E9
:1047A00007D711F5801F58BF13F5801F19D4994200
:1047B0007047894270471CF5801F08D5BCF5801FE3
:1047C000F7D58B4218BF704708BF824270474FF43D
:1047D000001C1CEB410F38BF1CEB430F01D28B4276
:1047E000704770B500F0B2F8922449004FF00051C4
:1047F0004FF08053FFF7E0BDDFF848C170B51CEA09
:10480000111E1EBF1CEA13159EEA0C0F95EA0C0F31
:1048100000F06F8081EA030423EA4C134EEAD47E51
:1048200021EA4C1141F4801143F48013AE44A1FB02
:10483000024CA0FB0365AEF17F7E361955EB0C05EB
:10484000A1FB034C4CF10003A0FB021C16EB0C0671
:10485000654153F10003094218BF46F0010613F405
:10486000007F0BD14FEA03314FEA0530340341EAB0
:10487000155140EA16506FF003020AE04FEAC321D7
:104880004FEAC520F40241EA555140EA56506FF014
:10489000020202EB2E4201EB025585EACE710AD0EC
:1048A0005FEA440C18BF24F0004450F1000041F1CD
:1048B000000120EAD47040F2FE7C624500D270BD57
:1048C000A84214BF4FF080444FF04044002E08BF70
:1048D0000024BEF1806FA8BFA1F1C041BDE87040C7
:1048E00080F282804FF0000001F1C04101F00041F0
:1048F00070479EEA0C0F0CEA131518BF95EA0C0FCF
:1049000006D04FF0000081EA030E0EF0004170BDAA
:1049100000F01CF88900013E00F007B800F009B86B
:104920004FEA430C5FEA5C5C08D081EA030100F0C7
:104930005BB84FEA410C5FEA5C5CF6D14FF00000D7
:10494000014970470000FF070000F87F0EF1020EDA
:104950002EF0030E5EF8046B364205D4012A43EBB9
:10496000030515F5001F12D8012841EB010C1CF5B9
:10497000001F0CD80ED14FEAD17C15F5001F0CEBAF
:104980004C0C0CF1020C08BF4CEBD37C04E04FF054
:10499000080C01E04FEAD37C0CEB4C0526FA05F637
:1049A00006F00706B6F1040C06D20EEB860CBDE845
:1049B00070404CF0010C6047DFE80CF0090B02027C
:1049C0004FF000414FF00000A1F5002170BD1946E5
:1049D0001046012851EB010418BFD4F5001484BF20
:1049E000002001F0004170BD0808A0F500114FEA59
:1049F0003101704753EA010C17D41CF5801F58BFD2
:104A0000BCF5801F00F106808B4218BF704708BFBD
:104A10008242704707D713F5801F58BF11F5801FDA
:104A200019D48B4270479B4270471CF5801F08D5F4
:104A3000BCF5801FF7D5994218BF704708BF904258
:104A400070474FF4001C1CEB430F38BF1CEB410FA9
:104A500001D2994270470FB40CBC03BCFFF7C1BE32
:104A600091EA030F10B581F000413FF5FDAB83F0F3
:104A7000004300F009B8000010B591EA030F48BFE9
:104A800083F000433FF5F0AB841A71EB030C07D2BF
:104A900012198CF0004C43EB0C03001B61EB0C0172
:104AA000DFF8A4E14FEA1154A4EB135C1EEA430FB4
:104AB00018BF9EEA445F00F0B08023EA6E035242C2
:104AC00021EA0451C3EB6E0338BF5B1EDCF1200EFC
:104AD00025D322FA0CFE10EB0E0043FA0CFE41EB3C
:104AE0000E01CCF1200E03FA0EFE10EB0E0051F178
:104AF0000001CCF1200E29D412FA0EF201EB045180
:104B0000BDE8104058BF7047401C1CBFB2F1004FB9
:104B1000704700280CBF491C20F00100704712EBC1
:104B2000020E43EB030218BF4FF0010E4EEA4202A1
:104B3000ACF1200CDCF11E0E54D943FA0CFE10EB44
:104B40000E0051F1FF31CCF11E0ED5D50EF1010E44
:104B500012FA0EFE404141EB010101EB445C5FEAB9
:104B60005C5C10D910EBDE7001EB045138BFBEF174
:104B7000004FBDE8104018BF704700280CBF491C0B
:104B800020F00100704730D24FEAD42C11F500110B
:104B900024F400641BD0B1FA81F20B3AA41AA41ECB
:104BA000D2F12003914030FA03F31943904001EB16
:104BB000CC71002C01EB0451BDE81040A8BF704738
:104BC00001F1C0414FF0000001F000417047B0FA20
:104BD00080F310FA03F100D110BDE41A173C480528
:104BE000C90AE4E701EB045110BD491001EB04517F
:104BF000BDE810404FEA300002E04FF0000170477E
:104C00004A0008BF0042F8D0B2F5001F28BF704725
:104C100001F000414FF0000070479EEA445F07D06A
:104C200011EA5E0FBDE8104004BF0021002070476C
:104C3000BDE8104070B5FFF789FE00BF40DFF63ECB
:104C400083F00041104670470000E0FF43004FEA48
:104C5000D30C4FEA3C0C43401FBF40070CF160519E
:104C600013F0FE4F70471CF0006F03D100200CF0D2
:104C7000004170470CF0004343EA507010B540EA21
:104C8000CC0000F06CFA00BF000000924FEA000177
:104C9000FFF7AABE4FF000414FF00000A1F5002140
:104CA0007047000090EA010F48BF81F0004100F119
:104CB000E482421A3CBF801A89184FEAD0524FF062
:104CC0007F4C1CEA410FA2EBD15318BF9CEA026F44
:104CD00000F03B804FF0004C4CEA00204CEA0121F0
:104CE00021FA03FC10EB0C0C1ED202F1FF325FEA3A
:104CF0001C2040EBC25038BF70471CF07F0F4FEABA
:104D0000400C18BFBCF17F4F38BF7047C3F1200380
:104D1000994008BF20F00100BCF17F4F38BF7047B9
:104D2000A0F1C04000F061BA4FEA3C00000A40EB3D
:104D3000C25028BF1CF0FF0F4FEA400CE6D018BF4E
:104D4000BCF17F4F38BF7047EAE79CEA026F05D09D
:104D500010EA5C0F08BF00F00040704710B500F08B
:104D6000FEF900BF64FBBE3E401058BFC0F140409A
:104D7000491058BFC1F140418142EFF300807047B4
:104D80004FF47F0C1CEAD0121EBF1CEAD11392EA2A
:104D90000C0F93EA0C0F00F0858090EA010F48BFDA
:104DA00042F4807240F4000C41F400002CF07F418A
:104DB00020F07F4000B58142A2EB03020FF2081CF5
:104DC000ACEB504EC0F100009EF800E04FEA4E0EF2
:104DD00000FB0EFC38BF49004FEA2C1C02F5FA021A
:104DE0000CFB0EF34FEACE1E4FEA112C4FEAC12105
:104DF0000EEB635E42EB22420EFB0CFC4FEA1C53AF
:104E000000FB03114FEA112C4FEA01310EFB0CFCA1
:104E10004FEADC4C00FB0C11C14228BF09184CEBD7
:104E200003335DF804EB10EB410143EBC250B2F5E4
:104E30007C0F38BF704729D512F0F00F1CBF00F16E
:104E4000C04000F0004070470081828384858687DF
:104E500088898B8C8D8E8F919293959697999A9C39
:104E60009D9FA0A2A3A5A7A8AAACAEB0B2B3B5B7A8
:104E7000B9BCBEC0C2C5C7C9CCCED1D4D7D9DCDF7E
:104E8000E2E6E9ECF0F3F7FAFE0000004FEA400C2E
:104E90000CF1807CBCF17E4F28BF7047B0F1C04060
:104EA00000F0A3B990EA010F0CEAD11348BF42F415
:104EB0008072624538BF634507D213F47F0F16D066
:104EC00080EA010000F00040704710B500F047F99B
:104ED000097EFC3E00F005B880EA010000F00040C9
:104EE000704780EA010000F0004000F07EB912F443
:104EF0007F0F04BF0248704780EA010000F075B9D7
:104F00000000C07F41000B0ED3F19E0208D950F47F
:104F100000034FEA032323FA02F048BF40427047E0
:104F200010B500F01CF900BF4992248000207047A2
:104F30006FF0004282EA20007047000010F000414C
:104F400048BF4042B0FA80F310FA03F2C3F19D0368
:104F50000BD051EAC35101EB1220530638BF704702
:104F600000F1010008BF20F0010070474FF07E52B1
:104F700009E011F0004204D54042C1F1000138BF00
:104F8000491E42F07E520B0002F1706212BF2023D4
:104F90005FEA00017047B1FA81FCA3EB0C0301FA50
:104FA0000CF120FA03FC02EBC352C3F1200341EAE7
:104FB0000C0110FA03FC5CEA416C42EB112018BFB3
:104FC0005FF0806C28BF20F001007047B0FA80F3DA
:104FD00010FA03F2C3F19D030AD0D90501EB1220A8
:104FE000530638BF704700F1010008BF20F00100F0
:104FF0007047000050EA010C00F113801CF5000F0F
:1050000058BFBCF5000F01D48842704707D710F590
:10501000000F58BF11F5000F15D488427047894220
:1050200070471CF5000F04D5BCF5000FF7D5814281
:1050300070474FF0807C1CEB400F38BF1CEB410FDA
:1050400001D28142704710B500F089F892244900DE
:105050004FF000504FF08051FFF786BE4FF47F0CA9
:105060001CEAD0121EBF1CEAD11392EA0C0F93EA7D
:105070000C0F00F0478090EA010F48BF42F48072A5
:105080004FF0004C4CEA00204CEA012102EB0302F5
:10509000A0FB0113A2F50002002918BF43F0010391
:1050A0005B0028BF4FEA330342EB22425FEA132C36
:1050B0004CEBC2502EBFBCEB436FB2F57C0F704778
:1050C0004FEA036CBCF1004F08BF20F00100B2F5BD
:1050D0007C0F38BF70470BD582F0FF0212F5803F7E
:1050E000C8BF704700F1C040D8BF00F00040704713
:1050F00000F5000C5FEA4C0C48BF7047B0F1C040AF
:1051000000F073B890EA010F0CEAD11348BF42F4E3
:105110008072624538BF634504D280EA010000F026
:105120000040704710B500F01AF800BF8900013E3A
:1051300000F007B800F009B85FEA410C5FEA1C6CA8
:1051400008D080EA010000F050B85FEA400C5FEA46
:105150001C6CF6D14FF00040A0F5800070470EF1B6
:10516000020E2EF0030E5EF8044B244204D44FEAE4
:105170004102B2F17F4F11D84FEA4003B3F17F4FA4
:105180000CD80ED14FEAD07CB2F17F4F0CEB4C0C17
:105190000CF1020C08BF4CEBD17C04E04FF0080C82
:1051A00001E04FEAD17C0CEB4C0324FA03F404F049
:1051B0000704B4F1040C06D20EEB840CBDE81040D9
:1051C0004CF0010C6047DFE80CF0070802024FF0DA
:1051D0000040A0F5800010BD0846420018BFD2F183
:1051E000807288BF00F0004010BDFF2141EAD0501E
:1051F000C005704751EA000C00F113801CF5000F48
:1052000058BFBCF5000F01D48142704707D711F594
:10521000000F58BF10F5000F15D481427047894226
:1052200070471CF5000F04D5BCF5000FF7D5884278
:1052300070474FF0807C1CEB410F38BF1CEB400FD8
:1052400001D28842704780EA010081EA000180EAC9
:105250000100FFF7F8BE80F0004090EA010F7FF5F3
:1052600028AD81F0004100F008B8000090EA010F7D
:1052700048BF81F000413FF51CAD421A04D882F0CE
:105280000042A0EB020011444FEAD0524FF07F4C95
:105290001CEA410FA2EBD15318BF9CEA026F4AD01F
:1052A0004FF0004C4CEA00204CEA012121FA03FCAB
:1052B000B0EB0C0C0FD412F0FE0F36D05FEA4C00AE
:1052C0001DD5001240EBC25038BF70471CF03F0F95
:1052D00018BF70470BE0A2F101025FEA1C2040EB0F
:1052E000C25038BF70471CF07F0F18BF7047C3F122
:1052F0002003994014BF401E20F001007047800831
:105300004FEA122308BF7047B0FA80FCA2EB0C02F0
:10531000CCF1280C60FA0CF093EA122F04BF00EBDA
:10532000C25070474FEAC3707047130A5FEADC103F
:1053300008BF7047F6E79CEA026F04D010EA5C0FE2
:1053400008BF0020704710B5FFF709FF40DFF63EA9
:1053500081F0004070470CF00F03092B08BF0820B4
:1053600000F059800A2B0BD0082B18BF704708BFDC
:105370001CF0400F0AD04FF000004FF000017047C2
:105380001CF0400F18BF4FF0004070471CF0100F8A
:1053900008D020F0704300F07F4242EAD3014FEA88
:1053A0004370704700F0604021F07F4242EA000203
:1053B00001F07F4040EA727070474FF0FF0C4CF4F0
:1053C000E06C1CEA11531CBF9CEA030C9445C2BF5D
:1053D000DA4201EB02517047002B0DD0BCF1000FF7
:1053E0000FD0002A01F00041A4BF41F0E04141F09C
:1053F0007F614FF00000704701F000414FF0000066
:10540000704750EA01334FF09B0C18BF4CF0806C92
:105410007EF4CAAF70471CF4801F11D01CF4E02F3B
:1054200003D06FEACC31490070474FF04050EFF3A2
:10543000008222F0704242EA000282F30088704744
:105440004FF00000704702030405060708090A0B25
:105450000C0D0E0F101001020000000000000000F3
:10546000010203040607080900000000010203040A
:105470000000000000000000002F000000000700F6
:10548000070000147F147F1400242A7F2A12006270
:10549000640813230036495522500000050300001C
:1054A00000001C224100000041221C000014083EA4
:1054B00008140008083E0808000000A0600000086A
:1054C00008080808000060600000002010080402BE
:1054D000003E5149453E0000427F4000004261517C
:1054E0004946002141454B31001814127F10002716
:1054F00045454539003C4A494930000171090503D9
:1055000000364949493600064949291E0000363609
:10551000000000005636000000081422410000146C
:105520001414141400004122140800020151090649
:1055300000324959513E007C1211127C007F4949CA
:105540004936003E41414122007F4141221C007FFB
:1055500049494941007F09090901003E4149497A09
:10556000007F0808087F0000417F41000020404183
:105570003F01007F08142241007F40404040007FEF
:10558000020C027F007F0408107F003E4141413E33
:10559000007F09090906003E4151215E007F09197B
:1055A00029460046494949310001017F0101003F78
:1055B0004040403F001F2040201F003F4038403FF8
:1055C000006314081463000708700807006151495C
:1055D000454300007F41410000552A552A550000EF
:1055E00041417F000004020102040040404040406D
:1055F000000001020400002054545478007F484405
:10560000443800384444442000384444487F00383B
:105610005454541800087E0901020018A4A4A47C64
:10562000007F080404780000447D4000004080842E
:105630007D00007F102844000000417F4000007C76
:1056400004180478007C0804047800384444443882
:1056500000FC242424180018242418FC007C0804CE
:10566000040800485454542000043F444020003CA7
:105670004040207C001C2040201C003C4030403C2E
:10568000004428102844001CA0A0A07C00446454BE
:105690004C44141414141414000000000000000002
:1056A0000000000000000000000000F80000000002
:1056B000000000333000000000100C06100C060043
:1056C000000000000000000040C07840C0784000AA
:1056D000043F04043F040400007088FC083000000C
:1056E000001820FF211E0000F008F000E018000064
:1056F00000211C031E211E0000F00888700000001D
:105700001E2123241927211010160E00000000006E
:105710000000000000000000000000E0180402008B
:10572000000000071820400000020418E0000000FC
:105730000040201807000000404080F080404000FA
:105740000202010F01020200000000F00000000050
:105750000101011F01010100000000000000000024
:1057600080B0700000000000000000000000000099
:105770000001010101010101000000000000000022
:1057800000303000000000000000000080601804BD
:10579000006018060100000000E010080810E0009A
:1057A000000F102020100F00001010F80000000063
:1057B0000020203F202000000070080808887000AA
:1057C000003028242221300000300888884830002A
:1057D0000018202020110E000000C02010F800004A
:1057E00000070424243F240000F8088888080800E3
:1057F0000019212020110E0000E0108888180000F8
:10580000000F112020110E0000380808C8380800C9
:105810000000003F00000000007088080888700049
:10582000001C222121221C0000E010080810E000CA
:105830000000312222110F00000000C0C000000053
:105840000000003030000000000000800000000078
:105850000000806000000000000080402010080070
:105860000001020408102000404040404040400039
:105870000404040404040400000810204080000014
:105880000020100804020100007048080808F00019
:105890000000003036010000C030C828E810E000E9
:1058A0000718272423140B000000C038E000000074
:1058B000203C23020227382008F8888888700000DE
:1058C000203F202020110E00C030080808083800B2
:1058D000071820202010080008F808080810E00029
:1058E000203F202020100F0008F88888E8081000CA
:1058F000203F20202320180008F88888E80810009E
:10590000203F200003000000C030080808380000D5
:1059100007182020221E020008F808000008F808D6
:10592000203F210101213F20000808F8080800005D
:105930000020203F2020000000000808F808080090
:10594000C08080807F00000008F888C02818080008
:10595000203F20012638200008F808000000000041
:10596000203F20202020300008F8F800F8F8080038
:10597000203F003F003F200008F830C00008F80832
:10598000203F200007183F00E01008080810E00042
:105990000F10202020100F0008F808080808F00059
:1059A000203F210101010000E01008080810E0007C
:1059B0000F18242438504F0008F888888888700011
:1059C000203F2000030C30200070880808083800B1
:1059D0000038202121221C00180808F808081800A7
:1059E0000000203F2000000008F808000008F80828
:1059F000001F202020201F000878880000C83808D9
:105A0000000007380E010000F80800F80008F80050
:105A1000033C0700073C03000818688080681808EA
:105A200020302C03032C30200838C800C838080068
:105A30000000203F2000000010080808C8380800B7
:105A40002038262120201800000000FE020202005B
:105A50000000007F40404000000C30C0000000000B
:105A6000000000010638C00000020202FE00000033
:105A7000004040407F0000000000040202020400D9
:105A80000000000000000000000000000000000016
:105A900080808080808080800002020400000000FE
:105AA00000000000000000000000808080800000F6
:105AB0000019242222223F2008F8008080000000E4
:105AC000003F112020110E000000008080800000A7
:105AD000000E112020201100000000808088F800B6
