:020000040800F2
:10000000A007002005010008793F0008DD2E000848
:100010004537000877090008FD4E00080000000081
:100020000000000000000000000000006D45000816
:10003000950A0008000000004145000855470008E7
:100040001F0100081F0100081F0100081F01000810
:100050001F0100081F0100081F0100081F01000800
:100060001F0100081F0100081F0100081F010008F0
:100070001F0100081F0100081F0100081F010008E0
:100080001F0100081F0100081F0100081F010008D0
:100090001F0100081F0100081F0100081F010008C0
:1000A0001F0100081F0100081F0100081F010008B0
:1000B000C5470008D5470008E54700081F010008AC
:1000C0001F0100081F0100081F0100081F01000890
:1000D0001F010008ED4E00081F0100081F01000865
:1000E0001F0100081F0100081F010008DFF810D0E1
:1000F00000F004FC00480047C1540008AFF3008042
:10010000A00700200648804706480047FEE7FEE7B4
:10011000FEE7FEE7FEE7FEE7FEE7FEE7FEE7FEE7B7
:10012000C3470008ED000008202A04DB203A21FA2A
:1001300002F00021704721FA02F3D040C2F1200200
:100140009140084319467047D2B201E000F8012BF4
:10015000491EFBD270470022F6E710B513460A4647
:1001600004461946FFF7F0FF204610BDF0B480EAC0
:100170000102D40F4200B2EB410F02D20246084600
:1001800011464A0042D0C30DDDB2C1F3C752AD1AC9
:10019000202D35DAC1F3160141F4000204B15242B8
:1001A000C5F1200602FA06F12A411044B3EBD05FF4
:1001B00023D0C4B1012DA0EBC35009DCF0BC4FF03B
:1001C000004202EAC352DBB200F5000000F0F4BACC
:1001D000400000F1807000EBC350A0F1807040EA55
:1001E000D170490009E0490841EAC071A0EBC35051
:1001F00000F50000400800EBC350F0BC00F0D3BA9B
:100200006142012202EB4101001BF6E7F0BC70479E
:1002100081F00041AAE780F00040A7E780EA0102F0
:1002200010B502F00043400022D04A001FD0010E5A
:1002300001EB1261C0F35600C2F3560240F4000015
:1002400042F40002A0FB022000047F39140400D015
:10025000401C50EA124001D44000491EC2B20C06B4
:1002600004EBD010401C4008802A02D003E000209C
:1002700010BD20F00100002900DA0020184310BD55
:1002800030B480EA010202F0004530F0004221F073
:10029000004013D090B1C30DD40DC2F31601C0F3CA
:1002A0001600E41A41F4000140F400027D3491424A
:1002B00001D3641C00E04900002C02DA30BC0020AD
:1002C00070474FF400000023914201D3891A034381
:1002D00040084FEA4101F7D151B1914202D14FF0AC
:1002E000004105E002D24FF0010101E06FF0010191
:1002F00003EBC450284430BC00F055BA2DE9FE4F42
:10030000804681EA0300C00F0C46009021F00041B6
:1003100023F00045B8EB0200A94105D24046214632
:1003200090461C460B46024623F00040104347D03F
:10033000270DC7F30A00C3F30A510290401A019037
:1003400040286BDAC3F3130040F4801B00989246F8
:1003500020B10023D2EB030A63EB0B0B0198594643
:10036000C0F14002504600F0FDF906460D465046E9
:100370005946019A00F005FA10EB0800614100248B
:1003800087EA115284EAE7731A4340D0009A62B3B5
:10039000019A012A4FEA075215DC001B61EB0201AA
:1003A0004FF0004202EA0752CDE90042001C41F53D
:1003B000801132462B4600F03CFA03B0BDE8F08FC6
:1003C00040462146F9E7001B61EB0201001C41F5A4
:1003D000801300185B412018A2F5001747EB0301BA
:1003E00040EAD570B6196D4111E06D084FEA360646
:1003F00045EAC0754FEA0752001B61EB0201001C81
:1004000041F5801149084FEA300000195141324648
:100410002B4603B0BDE8F04F00F0FCB90098012274
:1004200040000023D0EB020263EBE073009821460A
:100430004FEAE074B8EB000061EB0401E9E783F0F8
:1004400000435BE781F0004158E72DE9FE4F81EA68
:10045000030404F0004421F0004100944FF0000B2D
:1004600023F0004350EA01045ED052EA03045BD05B
:10047000C3F30A54C1F30A552C44A4F2F334019493
:10048000A0FB0254C1F3130141F48011C3F3130321
:1004900043F4801301FB024400FB034E840A970AD5
:1004A00044EA815447EA8357A4FB076802958D0A02
:1004B00005FB07854FEA932C04FB0C542705029D8E
:1004C0004FEA065847EA1637B5EB08056EEB070CFE
:1004D000870E920E47EA811742EA8312A7FB0201B8
:1004E000B6EB0B0164EB00042B0D43EA0C335E18F2
:1004F00044EB1C50DA465146E7FB0201C5F31304F6
:100500004FEA0B3343EA14534FEA0432019C43EAA7
:100510000603A4F10C040294009CCDE900B400F0A1
:1005200088F903B0BDE8F08F00200146F9E72DE916
:10053000F04D81EA030404F0004B21F0004514461D
:100540004FF0000A23F0004150EA050220D054EA9F
:1005500001021DD0C5F30A570246C5F31303C1F3C8
:100560001300C1F30A5640F4801543F48013A7EB3F
:100570000608101BD64608F2FD3873EB050002D3BF
:1005800008F1010801E092185B41B8F1000F03DAAD
:1005900000200146BDE8F08D00204FF48011064692
:1005A00084460EE0171B73EB050705D3121B63EBA4
:1005B000050306434CEA010C49084FEA3000921843
:1005C0005B4150EA0107EDD152EA030012D082EA02
:1005D000040083EA0501084305D0101BAB4106D295
:1005E0000122002306E000224FF0004302E06FF0FA
:1005F000010253101AEB06004CEB085110EB0A00F5
:1006000041EB0B01BDE8F04D00F004B9C10F80EAE9
:10061000E0700844CA079623002100F0CDB8962365
:100620000022114600F0C8B80EB5C10F80EAE07094
:100630000844CA07002140F233438DE80E000A4601
:100640000B4600F0F6F803B000BD00F0004220F0C9
:100650000040C10DC0F3160040F400007F2901DA0C
:1006600000207047962903DCC1F19601C84001E0E3
:1006700096398840002AF4D040427047C1F30A52AC
:1006800010B5C1F3130140F2FF3341F480119A42D7
:1006900001DA002010BD40F233439A42A2F2334205
:1006A00003DC5242FFF740FD10BD904010BD00F04A
:1006B000004230F000400AD0C10D01F56071C0F376
:1006C000160042EA0151C20840071143704700205A
:1006D0000146704730B5041E71F1000404DB4FF091
:1006E0000044404264EB0101141E73F1000405DB79
:1006F0001C464FF00043524263EB04038B4208BF99
:10070000824230BD01F0004330B421F0004150EA94
:10071000010206D00A0DA2F56072C1F31301002A8E
:1007200002DC30BC00207047440F44EAC104C10021
:10073000E01830BC00EBC25000F035B8002801DBF7
:10074000C0F10040002901DBC1F100418142704746
:10075000002801DBC0F10040002901DBC1F10041AC
:1007600088427047202A04DB203A00FA02F1002078
:1007700070479140C2F1200320FA03F319439040DF
:100780007047202A06DBCB17203A41FA02F043EAF1
:10079000E07306E041FA02F3D040C2F1200291403A
:1007A0000843194670470029A8BF7047401C4900FC
:1007B00008BF20F00100704710B4B0FA80FC00FAC6
:1007C0000CF050EA010404BF10BC704749B1CCF1F1
:1007D000200421FA04F411FA0CF118BF012121437D
:1007E0000843A3EB0C01CB1D4FEA00614FEA102038
:1007F00042BF002010BC704700EBC35010440029DA
:10080000A4BF10BC7047401C490008BF20F0010085
:1008100010BC704710B5141E73F1000408DA401CB8
:1008200041F1000192185B411A4301D120F001000F
:1008300010BD2DE9F04D92469B4611B1B1FA81F2FF
:1008400002E0B0FA80F220329046FFF78BFF0446B8
:100850000F4640EA0A0041EA0B0153465A46084354
:1008600013D0114653EA010019D0C8F14002504696
:10087000FFF75AFC05460E46504659464246FFF7DA
:1008800071FF084305D0012004E020463946BDE849
:10089000F08D0020054346EAE0762C4337430A9862
:1008A0006305E40AA0EB08000022FD0A44EA47546D
:1008B0000A3002D500200146E9E701051019694117
:1008C000DDE9084500196941BDE8F04DA2E770B5C2
:1008D00021F0004303430CD0C1F30A550024D5EBAB
:1008E000040564EB0403D617AD1AB34102DB002004
:1008F000014670BD201841EB025170BD064C074DFA
:1009000006E0E06840F0010394E8070098471034DF
:10091000AC42F6D3FFF7EEFB805E0008A05E000855
:1009200070B58C1810F8015B15F0070301D110F8B1
:10093000013B2A1106D110F8012B03E010F8016BDE
:1009400001F8016B5B1EF9D12B0705D40023521E61
:100950000DD401F8013BFAE710F8013BCB1A921CC9
:1009600003E013F8015B01F8015B521EF9D5A142C7
:10097000D8D3002070BD00BFFEE7000010B52548A9
:100980000078244948702448007823494870102191
:10099000224800F009FD1F49087008211F4800F097
:1009A00003FD1D4908701B48407830B9194800788C
:1009B00018B100201A49087008E01748407828B993
:1009C0001548007810B101201549087014480078C6
:1009D00098B91448D0E90020521C40F10000114998
:1009E000C1E9002000F058F800F080FA02F084FC21
:1009F00002F09CFE04F042F80AE000F04DF800F02E
:100A000075FA0021084603F0B3FD012002F03AFC1C
:100A100010BD0000410100204301002000080140FA
:100A2000400100204801002010B500F08DF802F0D0
:100A3000CDFC03F07FFA104803F072FD0F4803F07D
:100A40006FFD0F4803F0BCFA03F098FA02F06AFC5D
:100A500004F034F800F0F2F90A4801F06BFB0020D2
:100A600009494870087009494870087008490870B9
:100A70000120087010BD000088010020A80100209E
:100A8000FC010020E0020020430100204101002081
:100A9000400100207047000022480068406A00B210
:100AA0002149088021480068406A404200B220493C
:100AB00008801C480068406A1E49B1F900100122F4
:100AC00002FB001000B21B49088018480068406A09
:100AD0001949B1F90010921E02FB001000B216492C
:100AE000088000200F490968486210490968486277
:100AF00012480088401C00B210490880092810DD07
:100B0000002008800B48B0F900000D4908800A4811
:100B1000B0F900000B49088000200649088006490A
:100B2000088070479802002010000020500200202A
:100B3000120000201A0000201C00002018000020D5
:100B4000140000201600002010B500200B4908807A
:100B50000B4908800B4908800B4908800B49088025
:100B60000B4908800B4908803C210B4801F07AFCB6
:100B70003C210A4801F076FC10BD00001600002060
:100B80001400002012000020100000201C00002093
:100B90001A000020180000209802002050020020B7
:100BA00010B54FF48051064800F0FEFB012802D139
:100BB0000449087002E002200249087010BD0000DC
:100BC000000C01407801002072B600BFFEE7000073
:100BD00010B50A49C87800EBD0714910A0EB41016B
:100BE00029B1012000F052F90549087005E04FF0E5
:100BF000FF3000F04BF90249087010BD7801002069
:100C00008401002000200549087008460078044946
:100C10000870002003490870704700006E01002032
:100C20006F0100207001002070B505460C46284673
:100C300000F020F80C49B1F900100C4AB2F900207C
:100C4000881800EBD0710A4A126802EB6101084A69
:100C5000116010460068A04204D9002011460860C7
:100C6000012070BD0020FCE71400002016000020C9
:100C7000740100202DE9F05F834600205E49086082
:100C80005E4908605E4800785D49497808445D49DE
:100C900008705B4880785A49C97808445A490870F6
:100CA0005A480078B8B357480078002813DD5548F3
:100CB0000078FFF7B4FC044651494978504A12784D
:100CC000032303FB0210FFF7A1FC05462146FFF7B3
:100CD000D7FA494908604C480078002813DD4A4893
:100CE0000078FFF79CFC044645498978444AD2784D
:100CF000032303FB0210FFF789FC05462146FFF79B
:100D0000BFFA3E4908603C4801683C480068FFF76C
:100D10007FFA3F4908603E480068FFF7C8FC21F0B1
:100D20000041064600223B4BFFF789FB21F00041C2
:100D30008046394A394BFFF7CDFC09D23448006868
:100D4000FFF7B5FC0646364A364BFFF77EFB01E05F
:100D5000002001460446FFF7D5FC82465146324842
:100D600003F0D5FB314908605846FFF74FFC0746B2
:100D70002E4801683846FFF7F9F90646FFF765FC8B
:100D800004B25846FFF742FC074628480168384637
:100D9000FFF73EFA0646FFF758FC05B22146284603
:100DA00003F094FC22480078224908701748007824
:100DB00004280AD12048007838B901201E4908705B
:100DC0001B480078401C1A4908701B48007801280D
:100DD00006D10E480078042802D000201649087079
:100DE0001348007813490978884202D00120BDE8F1
:100DF000F09F0020FBE70000640100206801002054
:100E0000200000206C0100206D0100202600002041
:100E10005C0100200000084048AFBC9AF2D77A3E3F
:100E200048E17A14AE47F53F7C03002060010020C2
:100E30006E0100206F0100207001002010B50B48EA
:100E400003F072FB0020094948614FF07E500860B2
:100E5000002048600648886000200649087006495E
:100E600008700649087000F077F810BD7C03002078
:100E7000A69BC43B6E0100206F0100207001002082
:100E800000200149086070475C01002010B504464D
:100E90001348007938B11348007820B9012011496E
:100EA000087003F03BF80F48007888B1012003F088
:100EB0001DFE58B103F032F800200A4908700A48B4
:100EC0000078401C08490870012010BD0020FCE794
:100ED000FFF7D6FF1520FFF7CDFE0020F5E7000055
:100EE00020000020EC010020E001002010B50020CF
:100EF0001449087000240EE0134A32F81410134A03
:100F000052F8240000F050FA012800D100E000203F
:100F10000F490855641C062CEEDB002407E00C4842
:100F2000005D08490978084406490870641C042CCF
:100F3000F5DB0748007906494979084405490870F6
:100F400010BD0000260000204000002028000020E6
:100F5000200000202700002070470146002291F861
:100F60002100022808D00420886300BF002081F8F7
:100F7000200000BF012070470868006820F00E00C4
:100F80000B6818600868006820F001000B681860A2
:100F900091F8403001209840CB6B5860012081F8D7
:100FA000210000BF002081F8200000BF1046E2E7CA
:100FB00070B50446002594F82100022803D00420CF
:100FC000A063012548E02068006820F00E00216839
:100FD00008602068006820F00100216808601F494F
:100FE0002068884201D1012026E01C491431206884
:100FF000884201D110201FE018492831206888421A
:1010000001D1801518E015493C312068884201D192
:10101000801411E0114950312068884202D14FF408
:10102000803009E00D4964312068884202D14FF4D4
:10103000801001E04FF080700849083948600120B5
:1010400084F8210000BF002084F8200000BF606BFE
:1010500010B12046616B8847284670BD08000240E9
:1010600070B5044600F0AEF906462546681C10B17E
:1010700004480078054400BF00F0A4F9801BA84292
:10108000FAD370BD080000202DE9F847034600227E
:1010900094466EE14FF0010808FA02F4D1F800809E
:1010A00008EA0400A0427DD1DFF8DCA2D1F8048078
:1010B000A8EB0A09D0453AD014DCB8F1030F50D0A0
:1010C00009DCB8F1000F31D0B8F1010F1CD0B8F134
:1010D000020F49D120E0B8F1110F18D0B8F1120F6A
:1010E00042D11EE0B9F5881F25D006DCB9F5803F56
:1010F00020D0B9F5801F37D11AE0B9F5001F18D0FC
:10110000B9F5041F30D117E0D1F80CC02DE0D1F8AB
:101110000C8008F1040C28E0D1F80C8008F1080CD0
:1011200023E0D1F80C8008F10C0C1EE000BF00BFDA
:1011300000BF00BF00BF00BFD1F80880B8F1000FAA
:1011400002D14FF0040C0BE0D1F80880B8F1010F88
:1011500003D14FF0080C1C6102E04FF0080C5C61F9
:1011600003E04FF0000C00E000BF00BFFF2801D8F3
:10117000984601E003F104084646FF2802D84FEAEA
:10118000820803E0A2F108084FEA88084746D6F82B
:1011900000804FF00F0909FA07F928EA09080CFA4C
:1011A00007F900E088E048EA0908C6F80080D1F8AD
:1011B000048008F08058B8F1805F7DD100BFDFF86F
:1011C000CC81D8F8188048F00108DFF8C091C9F840
:1011D0001880C846D8F8188008F00108CDF80080BB
:1011E00000BF00BF4FEAB9384FEA920958F82950BA
:1011F0004FEA82784FEA18794FF00F0808FA09F899
:1012000025EA0805DFF88881434502D14FF0000840
:1012100016E0DFF88081434502D14FF001080FE06E
:10122000DFF87481434502D14FF0020808E0DFF88F
:101230006C81434502D14FF0030801E04FF00408F0
:101240004FEA82794FEA197908FA09F848EA050560
:10125000DFF84C814FEA920948F82950D1F8048010
:1012600008F48018B8F5801F0AD1DFF83881D8F863
:10127000008048EA0008DFF82C91C9F8008009E0F6
:10128000DFF82081D8F8008028EA0008DFF8149100
:10129000C9F80080D1F8048008F40018B8F5001FE0
:1012A00010D1DFF8008108F10408D8F8008048EA7E
:1012B0000008DFF8F09000E05AE009F10409C9F8ED
:1012C00000800DE0DFF8DC8008F10408D8F8008029
:1012D00028EA0008DFF8CC9009F10409C9F8008079
:1012E000D1F8048008F40038B8F5003F0ED1DFF8DB
:1012F000B480A8F10408D8F8008048EA0008DFF8B4
:10130000A490A9F10409C9F800800DE0DFF89480E9
:10131000A8F10408D8F8008028EA0008DFF88490D3
:10132000A9F10409C9F80080D1F8048008F48038D4
:10133000B8F5803F0ED1DFF86C80A8F10808D8F826
:10134000008048EA0008DFF85C90A9F10809C9F8B4
:1013500000800DE0DFF84C80A8F10808D8F8008084
:1013600028EA0008DFF83C90A9F10809C9F80080D4
:10137000521CD1F8008028FA02F8B8F1000F7FF46F
:1013800089AEBDE8F887000000001110001002408F
:1013900000080140000C0140001001400014014011
:1013A0000800014008040140024693680B400BB15D
:1013B000012000E0002070470AB1016101E00B0448
:1013C000036170470148006870470000000000207A
:1013D00070B504460CB9012070BD94F83D0028B9E1
:1013E000002084F83C00204600F08CF9242084F88A
:1013F0003D002068006820F0010021680860206836
:10140000006840F40040216808602068006820F40B
:1014100000402168086000F04FFB05465C496068A9
:10142000884206D85B48854201D2012007E00020AF
:1014300005E05948854201D2012000E00020012842
:1014400000D1C9E75548B5FBF0F62068406820F0A8
:101450003F003043216848604D496068884201D8A8
:10146000701C07E04FF4967070434FF47A71B0FB34
:10147000F1F0401C2168096A21F03F01084321680E
:10148000086243496068884214D8681E6168490050
:10149000B0FBF1F0401CC0F30B00042801D2042083
:1014A0003DE0681E61684900B0FBF1F0401CC0F3EC
:1014B0000B0034E0A06838B9681E616801EB410197
:1014C000B0FBF1F0401C0AE0681E616801EBC1024C
:1014D00002EB0111B0FBF1F0401C40F48040C0F37E
:1014E0000B0008B901201AE0A06848B9681E6168BD
:1014F00001EB4101B0FBF1F0401CC0F30B000CE02C
:10150000681E616801EBC10202EB0111B0FBF1F052
:10151000401CC0F30B0040F4804040F400402168C0
:10152000C9694CF6FF72914308432168C861D4E948
:10153000070108432168096821F0C00108432168B8
:101540000860D4E9031008432168896848F2FF3233
:101550009143084321688860D4E905010843216864
:10156000C96821F0FF0108432168C860206800684D
:1015700040F001002168086000202064202084F8E9
:101580003D000020206384F83E0000BF24E70000F7
:10159000A086010080841E0000093D0040420F002B
:1015A0002DE9FC5F04460F4690469946DDE90CABF9
:1015B0000E9EFFF707FF054694F83D0020287DD1D9
:1015C000192301224D492046009501F04CFD10B130
:1015D0000220BDE8FC9F00BF94F83C00012801D127
:1015E0000220F6E7012084F83C0000BF2068006874
:1015F00000F0010028B92068006840F0010021686F
:1016000008602068006820F40060216808602120DC
:1016100084F83D00402084F83E0000202064C4F897
:1016200024A0A4F82AB0608D20853548E0624B469E
:10163000424639462046CDE9006501F071FC08B10B
:101640000120C6E731E02A463146204601F0E7FD99
:1016500050B1206C042805D12068006840F4007067
:10166000216808600120B4E7606A00782168086199
:10167000606A401C6062208D401E2085608D401E87
:10168000608520684069C0F3800070B1208D60B132
:10169000606A007821680861606A401C6062208D81
:1016A000401E2085608D401E6085208D0028CAD197
:1016B0002A463146204601F0A3FC00E01CE050B170
:1016C000206C042805D12068006840F4007021686F
:1016D000086001207DE72068006840F40070216800
:1016E0000860202084F83D00002084F83E0000BF00
:1016F00084F83C0000BF6CE702206AE7020010009B
:101700000000FFFF10B586B0044600200290039051
:101710000490059016492068884226D100BF1548DC
:10172000806940F00800134988610846806900F02C
:101730000800019000BF00BF4FF4406002901220EB
:1017400003900320059002A90B48FFF79DFC00BF02
:101750000848C06940F480000649C8610846C0696D
:1017600000F48000019000BF00BF06B010BD000073
:101770000058004000100240000C0140034800687F
:1017800003490978084401490860704700000020B7
:101790000800002010B50848006840F01000064915
:1017A0000860032000F0A8F80F2000F007F800F010
:1017B0002BF8002010BD00000020024070B5044648
:1017C0000E4800784FF47A71B1FBF0F00C490968CB
:1017D000B1FBF0F5284600F0F9FB08B1012070BD1F
:1017E000102C07D200222146501E00F047F8054871
:1017F000046001E00120F2E70020F0E7080000208B
:101800000C0000200400002008B500BF11488069CA
:1018100040F001000F4988610846806900F001002E
:10182000009000BF00BF00BF0846C06940F0805074
:10183000C8610846C06900F08050009000BF00BF3A
:1018400000BF0549486820F0E06040F00070486043
:1018500000BF08BD001002400000014001460846DC
:10186000002809DB00F01F0301229A4043099B0076
:1018700003F1E023C3F8002100BF70472DE9F05FBA
:1018800080460D461646002703F062FB07463946A0
:101890002A46334601F00700C0F1070ABAF1040FE7
:1018A00002D94FF0040A01E0C0F1070AD14600F165
:1018B000040ABAF1070F02D24FF0000A01E0A0F1CA
:1018C000030AD4464FF0010A0AFA09FAAAF1010AFA
:1018D0000AEA020A0AFA0CFA4FF0010B0BFA0CFBA7
:1018E000ABF1010B0BEA030B4AEA0B04214640461D
:1018F00003F036FBBDE8F09F00BF00F00702064B87
:1019000019684FF6FF031940044B0B4343EA0221C9
:10191000014B196000BF70470CED00E00000FA05B4
:1019200070B504460D460CB9012070BD5A480068D8
:1019300000F00700A8420ED25748006820F00700C8
:101940002843554908600846006800F00700A8428F
:1019500001D00120E9E7207800F0020002281DD123
:10196000207800F00400042805D14C48406840F479
:10197000E0604A494860207800F00800082805D156
:101980004648406840F460504449486043484068D5
:1019900020F0F000A168084340494860207800F03A
:1019A000010078B36068012806D13C48006800F463
:1019B000003090B90120B8E76068022806D13748A6
:1019C000006800F0007040B90120AEE733480068BD
:1019D00000F0020008B90120A7E73048406820F075
:1019E0000300616808432D494860FFF7EBFC064699
:1019F00009E0FFF7E7FC801B41F28831884202D9F9
:101A0000032092E707E02548406800F00C00616879
:101A1000B0EB810FEDD12048006800F00700A8422C
:101A20000ED91D48006820F0070028431A490860B5
:101A30000846006800F00700A84201D0012074E7C2
:101A4000207800F00400042807D11448406820F4EE
:101A5000E060E168084311494860207800F0080020
:101A6000082808D10D48406820F46050216940EAF8
:101A7000C1000A49486000F03FF808494968C1F3CD
:101A80000311074A515CC8400649086006480068CF
:101A9000FFF794FE002048E70020024000100240BB
:101AA000105600080C0000200400002001480068C7
:101AB000704700000C00002000B5FFF7F7FF044955
:101AC0004968C1F30221034A515CC84000BD0000CF
:101AD000001002402056000800B5FFF7E7FF044958
:101AE0004968C1F3C221034A515CC84000BD0000EF
:101AF000001002402056000870B50021002200248A
:101B000000230020134D696801F00C05F5B1042D88
:101B100002D0082D19D101E00F4819E00F4DC1F393
:101B20008346AB5D01F4803555B10A4D6D68C5F350
:101B300040450B4E725D084D5D43B5FBF2F402E08B
:101B4000084D03FB05F4204602E000BF024800BF39
:101B500000BF70BD0010024000127A00FE55000860
:101B60000E56000800093D00F8B504460CB90120E6
:101B7000F8BD207800F00100002878D0F8484068CF
:101B800000F00C0004280CD0F548406800F00C0070
:101B9000082811D1F248406800F48030B0F5803F49
:101BA0000AD1EF48006800F4003000285FD0606878
:101BB00000285CD10120DBE700BF6068B0F5803F02
:101BC00006D1E748006840F48030E549086028E025
:101BD000606858B9E248006820F48030E049086045
:101BE0000846006820F4802008601AE06068B0F5BC
:101BF000A02F0BD1DA48006840F48020D849086053
:101C00000846006840F4803008600AE0D448006864
:101C100020F48030D24908600846006820F4802013
:101C2000086000BF606888B1FFF7CCFB054606E09E
:101C3000FFF7C8FB401B642801D9032098E7C84878
:101C4000006800F400300028F2D010E0FFF7BAFB83
:101C5000054606E0FFF7B6FB401B642801D90320C8
:101C600086E7BF48006800F400300028F2D12078F1
:101C700000F00200022857D1B948406800F00C007B
:101C800050B1B748406800F00C00082818D1B4489B
:101C9000406800F4803098B9B148006800F0020054
:101CA00020B12069012801D0012061E7AC4800681B
:101CB00020F0F800616940EAC100A949086033E0FA
:101CC0002069E8B10120A7490860FFF77BFB0546C2
:101CD00006E0FFF777FB401B022801D9032047E706
:101CE0009F48006800F002000028F2D09C4800687D
:101CF00020F0F800616940EAC1009949086013E0EA
:101D0000002098490860FFF75DFB054606E0FFF7F5
:101D100059FB401B022801D9032029E7904800689D
:101D200000F002000028F2D1207800F00800082816
:101D30002DD1A069B8B101208B490860FFF742FBA3
:101D4000054606E0FFF73EFB401B022801D90320B1
:101D50000EE78348406A00F002000028F2D001201C
:101D600002F0F0FB13E000207F490860FFF72AFB38
:101D7000054606E0FFF726FB401B022801D9032099
:101D8000F6E67748406A00F002000028F2D1207899
:101D900000F00400042873D100277148C06900F0E6
:101DA000805070B900BF6E48C06940F080506C49E7
:101DB000C8610846C06900F08050009000BF00BFB5
:101DC00001276A48006800F48070B0B9674800686D
:101DD00040F4807065490860FFF7F4FA054606E0B4
:101DE000FFF7F0FA401B642801D90320C0E65F48E2
:101DF000006800F480700028F2D000BFE06801287D
:101E000006D15748006A40F001005549086227E0B2
:101E1000E06858B95248006A20F001005049086251
:101E20000846006A20F00400086219E0E06805280E
:101E30000BD14B48006A40F004004949086208464B
:101E4000006A40F0010008620AE04548006A20F09C
:101E50000100434908620846006A20F00400086255
:101E600000BFE068A0B1FFF7ADFA054609E0FFF753
:101E7000A9FA401B41F28831884202D9032077E653
:101E800022E03748006A00F002000028EFD012E09C
:101E9000FFF798FA054608E0FFF794FA401B41F275
:101EA0008831884201D9032062E62D48006A00F09B
:101EB00002000028F0D1012F05D12948C06920F087
:101EC00080502749C86100BFE069C8B32448406812
:101ED00000F00C00082860D0E069022848D10020FA
:101EE00020490866FFF76EFA054606E0FFF76AFA32
:101EF000401B022801D903203AE61948006800F087
:101F000000700028F2D1206AB0F5803F07D1144854
:101F1000406820F40030A168084311494860D4E9C2
:101F2000080108430E49496821F4741108430C491B
:101F3000486001200B490866FFF744FA054607E0B0
:101F40003DE0FFF73FFA401B022801D903200FE6CE
:101F50000348006800F000700028F2D02FE0000075
:101F600000100240000042428004424200700040E3
:101F7000002014490866FFF725FA054606E0FFF73A
:101F800021FA401B022801D90320F1E50E48006820
:101F900000F000700028F2D111E0E069012800D1C2
:101FA000E6E50948466806F48031206A814204D19A
:101FB00006F47011606A814201D00120D8E500204A
:101FC000D6E50000000042420010024070B5044611
:101FD0002546681EB0F1807F01D301200FE0681E06
:101FE0004FF0E02148610F214FF0FF3002F0B8FFC1
:101FF00000204FF0E021886107200861002070BDBB
:102000007047704730B502460B4600BF92F83C005F
:10201000012801D1022030BD012082F83C0000BF20
:10202000022082F83D00106844681068816824F03E
:1020300070041868044310684460104D1068A8428A
:102040000BD01068B0F1804F07D00D4D1068A8423A
:1020500003D00C4D1068A84205D121F080015868CA
:10206000014310688160012082F83D0000BF00201C
:1020700082F83C0000BF00BFCDE70000002C01400B
:10208000000400400008004010B504460CB90120CF
:1020900010BD94F83D0028B9002084F83C0020468B
:1020A00000F026F8022084F83D00211D206802F08F
:1020B000A1FB012084F8460000BF84F83E00012106
:1020C0003F200155402001554120015500BF00BF70
:1020D000012084F842004320015544200155452049
:1020E000015500BF012084F83D000020D0E700002A
:1020F00038B504460D492068884215D100BF0C4808
:10210000C06940F004000A49C8610846C06900F08F
:102110000400009000BF00BF002211461E20FFF700
:10212000ADFB1E20FFF79AFB38BD00000008004001
:1021300000100240014691F83D00012801D0012025
:102140007047022081F83D000868C06840F0010037
:102150000B68D860124B086898420BD00868B0F141
:10216000804F07D00F4B0868984203D00E4B086889
:1021700098420CD10868806800F00702062A0CD04B
:102180000868006840F001000B68186005E0086806
:10219000006840F001000B6818600020D0E70000E4
:1021A000002C014000040040000800402DE9F041EF
:1021B00004460D46002700BF94F83C00012802D1D8
:1021C0000220BDE8F081012084F83C0000BF02201D
:1021D00084F83D002068866826F0770626F47F465E
:1021E000206886602868502833D00CDC202850D026
:1021F00004DC00284BD0102851D149E0302849D0C8
:1022000040284CD139E060282DD0702807D0B0F597
:10221000805F03D0B0F5005F41D10DE041E0D5E92A
:1022200002136A68206802F030FB2068866846F076
:1022300077062068866034E0D5E902136A68206872
:1022400002F023FB2068806840F4804021688860A9
:1022500027E0EA686968206802F0E8FB50212068FE
:1022600002F01EFB1DE0EA686968206802F0F1FBDD
:102270006021206802F014FB13E0EA6869682068B6
:1022800002F0D4FB4021206802F00AFB09E000BF05
:1022900000BF00BF2968206802F002FB01E00127AF
:1022A00000BF00BF012084F83D0000BF002084F87B
:1022B0003C0000BF384684E72DE9F04104460D4656
:1022C00014B90120BDE8F08194F83D0028B9002040
:1022D00084F83C00204600F051F8022084F83D00CC
:1022E0002068806844F20701884321688860211DC6
:1022F000206802F07FFA2068D0F80880206886699C
:102300002068076A286840EA080840F203308643DC
:10231000A969A86840EA0120064340F60C408643BC
:102320004FF2F0008643E969E86840EA012006437D
:1023300028690001296A40EA0130064327F0220794
:102340006969686840EA011007432068C0F808809E
:102350002068866120680762012084F8460084F8BE
:102360003E0001213F200155012084F84200432016
:102370000155012084F83D000020A3E710B586B088
:102380000446002002900390049005902068B0F16C
:10239000804F2DD100BF3048C06940F001002E4968
:1023A000C8610846C06900F00100019000BF00BF8D
:1023B00000BF0846806940F00400886108468069D3
:1023C00000F00400019000BF00BF03200290002035
:1023D00003900120049002A92048FEF755FE002238
:1023E00011461C20FFF74AFA1C20FFF737FA30E0AD
:1023F0001B49206888422CD100BF1748C06940F0B3
:1024000002001549C8610846C06900F00200019049
:1024100000BF00BF00BF0846806940F0040088612B
:102420000846806900F00400019000BF00BFC02092
:102430000290002003900120049002A90748FEF7B3
:1024400023FE002211461D20FFF718FA1D20FFF77A
:1024500005FA06B010BD000000100240000801405F
:10246000000400402DE9F04304460D4694F83E6018
:102470003F20075D94F84280432010F804906DB926
:10248000012E02D1B8F1010F02D00120BDE8F08386
:10249000022084F83E0084F8420025E0042D0CD18F
:1024A000012F02D1B9F1010F01D00120EEE7022185
:1024B0003F2001554320015516E0012E07D1012F81
:1024C00005D1B8F1010F02D1B9F1010F01D00120FE
:1024D000DCE7022084F83E0002213F200155022063
:1024E00084F842004320015515B1042D0CD105E0BC
:1024F00001220021206802F0B7F910E00122042136
:10250000206802F0B1F90AE001220021206802F0FF
:10251000ABF901220421206802F0A6F900BF00BF38
:102520002068006840F00100216808600020ADE7E5
:10253000704710B5044620680069C0F34000D8B168
:102540002068C068C0F34000B0B16FF0020021689D
:102550000861012020772068806900F0030018B12D
:102560002046FFF7E5FF05E0204600F0D9F82046B9
:1025700000F08DF90020207720680069C0F380000A
:10258000D8B12068C068C0F38000B0B16FF004001B
:1025900021680861022020772068806900F440707B
:1025A00018B12046FFF7C4FF05E0204600F0B8F858
:1025B000204600F06CF90020207720680069C0F305
:1025C000C000D8B12068C068C0F3C000B0B16FF0DF
:1025D000080021680861042020772068C06900F0A5
:1025E000030018B12046FFF7A3FF05E0204600F0E6
:1025F00097F8204600F04BF900202077206800690A
:10260000C0F30010D8B12068C068C0F30010B0B1AA
:102610006FF0100021680861082020772068C069E9
:1026200000F4407018B12046FFF782FF05E0204615
:1026300000F076F8204600F02AF900202077206884
:10264000006900F0010058B12068C06800F0010086
:1026500030B16FF0010021680861204600F082F976
:1026600020680069C0F3C01058B12068C068C0F38A
:10267000C01030B16FF08000216808612046FFF77C
:10268000BFFC20680069C0F3801058B12068C068A2
:10269000C0F3801030B16FF040002168086120461F
:1026A00000F06AF920680069C0F3401058B1206852
:1026B000C068C0F3401030B16FF02000216808619D
:1026C0002046FFF79EFC10BD10B586B004460020E2
:1026D00002900390049005900E492068884216D11C
:1026E00000BF0D48806940F008000B49886108462A
:1026F000806900F00800019000BF00BFC020029078
:1027000002200390059002A90448FEF7BDFC06B024
:1027100010BD00000008004000100240000C014005
:1027200070472DE9F04104460D461646002700BFCC
:1027300094F83C00012802D10220BDE8F08101207C
:1027400084F83C0000BF36B1042E1BD0082E31D0D7
:102750000C2E5ED145E02946206802F0ABF82068D7
:10276000806940F00800216888612068806920F055
:10277000040021688861206880692969084321680C
:10278000886148E02946206802F0C4F82068806922
:1027900040F40060216888612068806920F48060CE
:1027A0002168886120688069296940EA01202168E0
:1027B000886130E02946206802F0E0F82068C069AE
:1027C00040F008002168C8612068C06920F004005A
:1027D0002168C8612068C069296908432168C86107
:1027E00019E02946206802F0FDF82068C06940F42D
:1027F00000602168C8612068C06920F48060216899
:10280000C8612068C069296940EA01202168C8615F
:1028100001E0012700BF00BF00BF002084F83C009A
:1028200000BF384689E710B504460CB9012010BD39
:1028300094F83D0028B9002084F83C00204600F0C0
:1028400025F8022084F83D00211D206801F0D2FF08
:10285000012084F8460000BF84F83E0001213F209B
:102860000155402001554120015500BF00BF012006
:1028700084F842004320015544200155452001556C
:1028800000BF012084F83D000020D0E7704770476A
:1028900070B504460D4615B994F83E000BE0042DC2
:1028A00002D13F20005D06E0082D02D14020005DEE
:1028B00001E04120005D012801D0012070BD1DB95B
:1028C000022084F83E000EE0042D03D102213F20B7
:1028D000015508E0082D03D102214020015502E0F6
:1028E00002214120015501222946206801F0BCFF48
:1028F00019492068884201D1012000E0002028B158
:102900002068406C40F40040216848641249206807
:1029100088420BD02068B0F1804F07D00F49206863
:10292000884203D00E49206888420CD12068806814
:1029300000F00706062E0CD02068006840F0010069
:102940002168086005E02068006840F00100216807
:1029500008600020B2E70000002C014000040040A5
:102960000008004010B504460248844201D1FEF739
:1029700005F810BDE0020020704770477047000066
:102980002DE9F84F0446206805682068C66820686D
:1029900047694FF00009CA4605F00F09B9F1000F69
:1029A0000AD105F0200038B106F0200020B1204601
:1029B00002F006F9BDE8F88FB9F1000F7BD007F0FF
:1029C000010018B906F49070002874D005F00100D9
:1029D00030B106F4807018B1606C40F001006064A2
:1029E00005F0040030B107F0010018B1606C40F050
:1029F0000200606405F0020030B107F0010018B178
:102A0000606C40F00400606405F0080048B106F016
:102A1000200010B907F0010018B1606C40F0080008
:102A20006064606C002845D005F0200028B106F0F5
:102A3000200010B1204602F0C3F820684069C0F3BE
:102A4000801A606C00F0080010B9BAF1000F2CD0A9
:102A5000204602F06FF82068406900F0400000B3A3
:102A600000BF00BF2168143151E8001F21F0400071
:102A70002168143141E80002002AF3D100BFE06B65
:102A800050B17748E16B4863E06BFEF791FA88B18B
:102A9000E06B416B88470DE02046FFF76FFF09E0D0
:102AA00009E02046FFF76AFF04E02046FFF766FFD3
:102AB000002060647EE7206B012877D105F01000CC
:102AC000002873D006F010000028FAD000BF0020C4
:102AD000009020680068009020684068009000BF67
:102AE00000BF2068406900F0400000285FD0E06B24
:102AF000006840681FFA80F8B8F1000F55D0A08D2B
:102B0000404552DDA4F82E80E06B8069202843D038
:102B100000BF00BF21680C3151E8001F21F4807014
:102B200021680C3141E80002002AF3D100BF00BF48
:102B300000BF2168143151E8001F21F00100216815
:102B4000143141E80002002AF3D100BF00BF00BFEA
:102B50002168143151E8001F21F040002168143130
:102B600041E80002002AF3D100BF202084F842008F
:102B70000020206300BF00BF21680C3151E8001F16
:102B800021F0100021680C3141E80002002AF3D145
:102B900000BFE06BFEF7E1F902206063A08DE28DDB
:102BA000801A81B22046FFF7E8FE03E742E0A08DDD
:102BB000E18D401A1FFA80F8E08DD0B3B8F1000F14
:102BC00037D000BF00BF21680C3151E8001F21F44D
:102BD000907021680C3141E80002002AF3D100BF57
:102BE00000BF00BF2168143151E8001F21F001002F
:102BF0002168143141E80002002AF3D100BF2020EF
:102C000084F842000020206300BF00BF21680C311F
:102C100051E8001F21F0100021680C3141E800024A
:102C2000002AF3D100BF0220606341462046FFF72F
:102C3000A4FEBFE605F0800030B106F0800018B1B8
:102C4000204602F0D9F8B5E605F0400030B106F0B4
:102C5000400018B1204601F0A3FFABE600BFA9E693
:102C6000214B000810B504460CB9012010BDA06925
:102C700000B100E000BF94F8410028B9002084F8BA
:102C80004000204600F02AF8242084F84100206803
:102C9000C06820F400502168C860204602F00EF899
:102CA0002068006920F4904021680861206840692C
:102CB00020F02A00216848612068C06840F4005074
:102CC0002168C86000206064202084F8410084F8F6
:102CD00042000020606300BFC8E7000010B586B066
:102CE0000446002002900390049005901E4920683D
:102CF000884236D100BF1D48806940F480401B499E
:102D000088610846806900F48040019000BF00BFE0
:102D100000BF0846806940F0040088610846806969
:102D200000F00400019000BF00BF4815029002208F
:102D300003900320059002A90D48FEF7A5F94FF472
:102D40008060029000200390049002A90848FEF7DA
:102D50009BF9002211462520FEF790FD2520FEF765
:102D60007DFD06B010BD000000380140001002409B
:102D70000008014070B504460D46164694F842001E
:102D800020280BD105B10EB9012070BD00202063B1
:102D900032462946204602F00FF8F6E70220F4E713
:102DA0001D49884236D11D490978092913D11C498A
:102DB00009781C4A917011468978012903D011467F
:102DC0008978022903D117498978164AD1700021E0
:102DD000124A11701EE01149097800290BDD0F49D4
:102DE0000978092907DA0E4909780E4AD1700021BD
:102DF0000A4A11700EE00949097810290ADD0749CD
:102E00000978192906DA06490978064A117100215C
:102E1000024A11707047000028030020370100208B
:102E200070030020780100202DE9F84F04460E467B
:102E3000174699464FF0000A94F8410020284AD1DD
:102E400006B117B90120BDE8F88F00206064212089
:102E500084F84100FEF7B6FA8246A784E784A068AA
:102E6000B0F5805F04D1206910B90025B04602E0BA
:102E700035464FF000081BE05346002280212046D3
:102E8000CDF8009001F0E8FF08B10320DBE745B979
:102E9000B8F80000C0F308002168486008F1020893
:102EA00003E02878216848606D1CE08C401EE084B7
:102EB000E08C0028E0D15346002240212046CDF886
:102EC000009001F0C9FF08B10320BCE7202084F87E
:102ED00041000020B7E70220B5E7704700BFFEE7DA
:102EE000014608684069C0F38020B0B16FF480608B
:102EF0000A68506100200863202081F83D0000200E
:102F000081F83E00086C40F00400086400BF002017
:102F100081F83C0000BF012070470020FCE7000062
:102F20002DE9F8430446884615469946DDE90867C9
:102F30002068006840F480702168086033460022F1
:102F40004FF001112046009700F08DF860B1206825
:102F5000006800F48070B0F5807F02D14FF40070FB
:102F600020640320BDE8F88308F0FE0021680861B2
:102F70003B4632462149204600F0D4F808B10120F2
:102F8000F0E700BF002000902068406900902068B2
:102F90008069009000BF00BF3A463146204600F0ED
:102FA0003EF950B1206C042805D12068006840F437
:102FB0000070216808600120D4E7B9F1010F03D146
:102FC000E8B22168086117E0C5F3072021680861AD
:102FD0003A463146204600F022F950B1206C0428D0
:102FE00005D12068006840F4007021680860012065
:102FF000B8E7E8B2216808610020B3E702000100E9
:1030000070B504460D46164625E02046FFF768FFDA
:1030100008B1012070BD681CE8B1FEF7D3F9801B30
:10302000A84200D8BDB920684069C0F3800090B9BB
:1030300000202063202084F83D00002084F83E001A
:10304000206C40F02000206400BF002084F83C0089
:1030500000BF0120DEE720684069C0F3800000283F
:10306000D3D00020D6E72DE9F04104460D4617469F
:103070001E46DDF8188038E0701CA8B3FEF7A2F9F0
:10308000A0EB0800B04200D876BBC5F3074001288A
:103090000AD120684069A9B20840A9B2884201D18A
:1030A00001200BE0002009E020688069A9B20840F7
:1030B000A9B2884201D1012000E00020B84214D119
:1030C00000202063202084F83D00002084F83E008A
:1030D000206C40F02000206400BF002084F83C00F9
:1030E00000BF0120BDE8F081FFE7C5F307400128DC
:1030F0000AD120684069A9B20840A9B2884201D12A
:1031000001200BE0002009E020688069A9B2084096
:10311000A9B2884201D1012000E00020B842ABD022
:103120000020DFE72DE9F04104460D4616461F4614
:1031300058E020684069C0F38020E8B1206800684A
:1031400040F40070216808606FF480602168486175
:1031500000202063202084F83D00002084F83E00F9
:10316000206C40F00400206400BF002084F83C0084
:1031700000BF0120BDE8F081701C90B3FEF722F97A
:10318000C01BB04200D866BBC5F3074001280AD176
:1031900020684069A9B20840A9B2884201D1012043
:1031A0000BE0002009E020688069A9B20840A9B2BC
:1031B000884201D1012000E0002090B90020206366
:1031C000202084F83D00002084F83E00206C40F070
:1031D0002000206400BF002084F83C0000BF0120D4
:1031E000C8E7FFE7C5F3074001280AD12068406916
:1031F000A9B20840A9B2884201D101200BE0002009
:1032000009E020688069A9B20840A9B2884201D1CA
:10321000012000E0002000288BD00020AAE770B534
:1032200004460D46164625E02046FFF759FE08B134
:10323000012070BD681CE8B1FEF7C4F8801BA842ED
:1032400000D8BDB920684069C0F3C01090B9002013
:103250002063202084F83D00002084F83E00206C8C
:1032600040F02000206400BF002084F83C0000BF34
:103270000120DEE720684069C0F3C0100028D3D0E9
:103280000020D6E710B504468CB1012C04D0022CE6
:1032900018D0032C2CD120E0002201211548FEF784
:1032A0008BF8012202211348FEF786F820E0012264
:1032B00011461048FEF780F8002202210D48FEF763
:1032C0007BF815E0002201210A48FEF775F800227C
:1032D00002210848FEF770F80AE0012202210548A1
:1032E000FEF76AF8012211460248FEF765F800BFB2
:1032F00000BF10BD000C014010B5074802784FF424
:1033000000510648FEF758F84FF480510348FEF785
:103310004BF80349087010BD34010020000C014037
:103320003501002010B5FFF7E7FF054800780128B8
:1033300002D10449087002E000200249087010BD63
:1033400035010020360100201948007801281CD1E1
:1033500017484078022806DC002016490870012032
:103360001349487022E014480078022806D1002052
:103370001249087002200E49487017E000201049D9
:10338000087003200A49487010E00B4800780228B2
:1033900006D100200B49087004200549487005E05B
:1033A0000020094908700520014948707047000055
:1033B00078010020ED0100206E010020EF010020C7
:1033C000F1010020F3010020F501002010B50122D9
:1033D00002210448FDF7F0FF012211460148FDF7E4
:1033E000EBFF10BD000C014000B585B0002001903E
:1033F00002900390049000BF4148806940F01000A3
:103400003F4988610846806900F01000009000BFC5
:1034100000BF00BF0846806940F020008861084670
:10342000806900F02000009000BF00BF00BF084688
:10343000806940F0040088610846806900F004005B
:10344000009000BF00BF00BF0846806940F0080040
:1034500088610846806900F00800009000BF00BF46
:1034600000224FF400512748FDF7A6FF002242F248
:103470003F012548FDF7A0FF00224FF400412348FB
:10348000FDF79AFF4FF400500190012002900020B8
:1034900003900320049001A91A48FDF7F5FD41F6B9
:1034A0001C10019000200290039001A91748FDF71D
:1034B000EBFD42F23F0001900120029000200390BA
:1034C0000320049001A91048FDF7DEFD4FF45140A0
:1034D000019000200290039001A90B48FDF7D4FD54
:1034E0004FF400400190012002900020039003203F
:1034F000049001A90548FDF7C7FD05B000BD000017
:103500000010024000100140000C01400008014082
:1035100010B50B480B4908600B484860002109486A
:103520008160C1604FF4804101610021416181618E
:10353000C1610162FDF74CFF08B1FDF745FB10BD0D
:1035400000580040FC010020A086010000B58BB0AF
:10355000242102A8FCF7FFFD0020009001904FF00D
:1035600080401749086000204860002114488160AD
:103570004FF6FF71C160002101618161032002905B
:1035800000200390012004900020059006900790F1
:1035900001200890002009900A9002A90848FEF72F
:1035A0008BFE08B1FDF710FB0020009001906946EA
:1035B0000348FEF727FD08B1FDF706FB0BB000BD81
:1035C0005002002000B58BB0242102A8FCF7C3FDF7
:1035D00000200090019018481849086000204860B9
:1035E0000021164881604FF6FF71C1600021016122
:1035F00081610320029000200390012004900020AC
:1036000005900690079001200890002009900A90EC
:1036100002A90A48FEF750FE08B1FDF7D5FA0020CE
:103620000090019069460548FEF7ECFC08B1FDF7F3
:10363000CBFA0BB000BD000000040040980200204F
:1036400000B58DB0002009900A900B900C90079067
:1036500008901C216846FCF77EFD24482449086038
:103660004720486000212248816040F2E731C16074
:10367000002101618161FEF707FD08B1FDF7A4FAA1
:103680004FF48050099009A91948FEF78FFD08B141
:10369000FDF79AFA1648FFF7C6F808B1FDF794FA55
:1036A00000200790089007A91148FEF7ABFC08B16D
:1036B000FDF78AFA602000900020019002900490AB
:1036C000002269460A48FFF72CF808B1FDF77CFA9A
:1036D000042269460648FFF724F808B1FDF774FA9A
:1036E0000348FEF7F1FF0DB000BD000000080040E8
:1036F000E002002010B50B480B4908604FF4E130A0
:103700004860002108488160C16001610C2141616D
:1037100000218161C161FFF7A5FA08B1FDF754FAF4
:1037200010BD0000003801402803002010B504211E
:103730000248FDF739FE0249087010BD000801403B
:103740004C00002000BFFEE710B55F480078082855
:103750001DD2DFE800F0041D2F44577183A55A489D
:1037600000785A490978884207D057480078574965
:1037700008704FF4FA6000F0BFFB00F0C3FB544840
:10378000006820B950480078401C4F49087099E003
:103790004D4800784D490978884203D04A4800785E
:1037A0004A490870FDF7FCF947480078401C464933
:1037B000087087E04448007844490978884205D079
:1037C000414800784149087000F060FE41480078A7
:1037D00020B93D480078401C3B49087072E03A48E7
:1037E00000783A490978884203D037480078374949
:1037F00008703948007820B133480078401C3249BD
:1038000008705FE03048007830490978884203D07A
:103810002D4800782D4908704FF47A7245F6D8117A
:10382000084600F0EDFE30B100F078FB2648007845
:10383000401C2549087045E0234800782349097851
:10384000884205D0204800782049087000F0F0FD3B
:103850001D480078401C1C49087033E01A48007865
:103860001A490978884205D0174800781749087026
:10387000FDF7C8F91520FDF7FDF91848007818493B
:10388000097888420BD01348007818B11548807821
:10389000022804DC0C480078401C0B49087011E039
:1038A0000948007809490978884205D00648007817
:1038B00006490870FFF748FD03480078401C02499C
:1038C000087000BF00BF10BD7D0100207E010020F8
:1038D00080010020370100204C0000206E010020F4
:1038E0006F0100207801002010B55D48007806289F
:1038F00024D2DFE800F0032442557596584800783A
:1039000058490978884208D05548007855490870C8
:10391000FDF778F9002054490870FDF759F952482D
:10392000007801280AD1FDF76DF90021084600F062
:103930001FFE4B480078401C494908708DE04848FC
:10394000007848490978884205D0454800784549BB
:103950000870FDF757F949F288011520FDF764F961
:1039600050B1FDF74FF90021084600F001FE3C4838
:103970000078401C3A4908706FE0394800783949AE
:103980000978884203D036480078364908703748AD
:10399000007820B932480078401C314908705CE05A
:1039A0002F4800782F490978884205D02C480078A4
:1039B0002C490870FDF726F96FF01400FDF75AF94D
:1039C0002B48007801280ADBFDF71CF90021084686
:1039D00000F0CEFD22480078401C214908703CE0F0
:1039E0001F4800781F490978884208D01C48007891
:1039F0001C49087000201C490870FDF703F9FDF709
:103A0000E7F81948007801280AD1FDF7FBF80021F2
:103A1000084600F0ADFD12480078401C10490870BF
:103A20001BE00F4800780F490978884203D00C4802
:103A300000780C4908701520FDF71CF90C48007837
:103A400001280ADBFDF7DEF80021084600F090FDB2
:103A500003480078401C0249087000BF10BD0000F8
:103A6000ED010020EE010020840100204C00002028
:103A70006E01002010B556480078062824D2DFE8F1
:103A800000F003244356769651480078514909784E
:103A9000884208D04E4800784E490870FDF7B2F8C9
:103AA00000204D490870FDF793F84B480078012835
:103AB0000AD1FDF7A7F80021084600F059FD444857
:103AC0000078401C424908707FE041480078414935
:103AD0000978884205D03E4800783E490870FDF7D5
:103AE00091F81520FDF7C6F83C48007802280ADB5B
:103AF000FDF788F80021084600F03AFD34480078C8
:103B0000401C3349087060E0314800783149097839
:103B1000884203D02E4800782E490870304800783B
:103B200020B92B480078401C294908704DE02848EE
:103B3000007828490978884205D025480078254929
:103B40000870FDF75FF86FF01400FDF793F8234855
:103B5000007801280ADBFDF755F80021084600F03F
:103B600007FD1B480078401C194908702DE01848D3
:103B7000007818490978884208D015480078154916
:103B80000870002014490870FDF73CF8FDF720F894
:103B90001148007850B1FDF735F80021084600F0D3
:103BA000E7FC0B480078401C094908700DE0084804
:103BB000007808490978884203D00548007805490B
:103BC00008701520FDF756F800BF00BF10BD0000BB
:103BD000EF010020F0010020840100206E01002090
:103BE0004C00002010B5BD4800780B2825D2DFE836
:103BF00000F00625375485A2B5D3F2F1F000B7489E
:103C00000078B7490978884208D0B4480078B449A8
:103C10000870FCF7F7FF0020B2490870FCF7D8FFE6
:103C2000B0480078012808D10021084600F0A0FC27
:103C3000AA480078401CA94908704CE1A7480078C0
:103C4000A7490978884205D0A4480078A44908709B
:103C500000F0D4FBA1480078401CA04908703AE16C
:103C60009E4800789E490978884205D09B48007894
:103C70009B490870FCF7C6FF1520FCF7FBFF9A482C
:103C80000078012808DB0021084600F071FC934809
:103C90000078401C914908701DE1904800789049D7
:103CA0000978884208D08D4800788D490870002036
:103CB0008C490870FCF7A6FF8C49087900EBD0719D
:103CC0004910A0EB410129B10120FDF7DFF885493A
:103CD000087005E04FF0FF30FDF7D8F88149087013
:103CE00080480078012808D10021084600F040FCF7
:103CF0007A480078401C79490870ECE077480078F1
:103D000077490978884205D074480078744908706A
:103D1000FCF778FF1520FCF7ADFF73480078012809
:103D200008DB0021084600F023FC6C480078401CAA
:103D30006A490870CFE06948007869490978884283
:103D400003D066480078664908706948007820B951
:103D500062480078401C61490870BCE05F48007808
:103D60005F490978884205D05C4800785C49087052
:103D7000FCF748FF6FF01400FCF77CFF5A4800780E
:103D8000012808DB0021084600F0F2FB53480078C8
:103D9000401C524908709EE050480078504909780C
:103DA000884208D04D4800784D49087000204D49A0
:103DB0000870FCF727FF4D49087900EBD0714910D6
:103DC000A0EB410141B10120FDF760F845490870C1
:103DD00008E063E031E013E04FF0FF30FDF756F804
:103DE000404908703F480078012808D10021084662
:103DF00000F0BEFB39480078401C384908706AE082
:103E00003648007836490978884205D0334800782A
:103E100033490870FCF7F6FE1520FCF72BFF3248FB
:103E20000078012808DB0021084600F0A1FB2B48A0
:103E30000078401C294908704DE02848007828493E
:103E40000978884208D02548007825490870002064
:103E500024490870FCF7D6FE2449087900EBD0719C
:103E60004910A0EB410131B14FF0FF30FDF70EF8E2
:103E70001C49087004E00120FDF708F81949087092
:103E800018480078012808D10021084600F070FB8E
:103E900012480078401C114908701CE00F48007857
:103EA0000F490978884205D00C4800780C49087001
:103EB000FCF7A8FE1520FCF7DDFE0B480078032870
:103EC00008DB0021084600F053FB04480078401C42
:103ED0000249087000BF00BF10BD0000F1010020C2
:103EE000F2010020840100206E01002078010020F2
:103EF0004C0000207047704701490860704700007F
:103F0000800100200448006820B103480068401E7A
:103F100001490860704700008001002010B5034887
:103F200000F0FEFA024800F0FBFA10BD8801002004
:103F3000A801002010B5002208210D48FDF73CFA29
:103F4000002210210A48FDF737FA002220210848F4
:103F5000FDF732FA002240210548FDF72DFA002135
:103F60000448FEF795FC04210248FEF791FC10BDC1
:103F7000000C0140E002002000BFFEE710B5002069
:103F800000F001F810BD70B50646002415E004F1FC
:103F9000B001C8B200F0B4FF002000F0B1FF102063
:103FA00000F0AEFF002504E0304600F0BDFF681CC5
:103FB000C5B2802DF8DB601CC4B2082CE7DB70BDF5
:103FC00010B504462B480460AE2000F099FF202075
:103FD00000F096FF102000F093FFB02000F090FF5B
:103FE000C82000F08DFF002000F08AFF102000F0B4
:103FF00087FF402000F084FF812000F081FFFF2038
:1040000000F07EFFA12000F07BFFA62000F078FFEB
:10401000A82000F075FF3F2000F072FFA42000F000
:104020006FFFD32000F06CFF002000F069FFD52067
:1040300000F066FFF02000F063FFD92000F060FF81
:10404000222000F05DFFDA2000F05AFF122000F07D
:1040500057FFDB2000F054FF202000F051FF8D209F
:1040600000F04EFF142000F04BFFAF2000F048FF9F
:1040700010BD00003001002070B504460D4605F16A
:10408000B001C8B200F03CFF102141EA141000F06A
:1040900037FF04F00F0141F0010000F031FF70BD67
:1040A0002DE9F04707460E46904699460025002424
:1040B000A8F12000C5B27F2F02DD0027B01CC6B2D8
:1040C000B9F1100F22D131463846FFF7D5FF002451
:1040D00007E004EB0511174A505C00F025FF601C57
:1040E000C4B2082CF5DB701CC1B23846FFF7C4FF20
:1040F000002408E004EB051108310E4A505C00F082
:1041000013FF601CC4B2082CF4DB11E031463846C2
:10411000FFF7B2FF002409E005EB4501064A02EB78
:104120004101085D00F000FF601CC4B2062CF3DB07
:10413000BDE8F08750580008285600082DE9FF4FC9
:1041400087B0054616469946002400213046FCF704
:10415000F5FA0DD22146621CD4B2062202FB0151AF
:10416000C8B20C232D220899FFF79AFF86F000466B
:104170004FF07E513046FCF7EBFA13D23046FCF795
:1041800096FACDE9000101F029F900224B4BCDE967
:104190000201FCF7B3F8CDE90401FCF76FFA00F077
:1041A000FF0A01E04FF0010AD04652E0A8F10100F9
:1041B000C1B20A2001F018FA0390FCF730FA014668
:1041C00004903046FCF75CF80590FCF73EFAC7B265
:1041D000A8F10100C0B2B0F100081AD107F1300116
:1041E000CAB22146631CDCB2062303FB0151C8B2EC
:1041F0000C230899FFF754FF2146621CD4B2062213
:1042000002FB0151C8B20C232E220899FFF748FF88
:1042100020E04C4502DB0BB0BDE8F08F07F1300128
:10422000CAB22146631CDCB2062303FB0151C8B2AB
:104230000C230899FFF734FF41460A2001F0D4F916
:1042400078430490FCF7EBF931460590FBF7E3FF68
:104250000646ABE700BF3046FCF7F7F90490FCF7E1
:10426000D5F931460590FBF7D6FF834621E0144986
:104270005846FBF7D3FF83460490FCF7E6F930304D
:10428000C0B22146621CD4B2062202FB0151059045
:10429000C8B20C23059A0899FFF702FF5846FCF7AD
:1042A000D4F90490FCF7B2F959460590FBF7B3FF37
:1042B00083464C45DBDB00BFADE700000000F03F6C
:1042C000000020412DE9F0470646894617469A46E8
:1042D0004FF0000800240025BAF1010F03D0BAF115
:1042E000020F5ED125E020E0785D203800F0FF0865
:1042F0007E2E04DD002609F1010000F0FF09494689
:104300003046FFF7B9FE002409E008EB4801264AD1
:1043100002EB4101085D00F007FE601CC4B2062CF0
:10432000F3DBB01DC6B2681CC5B2785D0028DBD1D6
:1043300037E032E0785D203800F0FF08782E04DDA9
:10434000002609F1010000F0FF0949463046FFF759
:1043500093FE002407E004EB0811144A505C00F0BF
:10436000E3FD601CC4B2082CF5DB09F10100C1B209
:104370003046FFF781FE002408E004EB0811083105
:104380000A4A505C00F0D0FD601CC4B2082CF4DB7B
:1043900006F10800C6B2681CC5B2785D0028C9D114
:1043A00000BF00BFBDE8F08728560008505800083D
:1043B0002DE9F04106460D46174601232A463146AF
:1043C0000020FFF77FFF002400E0641C285D002828
:1043D000FBD104EB44014906080E01233A22314681
:1043E000FFF75EFE611C01EB41014906080E062342
:1043F0003A463146FFF7A2FEBDE8F08110B5084805
:104400008078103007490870FF2301220648FEF724
:104410000BFD012205490448FEF7ACFC10BD00006D
:1044200078010020370100202803002070030020BD
:1044300010B50748807807490870FF230122064815
:10444000FEF7F2FC012205490348FEF793FC10BD7C
:10445000780100203701002028030020700300208D
:1044600010B5092006490870FF2301220548FEF710
:10447000DBFC012204490348FEF77CFC10BD000070
:1044800037010020280300207003002010B5FFF73B
:10449000E7FF10BD2DE9F84F04460E46174666614A
:1044A00039466069FBF7B4FE054629462069FBF7EB
:1044B0005DFE20612846E168FBF7AAFE8346A168FD
:1044C000FBF7ACFE814621696068FBF7A7FE8346D7
:1044D00029462068FBF7A2FE59460090FBF746FEEE
:1044E00082464946FBF742FE8046E5604046E16968
:1044F000FCF724F901D2D4F81C804046A169FCF7EE
:1045000027F901D2D4F818804046BDE8F88F70B57D
:1045100004460D462A4620466169FFF7BBFF70BD81
:104520000021C160016170470021C1600161024941
:1045300081610249C161704700401C4600401CC6B1
:104540007047000008B508490968C9084FF47A7235
:10455000B1FBF2F14143009100BF00BF00994A1E38
:1045600000920029F9D108BD0C000020704700001E
:1045700070B505460C46002D0DDD0122D1031D4806
:10458000FCF71AFF002208211B48FCF715FF1B4807
:10459000006845630EE000224FF400411548FCF727
:1045A0000BFF012208211448FCF706FF684213495B
:1045B00009684863002C0DDD012210210E48FCF72C
:1045C000FBFE002220210C48FCF7F6FE0B48006899
:1045D00084630DE0002210210748FCF7EDFE012264
:1045E00020210548FCF7E8FE604204490968886319
:1045F00070BD000000080140000C0140E0020020F6
:104600002DE9F04704460D46164694FBF6F00FFAE6
:1046100080F995FBF6F00FFA80FA284800682849DF
:10462000B1F9001008442549086026480068264969
:10463000B1F90010084423490860204A1168002994
:1046400001DB0A4600E04A42201E01DB034600E08F
:104650004342D21A17B21B4A1168002901DB0A46ED
:1046600000E04A42281E01DB034600E04342D21A22
:104670000FFA82F8002F10DDB8F1000F0DDDFFF703
:104680004DFC00200D4908600E49086000210846D5
:10469000FFF76EFF0120BDE8F087B8F1000F01DDE4
:1046A000002200E052461146002F01DD002200E00A
:1046B0004A46104600F00AF80020ECE7E40100202A
:1046C00014000020E8010020160000202DE9F04130
:1046D00005460C461948B0F90000FBF797FF07465E
:1046E0002846FBF793FF80463A4641461448FFF7B9
:1046F000D1FE0646FBF7A9FF00B212490880124816
:10470000B0F90000FBF782FF07462046FBF77EFF6B
:1047100080463A4641460D48FFF7BCFE0646FBF789
:1047200094FF00B20A4908800846B0F90010054815
:10473000B0F90000FFF71CFFBDE8F0811400002075
:1047400088010020C801002016000020A8010020D8
:10475000CA01002010B5FDF711F810BD00B58FB0EB
:10476000282105A8FBF7F7FC14216846FBF7F3FCAA
:104770000120059000040690002007900120099078
:1047800002200C90C1030D914FF4E0110E9105A889
:10479000FDF7EAF908B1FCF717FA0F2000900220A4
:1047A0000190002002904FF480600390002004905C
:1047B00002216846FDF7B4F808B1FCF705FA0FB01E
:1047C00000BD704710B50248FDF7B3FE10BD0000F4
:1047D0005002002010B50248FDF7ABFE10BD0000EE
:1047E0009802002010B50248FDF7A3FE10BD00009E
:1047F000E002002010B50268184B984208D0B0F1D2
:10480000804F05D0164B984202D0164B984203D1E8
:1048100022F070024B681A43104B984208D0B0F156
:10482000804F05D00E4B984202D00E4B984203D1D8
:1048300022F44072CB681A4322F080034C6943EAA9
:10484000040202608B68C3620B688362034B984268
:1048500001D10B6903630123436110BD002C0140AA
:10486000000400400008004030B501F01F0501249D
:1048700004FA05F3046A9C430462046A01F01F050C
:1048800002FA05F52C43046230BD30B50C46816850
:1048900021F47F4142EA032525432943816030BD4D
:1048A0000A46816821F0700142F0070319438160D4
:1048B0007047000030B5026A056A25F001050562FF
:1048C0004368846924F0700424F003040D682C43C9
:1048D00022F002028D682A430D4DA84206D100BF86
:1048E00022F00802CD682A4322F00402084DA842B3
:1048F00007D123F4807323F400734D692B438D6932
:104900002B43436084614D684563026230BD000003
:10491000002C014030B5026A056A25F010050562D9
:104920004368846924F4E04424F440740D6844EA44
:10493000052422F020028D6842EA05120E4DA8429D
:1049400007D100BF22F08002CD6842EA051222F0B2
:104950004002094DA84209D123F4806323F4006387
:104960004D6943EA85038D6943EA850343608461A9
:104970004D688563026230BD002C014030B5026A8B
:10498000056A25F4807505624368C46924F07004E3
:1049900024F003040D682C4322F400728D6842EA6F
:1049A00005220F4DA84207D100BF22F40062CD6856
:1049B00042EA052222F48062094DA84209D123F47B
:1049C000805323F400534D6943EA05138D6943EA8C
:1049D00005134360C4614D68C563026230BD0000C9
:1049E000002C014030B5036A056A25F48055056244
:1049F0004468C26922F4E04222F440720D6842EA3F
:104A0000052223F400538D6843EA0533064DA8427E
:104A100004D124F480444D6944EA85144460C261A1
:104A20004D680564036230BD002C014030B50B4673
:104A30001446026A056A25F001050562816921F0C4
:104A4000F00141EA041122F00A021A438161026274
:104A500030BD30B50B461446026A056A25F01005D4
:104A60000562816921F4704141EA043122F0A0021B
:104A700042EA03128161026230BD000010B50E48A7
:104A80004078062816D2DFE800F00306090C0F1262
:104A9000FEF75AFE0EE0FEF727FF0BE0FEF7EAFFF7
:104AA00008E0FFF79FF805E0FFF724FA02E0FFF7C0
:104AB00022FA00BF00BF10BD780100200020064987
:104AC00008700649087006494870064908700120B8
:104AD0000549087070470000840100207F01002014
:104AE000780100207D0100207E01002010B50446E1
:104AF00034B94FF47A7209494842FFF781FD10BD7D
:104B000042F22832624311B2624242F228335A43DF
:104B100010B24FF4FA72FFF773FDF0E710AAFFFF2F
:104B200070B505466C6A0020E085E0842046FDF7FC
:104B300025FF70BD00BF00BF02680C3252E8002F95
:104B400022F4907102680C3242E80013002BF3D17A
:104B500000BF00BF00BF0268143252E8002F22F0ED
:104B600001010268143242E80013002BF3D100BFA8
:104B7000016B01290ED100BF00BF02680C3252E860
:104B8000002F22F0100102680C3242E80013002BC3
:104B9000F3D100BF202180F842100021016370474B
:104BA00010B504462068C06820F040002168C86045
:104BB000202084F841002046FEF78FF9002010BD28
:104BC000F8B5044694F84200222875D1A068B0F5E3
:104BD000805F0CD1206950B90025A66A2068406822
:104BE000C0F308003080A06A801CA06215E0A56AAE
:104BF0000026A068B0F5805F03D0A06828B92069BE
:104C000018B920684068287004E02068406800F007
:104C10007F002870A06A401CA062E08D401E80B218
:104C2000E085002846D12068C06820F02000216877
:104C3000C8602068C06820F480702168C86020685F
:104C4000406920F0010021684861202084F842007A
:104C500000206063206B012826D10020206300BF64
:104C600000BF21680C3151E8001F21F010002168BD
:104C70000C3141E80002002AF3D100BF206800682F
:104C800000F0100010280AD100BF0020009020681A
:104C90000068009020684068009000BF00BFA18DB0
:104CA0002046FDF76AFE02E02046FEF779F8002074
:104CB000F8BD01E00020FBE70220F9E770B50446EB
:104CC0002168096921F44051E268114322681161A9
:104CD0002269A1681143626941EA02052168C96835
:104CE00041F20C62914329432268D16021684969ED
:104CF00021F44071A2691143226851612D4A216853
:104D0000914202D1FCF7E8FE01E0FCF7D5FE00EB92
:104D1000C00101EB001162689200B1FBF2F100EBFF
:104D2000C00202EB001263689B00B2FBF3F2642343
:104D3000B2FBF3F202EBC20303EB0212A1EB82011E
:104D4000322202EB01116422B1FBF2F101F0F00119
:104D500000EBC00202EB001263689B00B2FBF3F2AF
:104D60006423B2FBF3F201EB021200EBC00101EB92
:104D7000001163689B00B1FBF3F100EBC00303EB90
:104D800000136668B600B3FBF6F36426B3FBF6F3D4
:104D900003EBC30606EB0313A1EB8301322303EB02
:104DA00001116423B1FBF3F101F00F0111442268FA
:104DB000916070BD0038014010B5034699629A8534
:104DC000DA8500205864222083F84200186928B14F
:104DD0001868C06840F480701C68E060186840691A
:104DE00040F001001C6860611868C06840F0200055
:104DF0001C68E060002010BD014691F841002128A8
:104E000028D18868B0F5805F0BD1086948B90A6A73
:104E10001088C0F308000B685860086A801C08629C
:104E200005E00B6A581C086218780B685860C88C3B
:104E3000401E80B2C88458B90868C06820F080005D
:104E40000B68D8600868C06840F040000B68D86004
:104E5000002070470220FCE72DE9F04104460D4692
:104E600017469846069E34E0701C88B32EB1FCF7B6
:104E7000A9FAA0EB0800B0422BD900BF00BF2168FF
:104E80000C3151E8001F21F4D07021680C3141E849
:104E90000002002AF3D100BF00BF00BF2168143117
:104EA00051E8001F21F001002168143141E800029F
:104EB000002AF3D100BF202084F8410084F842008A
:104EC00000BF002084F8400000BF0320BDE8F0814F
:104ED000FFE7206800682840A84201D1012000E0D7
:104EE0000020B842C0D00020F0E7000010B5024812
:104EF000FDF746FD10BD00002803002000BFFEE7BF
:104F000001B584B06420012104AA0B46CDE900213B
:104F100002900022782103480068FCF741FB05B0AD
:104F200000BD00003001002001B584B064200121E3
:104F300004AA0B46CDE900210290402278210348C3
:104F40000068FCF72DFB05B000BD0000300100201B
:104F500002480068C0F30220704700000CED00E03A
:104F600010B5002804DB0A07130E054A135406E0A7
:104F70000A07140E034A00F00F031B1FD45410BD80
:104F800000E400E018ED00E02DE9F0414F1E00EBD9
:104F9000C7010446D1E9000115461E4637F0060256
:104FA0000DD02A463346FBF750FA7F1E04EBC703A9
:104FB000D3E90023FBF7A2F937F00602F1D1022F63
:104FC00025D0042F13D0062F18BFBDE8F0812A4644
:104FD0003346FBF73AFAD4E90A23FBF78FF92A465E
:104FE0003346FBF732FAD4E90823FBF787F92A4660
:104FF0003346FBF72AFAD4E90623FBF77FF92A4662
:105000003346FBF722FAD4E90423FBF777F92A4663
:105010003346FBF71AFAD4E90223FBF76FF92A4665
:105020003346FBF712FAD4E90023BDE8F041FBF761
:1050300065B900000022134610460149FBF777BA14
:105040000000F03F0122FBF742BC0022134610464D
:105050001146FBF76CBA02E008C8121F08C1002A0B
:10506000FAD170477047002001E001C1121F002AE9
:10507000FBD170470149086070470000F80100202B
:105080002DE9F04DC84A002490B0914205DA21F094
:105090000043934201D805D120B110B0BDE8F04DD6
:1050A000FFF7D0BFB1F5801F1BDA53EA000209D029
:1050B000002911DA0120FFF7DDFF10B0BDE8F04D47
:1050C000FFF7C3BF0220FFF7D5FFFFF7B3FF10B014
:1050D00081F00041BDE8F08D6FF035043622FBF71A
:1050E000F6FB04EB2152C1F31308B049A2F2FF33DF
:1050F000414401F4801282F07F6103EB225281F07F
:105100004051009241EA08010022A94BFBF797F9B0
:10511000044608F10200A74EC0F313000D467E447A
:10512000032867D2D6E900232046FBF7D3FA1ED125
:105130000098002802BFD6E9000110B0BDE8F08D4C
:10514000FBF772FA07460C469B4A9C4BFBF77DF92E
:1051500006460D469A4A9B4B38462146FBF775F9A1
:1051600010B032462B46BDE8F04DFBF7C7B84FF004
:105170005532954B20462946FBF767F90022934BA1
:10518000FBF760F906460F4622462B4610461946A5
:10519000FBF75BF932463B46FBF757F906460098AA
:1051A0000F46F0B1FBF740FA80468A46824A834BAD
:1051B000FBF74BF932463B46FBF744F922462B46B8
:1051C000FBF73DF905460C467D4A7E4B404651466D
:1051D000FBF73BF910B02A462346BDE8F04DFBF73C
:1051E0002EB90B4610B0324620462946BDE8F04D98
:1051F000FBF725B900224FF080432046FBF77EF8ED
:1052000002460B4620462946FBF791F906460F4613
:105210000098FBF709FACDE9040132463B461046F7
:105220003946FBF712F90C9069480C9A40440190FA
:1052300009910B461046FBF708F98246024665487D
:105240008B46C8F151080B4608F5D728032178444E
:10525000FFF79AFE52465B46FBF7F7F80A905E4866
:105260000D9152465B4604217844FFF78DFE099B61
:105270000C9AFBF7EAF8844601980D9B40EA08086F
:1052800060460A9AFBF73AF883460891B8F1000F96
:105290004EDD4FF0FF3220462946FBF718FB224631
:1052A0002B46FBF7D2F8804600988A4660B3DDE9CA
:1052B0000401414A414BFBF7C8F8099100905A4656
:1052C00040465146089BFBF719F832463B46FBF730
:1052D000BCF8099B009AFBF711F842465346FBF7CE
:1052E000B1F822462B46FBF7AAF804460D46DDE945
:1052F0000401334A334BFBF7A8F810B022462B4683
:10530000BDE8F04DFBF79BB85A464046089BFAF7BC
:10531000F5FF32463B46FBF798F842465346FBF70B
:1053200091F810B022462B46BDE8F04DFBF78AB845
:10533000009840B3DDE904011F4A204BFBF785F8D4
:1053400080468A465A4620462946089BFBF777F84E
:1053500032463B46FBF779F842465346FBF76FF877
:1053600022462B46FBF76BF804460D46DDE90401A7
:10537000134A144BFBF769F810B022462B46BDE8E0
:10538000F04DFBF75CB80B465A4620462946FBF722
:1053900056F832463B46FBF758F810B022462B46EB
:1053A000BDE8F04DFBF74EB80000F07F645F0900E8
:1053B0000000F03F560D0000763C7935EF39EA3DAC
:1053C0000000E0FE422EE63F5555D53F0000E03F8D
:1053D00086EBF9FFEE0B0000EC0B00002DE9F0412D
:1053E000044630480025814205DA21F0004282421D
:1053F00001D805D124B12046BDE8F041FFF722BE17
:10540000B1F5801F1BDA52EA040008D000290FDA38
:105410000120FFF72FFEBDE8F041FFF716BE022086
:10542000FFF728FEFFF706FE81F00041BDE8F0819E
:105430006FF0350536222046FBF749FA044605EBA6
:105440002150A0F2FF32D00F40F2FF331B1A0D465D
:1054500063F31F551044FBF7E7F806460F4629464D
:105460002046FFF70DFE104A104BFAF7EEFF0446F8
:105470000D460F4A0F4B30463946FAF7E6FF2246F3
:105480002B46FAF73BFF05460C460B4A0B4B3046C2
:105490003946FAF7DAFF2A462346BDE8F041FAF723
:1054A0002DBF00000000F07F0EE526157BCBDB3F13
:1054B000362BF111F3FE593D00609F501344D33F4A
:1054C000FCF768F9FFF74AF9FDF78EFFFEF712F9CE
:1054D000FEF73CF8FEF776F8FEF7B2F8FEF718F89C
:1054E0004FF47A70FBF7BCFDFBF79EFA47E02448C7
:1054F0000078FBF794F80446224622A10020FEF72C
:1055000057FF22480078FBF78AF80446224620A17C
:105510000120FEF74DFF20494878FBF780F804464C
:1055200022461EA10220FEF743FF2048B0F90000EA
:10553000FBF76CF8044622461DA10420FEF738FF55
:105540001D48B0F90000FBF761F8044622461BA194
:105550000520FEF72DFF1B480078FBF760F8044696
:10556000224619A10620FEF723FF1A490878FBF707
:1055700056F80446224618A10720FEF719FFB6E7A1
:105580007D0100207374616765300000ED0100202B
:105590007374616765310000780100206D69737371
:1055A000696F6E5F6E756D6265720000C8010020E4
:1055B0004C6F757470757400CA010020526F757459
:1055C000707574006E0100206C696E655F636F75A5
:1055D0006E740000700300206F70656E6D765F72F0
:1055E000786275666665720010B50246012000E0BB
:1055F00050430B1EA1F10104E1B2F9D110BD020329
:105600000405060708090A0B0C0D0E0F1010010205
:105610000000000000000000010203040607080962
:105620000000000001020304000000000000000070
:10563000002F000000000700070000147F147F14F3
:1056400000242A7F2A120062640813230036495579
:10565000225000000503000000001C224100000051
:1056600041221C000014083E08140008083E0808E7
:10567000000000A060000008080808080000606042
:105680000000002010080402003E5149453E000081
:10569000427F4000004261514946002141454B3163
:1056A000001814127F10002745454539003C4A492F
:1056B00049300001710905030036494949360006A1
:1056C0004949291E00003636000000005636000009
:1056D0000008142241000014141414140000412284
:1056E000140800020151090600324959513E007C5C
:1056F0001211127C007F49494936003E4141412246
:10570000007F4141221C007F49494941007F09092E
:105710000901003E4149497A007F0808087F0000DE
:10572000417F4100002040413F01007F0814224199
:10573000007F40404040007F020C027F007F040851
:10574000107F003E4141413E007F09090906003EAD
:105750004151215E007F09192946004649494931D6
:105760000001017F0101003F4040403F001F2040F9
:10577000201F003F4038403F0063140814630007B7
:105780000870080700615149454300007F4141000E
:1057900000552A552A55000041417F0000040201AE
:1057A000020400404040404000000102040000208C
:1057B00054545478007F48444438003844444420CA
:1057C00000384444487F00385454541800087E0977
:1057D00001020018A4A4A47C007F0804047800003F
:1057E000447D4000004080847D00007F10284400FC
:1057F0000000417F4000007C04180478007C08040D
:10580000047800384444443800FC24242418001848
:10581000242418FC007C0804040800485454542034
:1058200000043F444020003C4040207C001C2040BD
:10583000201C003C4030403C004428102844001C00
:10584000A0A0A07C004464544C44141414141414F8
:105850000000000000000000000000000000000048
:10586000000000F8000000000000003330000000DD
:1058700000100C06100C06000000000000000000E4
:1058800040C07840C0784000043F04043F04040056
:10589000007088FC08300000001820FF211E000066
:1058A000F008F000E018000000211C031E211E007B
:1058B00000F00888700000001E2123241927211001
:1058C00010160E00000000000000000000000000A4
:1058D000000000E01804020000000007182040004B
:1058E00000020418E000000000402018070000003B
:1058F000404080F0804040000202010F010202009F
:10590000000000F0000000000101011F0101010082
:10591000000000000000000080B0700000000000E7
:105920000000000000000000000101010101010170
:105930000000000000000000003030000000000007
:1059400000000000806018040060180601000000DC
:1059500000E010080810E000000F102020100F00D9
:10596000001010F8000000000020203F2020000060
:1059700000700808088870000030282422213000B8
:1059800000300888884830000018202020110E00C0
:105990000000C02010F8000000070424243F240069
:1059A00000F80888880808000019212020110E003E
:1059B00000E0108888180000000F112020110E0050
:1059C00000380808C83808000000003F0000000048
:1059D0000070880808887000001C222121221C0009
:1059E00000E010080810E0000000312222110F0032
:1059F000000000C0C00000000000003030000000C7
:105A00000000008000000000000080600000000036
:105A1000000080402010080000010204081020004F
:105A2000404040404040400004040404040404009A
:105A3000000810204080000000201008040201002F
:105A4000007048080808F00000000030360100002F
:105A5000C030C828E810E0000718272423140B00E2
:105A60000000C038E0000000203C2302022738205C
:105A700008F8888888700000203F202020110E0040
:105A8000C030080808083800071820202010080037
:105A900008F808080810E000203F202020100F0020
:105AA00008F88888E8081000203F202023201800EC
:105AB00008F88888E8081000203F20000300000054
:105AC000C03008080838000007182020221E0200F5
:105AD00008F808000008F808203F210101213F20B4
