:020000040800F2
:100000009007002005010008CD3E0008812E000861
:10001000E9360008C3090008094E00080000000086
:10002000000000000000000000000000F144000893
:10003000ED0A000800000000C54400080D46000855
:100040001F0100081F0100081F0100081F01000810
:100050001F0100081F0100081F0100081F01000800
:100060001F0100081F0100081F0100081F010008F0
:100070001F0100081F0100081F0100081F010008E0
:100080001F0100081F0100081F0100081F010008D0
:100090001F0100081F0100081F0100081F010008C0
:1000A0001F0100081F0100081F0100081F010008B0
:1000B0007D4600088D4600089D4600081F01000887
:1000C0001F0100081F0100081F0100081F01000890
:1000D0001F010008F94D00081F0100081F0100085A
:1000E0001F0100081F0100081F010008DFF810D0E1
:1000F00000F02AFC00480047CD530008AFF3008011
:10010000900700200648804706480047FEE7FEE7C4
:10011000FEE7FEE7FEE7FEE7FEE7FEE7FEE7FEE7B7
:100120007B460008ED000008202A04DB203A21FA73
:1001300002F00021704721FA02F3D040C2F1200200
:100140009140084319467047D2B201E000F8012BF4
:10015000491EFBD270470022F6E710B513460A4647
:1001600004461946FFF7F0FF204610BDF0B480EAC0
:100170000102D40F4200B2EB410F02D20246084600
:1001800011464A0042D0C30DDDB2C1F3C752AD1AC9
:10019000202D35DAC1F3160141F4000204B15242B8
:1001A000C5F1200602FA06F12A411044B3EBD05FF4
:1001B00023D0C4B1012DA0EBC35009DCF0BC4FF03B
:1001C000004202EAC352DBB200F5000000F01ABBA5
:1001D000400000F1807000EBC350A0F1807040EA55
:1001E000D170490009E0490841EAC071A0EBC35051
:1001F00000F50000400800EBC350F0BC00F0F9BA75
:100200006142012202EB4101001BF6E7F0BC70479E
:1002100081F00041AAE780F00040A7E780EA0102F0
:1002200010B502F00043400022D04A001FD0010E5A
:1002300001EB1261C0F35600C2F3560240F4000015
:1002400042F40002A0FB022000047F39140400D015
:10025000401C50EA124001D44000491EC2B20C06B4
:1002600004EBD010401C4008802A02D003E000209C
:1002700010BD20F00100002900DA0020184310BD55
:1002800030B480EA010202F0004530F0004221F073
:10029000004013D090B1C30DD40DC2F31601C0F3CA
:1002A0001600E41A41F4000140F400027D3491424A
:1002B00001D3641C00E04900002C02DA30BC0020AD
:1002C00070474FF400000023914201D3891A034381
:1002D00040084FEA4101F7D151B1914202D14FF0AC
:1002E000004105E002D24FF0010101E06FF0010191
:1002F00003EBC450284430BC00F07BBA2DE9FE4F1C
:10030000804681EA0300C00F0C46009021F00041B6
:1003100023F00045B8EB0200A94105D24046214632
:1003200090461C460B46024623F00040104347D03F
:10033000270DC7F30A00C3F30A510290401A019037
:1003400040286BDAC3F3130040F4801B00989246F8
:1003500020B10023D2EB030A63EB0B0B0198594643
:10036000C0F14002504600F023FA06460D465046C2
:100370005946019A00F02BFA10EB08006141002465
:1003800087EA115284EAE7731A4340D0009A62B3B5
:10039000019A012A4FEA075215DC001B61EB0201AA
:1003A0004FF0004202EA0752CDE90042001C41F53D
:1003B000801132462B4600F062FA03B0BDE8F08FA0
:1003C00040462146F9E7001B61EB0201001C41F5A4
:1003D000801300185B412018A2F5001747EB0301BA
:1003E00040EAD570B6196D4111E06D084FEA360646
:1003F00045EAC0754FEA0752001B61EB0201001C81
:1004000041F5801149084FEA300000195141324648
:100410002B4603B0BDE8F04F00F022BA009801224D
:1004200040000023D0EB020263EBE073009821460A
:100430004FEAE074B8EB000061EB0401E9E783F0F8
:1004400000435BE781F0004158E72DE9FE4F81EA68
:10045000030404F0004421F0004100944FF0000B2D
:1004600023F0004350EA01045ED052EA03045BD05B
:10047000C3F30A54C1F30A552C44A4F2F334019493
:10048000A0FB0254C1F3130141F48011C3F3130321
:1004900043F4801301FB024400FB034E840A970AD5
:1004A00044EA815447EA8357A4FB076802958D0A02
:1004B00005FB07854FEA932C04FB0C542705029D8E
:1004C0004FEA065847EA1637B5EB08056EEB070CFE
:1004D000870E920E47EA811742EA8312A7FB0201B8
:1004E000B6EB0B0164EB00042B0D43EA0C335E18F2
:1004F00044EB1C50DA465146E7FB0201C5F31304F6
:100500004FEA0B3343EA14534FEA0432019C43EAA7
:100510000603A4F10C040294009CCDE900B400F0A1
:10052000AEF903B0BDE8F08F00200146F9E72DE9F0
:10053000F04D81EA030404F0004B21F0004514461D
:100540004FF0000A23F0004150EA050220D054EA9F
:1005500001021DD0C5F30A570246C5F31303C1F3C8
:100560001300C1F30A5640F4801543F48013A7EB3F
:100570000608101BD64608F2FD3873EB050002D3BF
:1005800008F1010801E092185B41B8F1000F03DAAD
:1005900000200146BDE8F08D00204FF48011064692
:1005A00084460EE0171B73EB050705D3121B63EBA4
:1005B000050306434CEA010C49084FEA3000921843
:1005C0005B4150EA0107EDD152EA030012D082EA02
:1005D000040083EA0501084305D0101BAB4106D295
:1005E0000122002306E000224FF0004302E06FF0FA
:1005F000010253101AEB06004CEB085110EB0A00F5
:1006000041EB0B01BDE8F04D00F02AB9C10F80EAC3
:10061000E0700844CA079623002100F0F3B896233F
:100620000022114600F0EEB830B4044696230800CC
:10063000214604D0B62330BC002200F0E3B82046A7
:100640000021F8E70EB5C10F80EAE0700844CA0740
:10065000002140F233438DE80E000A460B4600F0BD
:100660000EF903B000BD00F0004220F00040C10DC3
:10067000C0F3160040F400007F2901DA0020704723
:10068000962903DCC1F19601C84001E09639884003
:10069000002AF4D040427047C1F30A5210B5C1F3AA
:1006A000130140F2FF3341F480119A4201DA002035
:1006B00010BD40F233439A42A2F2334203DC52426D
:1006C000FFF732FD10BD904010BD00F0004230F049
:1006D00000400AD0C10D01F56071C0F3160042EA76
:1006E0000151C2084007114370470020014670477E
:1006F00030B5041E71F1000404DB4FF000444042A9
:1007000064EB0101141E73F1000405DB1C464FF07D
:100710000043524263EB04038B4208BF824230BD68
:1007200030B5041E71F1000404DB4FF00044404278
:1007300064EB0101141E73F1000405DB1C464FF04D
:100740000043524263EB0403994208BF904230BD1C
:1007500001F0004330B421F0004150EA010206D01C
:100760000A0DA2F56072C1F31301002A02DC30BC4D
:1007700000207047440F44EAC104C100E01830BCB7
:1007800000EBC25000F035B8002801DBC0F100409A
:10079000002901DBC1F1004181427047002801DBE3
:1007A000C0F10040002901DBC1F1004188427047DF
:1007B000202A04DB203A00FA02F100207047914021
:1007C000C2F1200320FA03F3194390407047202A16
:1007D00006DBCB17203A41FA02F043EAE07306E069
:1007E00041FA02F3D040C2F1200291400843194679
:1007F00070470029A8BF7047401C490008BF20F07F
:100800000100704710B4B0FA80FC00FA0CF050EA16
:10081000010404BF10BC704749B1CCF1200421FA97
:1008200004F411FA0CF118BF012121430843A3EB92
:100830000C01CB1D4FEA00614FEA102042BF00209F
:1008400010BC704700EBC35010440029A4BF10BC7B
:100850007047401C490008BF20F0010010BC7047E1
:1008600010B5141E73F1000408DA401C41F10001B8
:1008700092185B411A4301D120F0010010BD2DE90F
:10088000F04D92469B4611B1B1FA81F202E0B0FA06
:1008900080F220329046FFF78BFF04460F4640EA75
:1008A0000A0041EA0B0153465A46084313D0114649
:1008B00053EA010019D0C8F140025046FFF734FC5A
:1008C00005460E46504659464246FFF771FF08431B
:1008D00005D0012004E020463946BDE8F08D002017
:1008E000054346EAE0762C4337430A986305E40A59
:1008F000A0EB08000022FD0A44EA47540A3002D562
:1009000000200146E9E7010510196941DDE90845C4
:1009100000196941BDE8F04DA2E770B521F0004330
:1009200003430CD0C1F30A550024D5EB040564EB56
:100930000403D617AD1AB34102DB0020014670BD97
:10094000201841EB025170BD064C074D06E0E068EF
:1009500040F0010394E8070098471034AC42F6D306
:10096000FFF7C8FB205D0008405D000870B58C18DB
:1009700010F8015B15F0070301D110F8013B2A11B3
:1009800006D110F8012B03E010F8016B01F8016BA0
:100990005B1EF9D12B0705D40023521E0DD401F89C
:1009A000013BFAE710F8013BCB1A921C03E013F865
:1009B000015B01F8015B521EF9D5A142D8D300209A
:1009C00070BD00BFFEE7000010B52548007824493F
:1009D000487024480078234948701021224800F0CC
:1009E000C1FC1F49087008211F4800F0BBFC1D49CD
:1009F00008701B48407830B91948007818B10020B9
:100A00001A49087008E01748407828B91548007856
:100A100010B10120154908701448007898B914489D
:100A2000D0E90020521C40F100001149C1E900202A
:100A300000F05EF800F02CFA02F030FC02F048FE04
:100A400003F078FF0AE000F053F800F021FA0021EB
:100A5000084603F04FFD012002F0E6FB10BD000048
:100A60004101002043010020000801404001002016
:100A70004801002010B500F00BFA00F091F802F0E8
:100A800077FC03F001FA114803F00BFD104803F066
:100A900008FD104803F03EFA03F01AFA02F014FCC5
:100AA00003F068FF00F0D6F901200B4908700B48ED
:100AB00001F01EFB00200A4948700870094948707F
:100AC0000870094908700120087010BD84010020D9
:100AD000A4010020F0010020DF010020D40200204A
:100AE0004301002041010020400100207047000028
:100AF00022480068406A00B2214908802148006805
:100B0000406A404200B2204908801C480068406AA0
:100B10001E49B1F90010012202FB001000B21B496E
:100B2000088018480068406A1949B1F90010921EFF
:100B300002FB001000B21649088000200F49096826
:100B4000486210490968486212480088401C00B297
:100B500010490880092810DD002008800B48B0F9F2
:100B600000000D4908800A48B0F900000B490880D0
:100B70000020064908800649088070478C02002042
:100B80001000002044020020120000201A00002063
:100B90001C00002018000020140000201600002077
:100BA00010B500200B4908800B4908800B490880CC
:100BB0000B4908800B4908800B4908800B490880C5
:100BC0003C210B4801F02CFC3C210A4801F028FC98
:100BD00010BD0000160000201400002012000020AC
:100BE000100000201C0000201A0000201800002027
:100BF0008C0200204402002010B54FF4005106483A
:100C000000F0B0FB012802D10449087002E0022084
:100C10000249087010BD0000000C01407401002062
:100C200072B600BFFEE7000010B50B49C87800EBB4
:100C3000D0714910A0EB410131B10121084603F008
:100C4000B1FE0649087005E00121084603F0AAFE3E
:100C50000249087010BD00007401002080010020CE
:100C600000200549087008460078044908700020F3
:100C700003490870704700006E0100206F010020DA
:100C8000700100202DE9F05F834600F001F9FFF7C5
:100C90002FFF00205E4908605E4908605E480078CA
:100CA0005D49497808445D4908705B4880785A4935
:100CB000C97808445A4908705A480078B8B3574868
:100CC0000078002813DD55480078FFF7A8FC04469B
:100CD00051494978504A1278032303FB0210FFF769
:100CE00095FC05462146FFF7CBFA494908604C4878
:100CF0000078002813DD4A480078FFF790FC04468E
:100D000045498978444AD278032303FB0210FFF750
:100D10007DFC05462146FFF7B3FA3E4908603C4892
:100D200001683C480068FFF773FA3F4908603E4895
:100D30000068FFF7CAFC21F00041064600223B4B49
:100D4000FFF77DFB21F000418046394A394BFFF720
:100D5000CFFC09D234480068FFF7B7FC0646364A94
:100D6000364BFFF772FB01E0002001460446FFF717
:100D7000EFFC82465146324803F08AFB3149086055
:100D80005846FFF743FC07462E4801683846FFF7F0
:100D9000EDF90646FFF767FC04B25846FFF736FC4C
:100DA0000746284801683846FFF732FA0646FFF73B
:100DB0005AFC05B22146284603F0E4FB19480078A6
:100DC00004280AD12048007838B901201E4908704B
:100DD0001E480078401C1D4908701B4800780128F7
:100DE00006D110480078042802D000201649087067
:100DF0001648007816490978884206D013480078CA
:100E0000134908700120BDE8F09F0020FBE70000B7
:100E10006401002068010020200000206C010020F7
:100E20006D010020270000205C0100200000084028
:100E300048AFBC9AF2D77A3E48E17A14AE47F53F04
:100E40007003002060010020700100206E0100206E
:100E50006F01002010B50A4803F028FB0020084964
:100E600048614FF07C500860002048608860054968
:100E70000870054908700549087000F04BF810BD6E
:100E8000700300206E0100206F010020700100201F
:100E900010B500201949087019490870002416E09F
:100EA000184A32F81410184A52F8240000F05AFA7E
:100EB000012800D100E00020144908550846005DD3
:100EC000A0400E49097808440C490870641C062C9F
:100ED000E6DB002407E00D48005D09490978084475
:100EE00007490870641C042CF5DB084800790749A1
:100EF000497908440649087010BD0000260000200A
:100F000027000020440000202C00002020000020AA
:100F10002800002070470146002291F82100022895
:100F200008D00420886300BF002081F8200000BFA3
:100F3000012070470868006820F00E000B681860F8
:100F40000868006820F001000B68186091F84030D4
:100F500001209840CB6B5860012081F8210000BF30
:100F6000002081F8200000BF1046E2E770B504467B
:100F7000002594F82100022803D00420A063012555
:100F800048E02068006820F00E00216808602068B2
:100F9000006820F00100216808601F49206888422D
:100FA00001D1012026E01C4914312068884201D17A
:100FB00010201FE0184928312068884201D180158F
:100FC00018E015493C312068884201D1801411E0B5
:100FD000114950312068884202D14FF4803009E035
:100FE0000D4964312068884202D14FF4801001E03D
:100FF0004FF08070084908394860012084F82100CA
:1010000000BF002084F8200000BF606B10B12046B4
:10101000616B8847284670BD0800024070B50446E1
:1010200000F0AEF906462546681C10B10448007869
:10103000054400BF00F0A4F9801BA842FAD370BD9C
:10104000080000202DE9F8470346002294466EE18F
:101050004FF0010808FA02F4D1F8008008EA040011
:10106000A0427DD1DFF8DCA2D1F80480A8EB0A0908
:10107000D0453AD014DCB8F1030F50D009DCB8F1F8
:10108000000F31D0B8F1010F1CD0B8F1020F49D1D7
:1010900020E0B8F1110F18D0B8F1120F42D11EE0C4
:1010A000B9F5881F25D006DCB9F5803F20D0B9F509
:1010B000801F37D11AE0B9F5001F18D0B9F5041F09
:1010C00030D117E0D1F80CC02DE0D1F80C8008F138
:1010D000040C28E0D1F80C8008F1080C23E0D1F8CA
:1010E0000C8008F10C0C1EE000BF00BF00BF00BF69
:1010F00000BF00BFD1F80880B8F1000F02D14FF057
:10110000040C0BE0D1F80880B8F1010F03D14FF0C7
:10111000080C1C6102E04FF0080C5C6103E04FF02A
:10112000000C00E000BF00BFFF2801D8984601E096
:1011300003F104084646FF2802D84FEA820803E07C
:10114000A2F108084FEA88084746D6F800804FF019
:101150000F0909FA07F928EA09080CFA07F900E06B
:1011600088E048EA0908C6F80080D1F8048008F051
:101170008058B8F1805F7DD100BFDFF8CC81D8F80E
:10118000188048F00108DFF8C091C9F81880C846F7
:10119000D8F8188008F00108CDF8008000BF00BF23
:1011A0004FEAB9384FEA920958F829504FEA827845
:1011B0004FEA18794FF00F0808FA09F825EA0805F0
:1011C000DFF88881434502D14FF0000816E0DFF8D0
:1011D0008081434502D14FF001080FE0DFF87481B0
:1011E000434502D14FF0020808E0DFF86C81434527
:1011F00002D14FF0030801E04FF004084FEA827972
:101200004FEA197908FA09F848EA0505DFF84C8130
:101210004FEA920948F82950D1F8048008F4801860
:10122000B8F5801F0AD1DFF83881D8F8008048EA85
:101230000008DFF82C91C9F8008009E0DFF8208170
:10124000D8F8008028EA0008DFF81491C9F8008077
:10125000D1F8048008F40018B8F5001F10D1DFF8A9
:10126000008108F10408D8F8008048EA0008DFF897
:10127000F09000E05AE009F10409C9F800800DE09F
:10128000DFF8DC8008F10408D8F8008028EA0008BC
:10129000DFF8CC9009F10409C9F80080D1F8048086
:1012A00008F40038B8F5003F0ED1DFF8B480A8F19B
:1012B0000408D8F8008048EA0008DFF8A490A9F1F3
:1012C0000409C9F800800DE0DFF89480A8F1040853
:1012D000D8F8008028EA0008DFF88490A9F1040912
:1012E000C9F80080D1F8048008F48038B8F5803F50
:1012F0000ED1DFF86C80A8F10808D8F8008048EA21
:101300000008DFF85C90A9F10809C9F800800DE039
:10131000DFF84C80A8F10808D8F8008028EA000817
:10132000DFF83C90A9F10809C9F80080521CD1F8F7
:10133000008028FA02F8B8F1000F7FF489AEBDE80A
:10134000F887000000001110001002400008014062
:10135000000C014000100140001401400800014051
:1013600008040140024693680B400BB1012000E0E5
:10137000002070470AB1016101E00B04036170476E
:1013800001480068704700000000002070B5044666
:101390000CB9012070BD94F83D0028B9002084F8F4
:1013A0003C00204600F08CF9242084F83D002068A1
:1013B000006820F00100216808602068006840F49F
:1013C0000040216808602068006820F4004021681F
:1013D000086000F04FFB05465C496068884206D80B
:1013E0005B48854201D2012007E0002005E0594812
:1013F000854201D2012000E00020012800D1C9E788
:101400005548B5FBF0F62068406820F03F003043B7
:10141000216848604D496068884201D8701C07E027
:101420004FF4967070434FF47A71B0FBF1F0401CAA
:101430002168096A21F03F01084321680862434995
:101440006068884214D8681E61684900B0FBF1F0FA
:10145000401CC0F30B00042801D204203DE0681EAC
:1014600061684900B0FBF1F0401CC0F30B0034E0B0
:10147000A06838B9681E616801EB4101B0FBF1F06A
:10148000401C0AE0681E616801EBC10202EB011119
:10149000B0FBF1F0401C40F48040C0F30B0008B9F1
:1014A00001201AE0A06848B9681E616801EB41019B
:1014B000B0FBF1F0401CC0F30B000CE0681E61684B
:1014C00001EBC10202EB0111B0FBF1F0401CC0F3D3
:1014D0000B0040F4804040F400402168C9694CF69C
:1014E000FF72914308432168C861D4E907010843AA
:1014F0002168096821F0C001084321680860D4E927
:10150000031008432168896848F2FF329143084379
:1015100021688860D4E9050108432168C96821F081
:10152000FF0108432168C8602068006840F001009E
:101530002168086000202064202084F83D000020FD
:10154000206384F83E0000BF24E70000A08601006D
:1015500080841E0000093D0040420F002DE9FC5F21
:1015600004460F4690469946DDE90CAB0E9EFFF708
:1015700007FF054694F83D0020287DD1192301225C
:101580004D492046009501F040FD10B10220BDE814
:10159000FC9F00BF94F83C00012801D10220F6E72F
:1015A000012084F83C0000BF2068006800F00100C2
:1015B00028B92068006840F00100216808602068B0
:1015C000006820F4006021680860212084F83D0054
:1015D000402084F83E0000202064C4F824A0A4F831
:1015E0002AB0608D20853548E0624B464246394638
:1015F0002046CDE9006501F065FC08B10120C6E791
:1016000031E02A463146204601F0DBFD50B1206C26
:10161000042805D12068006840F400702168086043
:101620000120B4E7606A007821680861606A401CA4
:101630006062208D401E2085608D401E6085206880
:101640004069C0F3800070B1208D60B1606A00789D
:1016500021680861606A401C6062208D401E208500
:10166000608D401E6085208D0028CAD12A463146F3
:10167000204601F097FC00E01CE050B1206C0428EB
:1016800005D12068006840F40070216808600120DE
:101690007DE72068006840F4007021680860202021
:1016A00084F83D00002084F83E0000BF84F83C0030
:1016B00000BF6CE702206AE7020010000000FFFF95
:1016C00010B586B004460020029003900490059067
:1016D00016492068884226D100BF1548806940F02D
:1016E0000800134988610846806900F008000190ED
:1016F00000BF00BF4FF4406002901220039003200F
:10170000059002A90B48FFF79DFC00BF0848C0697F
:1017100040F480000649C8610846C06900F48000B2
:10172000019000BF00BF06B010BD0000005800408F
:1017300000100240000C014003480068034909788A
:10174000084401490860704700000020080000209C
:1017500010B50848006840F01000064908600320F2
:1017600000F0A8F80F2000F007F800F02BF8002098
:1017700010BD00000020024070B504460E480078FD
:101780004FF47A71B1FBF0F00C490968B1FBF0F548
:10179000284600F0F9FB08B1012070BD102C07D2DB
:1017A00000222146501E00F047F80548046001E081
:1017B0000120F2E70020F0E7080000200C000020E4
:1017C0000400002008B500BF1148806940F0010006
:1017D0000F4988610846806900F00100009000BF51
:1017E00000BF00BF0846C06940F08050C86108468D
:1017F000C06900F08050009000BF00BF00BF0549E5
:10180000486820F0E06040F00070486000BF08BD0C
:10181000001002400000014001460846002809DB94
:1018200000F01F0301229A4043099B0003F1E023CB
:10183000C3F8002100BF70472DE9F05F80460D46D8
:101840001646002703F00AFB074639462A46334668
:1018500001F00700C0F1070ABAF1040F02D94FF0F6
:10186000040A01E0C0F1070AD14600F1040ABAF106
:10187000070F02D24FF0000A01E0A0F1030AD4469C
:101880004FF0010A0AFA09FAAAF1010A0AEA020A61
:101890000AFA0CFA4FF0010B0BFA0CFBABF1010B3F
:1018A0000BEA030B4AEA0B042146404603F0DEFA3A
:1018B000BDE8F09F00BF00F00702064B19684FF625
:1018C000FF031940044B0B4343EA0221014B19600B
:1018D00000BF70470CED00E00000FA0570B504464B
:1018E0000D460CB9012070BD5A48006800F0070091
:1018F000A8420ED25748006820F0070028435549F7
:1019000008600846006800F00700A84201D00120E6
:10191000E9E7207800F0020002281DD1207800F0CD
:101920000400042805D14C48406840F4E0604A496E
:101930004860207800F00800082805D14648406833
:1019400040F46050444948604348406820F0F0004B
:10195000A168084340494860207800F0010078B34E
:101960006068012806D13C48006800F4003090B956
:101970000120B8E76068022806D13748006800F007
:10198000007040B90120AEE73348006800F0020063
:1019900008B90120A7E73048406820F003006168DB
:1019A00008432D494860FFF7EBFC064609E0FFF7C6
:1019B000E7FC801B41F28831884202D9032092E77C
:1019C00007E02548406800F00C006168B0EB810F2B
:1019D000EDD12048006800F00700A8420ED91D484C
:1019E000006820F0070028431A490860084600688C
:1019F00000F00700A84201D0012074E7207800F031
:101A00000400042807D11448406820F4E060E1682D
:101A1000084311494860207800F00800082808D1E0
:101A20000D48406820F46050216940EAC1000A492D
:101A3000486000F03FF808494968C1F30311074ABC
:101A4000515CC8400649086006480068FFF794FEEC
:101A5000002048E70020024000100240B054000877
:101A60000C000020040000200148006870470000BE
:101A70000C00002000B5FFF7F7FF04494968C1F3E7
:101A80000221034A515CC84000BD00000010024022
:101A9000C054000800B5FFF7E7FF04494968C1F3E7
:101AA000C221034A515CC84000BD00000010024042
:101AB000C054000870B5002100220024002300203B
:101AC000134D696801F00C05F5B1042D02D0082D05
:101AD00019D101E00F4819E00F4DC1F38346AB5D0A
:101AE00001F4803555B10A4D6D68C5F340450B4E84
:101AF000725D084D5D43B5FBF2F402E0084D03FB57
:101B000005F4204602E000BF024800BF00BF70BDE0
:101B10000010024000127A009E540008AE540008E3
:101B200000093D00F8B504460CB90120F8BD207845
:101B300000F00100002878D0F848406800F00C0060
:101B400004280CD0F548406800F00C00082811D19A
:101B5000F248406800F48030B0F5803F0AD1EF4889
:101B6000006800F4003000285FD0606800285CD175
:101B70000120DBE700BF6068B0F5803F06D1E74891
:101B8000006840F48030E549086028E0606858B992
:101B9000E248006820F48030E049086008460068A8
:101BA00020F4802008601AE06068B0F5A02F0BD107
:101BB000DA48006840F48020D84908600846006888
:101BC00040F4803008600AE0D448006820F4803097
:101BD000D24908600846006820F48020086000BFF1
:101BE000606888B1FFF7CCFB054606E0FFF7C8FB4D
:101BF000401B642801D9032098E7C848006800F416
:101C000000300028F2D010E0FFF7BAFB054606E0EE
:101C1000FFF7B6FB401B642801D9032086E7BF48C5
:101C2000006800F400300028F2D1207800F00200B3
:101C3000022857D1B948406800F00C0050B1B748AD
:101C4000406800F00C00082818D1B448406800F43F
:101C5000803098B9B148006800F0020020B12069D6
:101C6000012801D0012061E7AC48006820F0F800AD
:101C7000616940EAC100A949086033E02069E8B120
:101C80000120A7490860FFF77BFB054606E0FFF748
:101C900077FB401B022801D9032047E79F480068D3
:101CA00000F002000028F2D09C48006820F0F80004
:101CB000616940EAC1009949086013E00020984931
:101CC0000860FFF75DFB054606E0FFF759FB401B88
:101CD000022801D9032029E79048006800F002009B
:101CE0000028F2D1207800F0080008282DD1A06942
:101CF000B8B101208B490860FFF742FB054606E0BA
:101D0000FFF73EFB401B022801D903200EE7834862
:101D1000406A00F002000028F2D0012002F0D4FB5B
:101D200013E000207F490860FFF72AFB054606E024
:101D3000FFF726FB401B022801D90320F6E677486F
:101D4000406A00F002000028F2D1207800F0040080
:101D5000042873D100277148C06900F0805070B921
:101D600000BF6E48C06940F080506C49C8610846A9
:101D7000C06900F08050009000BF00BF01276A4892
:101D8000006800F48070B0B96748006840F4807063
:101D900065490860FFF7F4FA054606E0FFF7F0FA38
:101DA000401B642801D90320C0E65F48006800F4A6
:101DB00080700028F2D000BFE068012806D15748A3
:101DC000006A40F001005549086227E0E06858B910
:101DD0005248006A20F00100504908620846006A33
:101DE00020F00400086219E0E06805280BD14B4898
:101DF000006A40F00400494908620846006A40F061
:101E0000010008620AE04548006A20F001004349E9
:101E100008620846006A20F00400086200BFE0681B
:101E2000A0B1FFF7ADFA054609E0FFF7A9FA401B9C
:101E300041F28831884202D9032077E622E0374810
:101E4000006A00F002000028EFD012E0FFF798FAD5
:101E5000054608E0FFF794FA401B41F288318842BA
:101E600001D9032062E62D48006A00F00200002834
:101E7000F0D1012F05D12948C06920F080502749B1
:101E8000C86100BFE069C8B32448406800F00C0096
:101E9000082860D0E069022848D10020204908665F
:101EA000FFF76EFA054606E0FFF76AFA401B0228C4
:101EB00001D903203AE61948006800F000700028B4
:101EC000F2D1206AB0F5803F07D11448406820F471
:101ED0000030A168084311494860D4E9080108436B
:101EE0000E49496821F4741108430C4948600120E7
:101EF0000B490866FFF744FA054607E03DE0FFF7A7
:101F00003FFA401B022801D903200FE6034800686E
:101F100000F000700028F2D02FE000000010024016
:101F200000004242800442420070004000201449F8
:101F30000866FFF725FA054606E0FFF721FA401B81
:101F4000022801D90320F1E50E48006800F0007076
:101F50000028F2D111E0E069012800D1E6E5094846
:101F6000466806F48031206A814204D106F470117B
:101F7000606A814201D00120D8E50020D6E500004A
:101F8000000042420010024070B504462546681E1B
:101F9000B0F1807F01D301200FE0681E4FF0E021F7
:101FA00048610F214FF0FF3002F060FF00204FF03A
:101FB000E021886107200861002070BD70477047EC
:101FC00030B502460B4600BF92F83C00012801D113
:101FD000022030BD012082F83C0000BF022082F8C0
:101FE0003D00106844681068816824F07004186827
:101FF000044310684460104D1068A8420BD010686C
:10200000B0F1804F07D00D4D1068A84203D00C4DA1
:102010001068A84205D121F080015868014310687A
:102020008160012082F83D0000BF002082F83C0062
:1020300000BF00BFCDE70000002C014000040040BD
:102040000008004010B504460CB9012010BD94F8FA
:102050003D0028B9002084F83C00204600F026F816
:10206000022084F83D00211D206802F01FFB0120A2
:1020700084F8460000BF84F83E0001213F2001554E
:10208000402001554120015500BF00BF012084F8C8
:10209000420043200155442001554520015500BF11
:1020A000012084F83D000020D0E7000038B5044648
:1020B0000D492068884215D100BF0C48C06940F026
:1020C00004000A49C8610846C06900F00400009095
:1020D00000BF00BF002211461E20FFF7ADFB1E20EF
:1020E000FFF79AFB38BD00000008004000100240D6
:1020F000014691F83D00012801D0012070470220DF
:1021000081F83D000868C06840F001000B68D860A5
:10211000124B086898420BD00868B0F1804F07D086
:102120000F4B0868984203D00E4B086898420CD1B8
:102130000868806800F00702062A0CD0086800686A
:1021400040F001000B68186005E00868006840F086
:1021500001000B6818600020D0E70000002C01404F
:1021600000040040000800402DE9F04104460D46FF
:10217000002700BF94F83C00012802D10220BDE8EE
:10218000F081012084F83C0000BF022084F83D006B
:102190002068866826F0770626F47F4620688660E9
:1021A0002868502833D00CDC202850D004DC0028CC
:1021B0004BD0102851D149E0302849D040284CD18B
:1021C00039E060282DD0702807D0B0F5805F03D0AB
:1021D000B0F5005F41D10DE041E0D5E902136A6836
:1021E000206802F0AEFA2068866846F0770620681C
:1021F000866034E0D5E902136A68206802F0A1FA2B
:102200002068806840F480402168886027E0EA68A0
:102210006968206802F066FB5021206802F09CFA91
:102220001DE0EA686968206802F06FFB60212068A1
:1022300002F092FA13E0EA686968206802F052FB43
:102240004021206802F088FA09E000BF00BF00BF0B
:102250002968206802F080FA01E0012700BF00BF72
:10226000012084F83D0000BF002084F83C0000BF3E
:10227000384684E72DE9F04104460D4614B90120A3
:10228000BDE8F08194F83D0028B9002084F83C00B6
:10229000204600F051F8022084F83D002068806854
:1022A00044F20701884321688860211D206802F0FC
:1022B000FDF92068D0F80880206886692068076AE0
:1022C000286840EA080840F203308643A969A868F4
:1022D00040EA0120064340F60C4086434FF2F000EE
:1022E0008643E969E86840EA01200643286900015D
:1022F000296A40EA0130064327F0220769696868C5
:1023000040EA011007432068C0F808802068866111
:1023100020680762012084F8460084F83E0001210D
:102320003F200155012084F842004320015501203F
:1023300084F83D000020A3E710B586B004460020D5
:1023400002900390049005902068B0F1804F2DD149
:1023500000BF3048C06940F001002E49C8610846FE
:10236000C06900F00100019000BF00BF00BF084637
:10237000806940F0040088610846806900F004002C
:10238000019000BF00BF03200290002003900120B5
:10239000049002A92048FEF755FE002211461C2099
:1023A000FFF74AFA1C20FFF737FA30E01B49206894
:1023B00088422CD100BF1748C06940F0020015497F
:1023C000C8610846C06900F00200019000BF00BF6C
:1023D00000BF0846806940F00400886108468069B3
:1023E00000F00400019000BF00BFC0200290002058
:1023F00003900120049002A90748FEF723FE002263
:1024000011461D20FFF718FA1D20FFF705FA06B048
:1024100010BD000000100240000801400004004010
:102420002DE9F04304460D4694F83E603F20075DD9
:1024300094F84280432010F804906DB9012E02D127
:10244000B8F1010F02D00120BDE8F083022084F82A
:102450003E0084F8420025E0042D0CD1012F02D16A
:10246000B9F1010F01D00120EEE702213F20015513
:102470004320015516E0012E07D1012F05D1B8F1F7
:10248000010F02D1B9F1010F01D00120DCE70220D8
:1024900084F83E0002213F200155022084F84200CA
:1024A0004320015515B1042D0CD105E00122002176
:1024B000206802F035F910E001220421206802F0C2
:1024C0002FF90AE001220021206802F029F90122F7
:1024D0000421206802F024F900BF00BF20680068D2
:1024E00040F00100216808600020ADE7704710B59A
:1024F000044620680069C0F34000D8B12068C06875
:10250000C0F34000B0B16FF0020021680861012003
:1025100020772068806900F0030018B12046FFF79B
:10252000E5FF05E0204600F0D9F8204600F08DF9DF
:102530000020207720680069C0F38000D8B12068AF
:10254000C068C0F38000B0B16FF00400216808617A
:10255000022020772068806900F4407018B120467E
:10256000FFF7C4FF05E0204600F0B8F8204600F071
:102570006CF90020207720680069C0F3C000D8B152
:102580002068C068C0F3C000B0B16FF008002168D7
:102590000861042020772068C06900F0030018B1AA
:1025A0002046FFF7A3FF05E0204600F097F82046FD
:1025B00000F04BF90020207720680069C0F300107C
:1025C000D8B12068C068C0F30010B0B16FF010003F
:1025D00021680861082020772068C06900F44070F5
:1025E00018B12046FFF782FF05E0204600F076F89C
:1025F000204600F02AF9002020772068006900F0CA
:10260000010058B12068C06800F0010030B16FF0DF
:10261000010021680861204600F082F92068006905
:10262000C0F3C01058B12068C068C0F3C01030B10A
:102630006FF08000216808612046FFF7BFFC20682A
:102640000069C0F3801058B12068C068C0F38010E2
:1026500030B16FF0400021680861204600F06AF94F
:1026600020680069C0F3401058B12068C068C0F30A
:10267000401030B16FF02000216808612046FFF75C
:102680009EFC10BD10B586B0044600200290039059
:10269000049005900E492068884216D100BF0D486D
:1026A000806940F008000B4988610846806900F0A5
:1026B0000800019000BF00BFC020029002200390DC
:1026C000059002A90448FEF7BDFC06B010BD00004D
:1026D0000008004000100240000C014070472DE946
:1026E000F04104460D461646002700BF94F83C0012
:1026F000012802D10220BDE8F081012084F83C00CD
:1027000000BF36B1042E1BD0082E31D00C2E5ED166
:1027100045E02946206802F029F82068806940F0E9
:102720000800216888612068806920F00400216821
:10273000886120688069296908432168886148E0C8
:102740002946206802F042F82068806940F4006061
:10275000216888612068806920F480602168886130
:1027600020688069296940EA01202168886130E099
:102770002946206802F05EF82068C06940F0080031
:102780002168C8612068C06920F004002168C86120
:102790002068C069296908432168C86119E0294691
:1027A000206802F07BF82068C06940F4006021686E
:1027B000C8612068C06920F480602168C861206811
:1027C000C069296940EA01202168C86101E0012748
:1027D00000BF00BF00BF002084F83C0000BF3846A7
:1027E00089E710B504460CB9012010BD94F83D00EE
:1027F00028B9002084F83C00204600F025F802208B
:1028000084F83D00211D206801F050FF012084F86C
:10281000460000BF84F83E0001213F2001554020C2
:1028200001554120015500BF00BF012084F842003E
:1028300043200155442001554520015500BF01208A
:1028400084F83D000020D0E77047704770B504461B
:102850000D4615B994F83E000BE0042D02D13F203F
:10286000005D06E0082D02D14020005D01E041201E
:10287000005D012801D0012070BD1DB9022084F83F
:102880003E000EE0042D03D102213F20015508E057
:10289000082D03D102214020015502E002214120F0
:1028A000015501222946206801F03AFF19492068A4
:1028B000884201D1012000E0002028B12068406C4E
:1028C00040F40040216848641249206888420BD0D7
:1028D0002068B0F1804F07D00F492068884203D0AC
:1028E0000E49206888420CD12068806800F00706F5
:1028F000062E0CD02068006840F0010021680860B6
:1029000005E02068006840F00100216808600020B0
:10291000B2E70000002C0140000400400008004025
:1029200010B504460248844201D1FEF74DF810BDAF
:10293000D402002070477047704700002DE9F84F1F
:102940000446206805682068C668206847694FF01B
:102950000009CA4605F00F09B9F1000F0AD105F0C8
:10296000200038B106F0200020B1204602F0AEF879
:10297000BDE8F88FB9F1000F7BD007F0010018B95E
:1029800006F49070002874D005F0010030B106F410
:10299000807018B1606C40F00100606405F00400C4
:1029A00030B107F0010018B1606C40F002006064C3
:1029B00005F0020030B107F0010018B1606C40F082
:1029C0000400606405F0080048B106F0200010B96A
:1029D00007F0010018B1606C40F008006064606CA2
:1029E000002845D005F0200028B106F0200010B1E5
:1029F000204602F06BF820684069C0F3801A606CD2
:102A000000F0080010B9BAF1000F2CD0204602F0F7
:102A100017F82068406900F0400000B300BF00BF15
:102A20002168143151E8001F21F040002168143161
:102A300041E80002002AF3D100BFE06B50B17748B3
:102A4000E16B4863E06BFEF791FA88B1E06B416B94
:102A500088470DE02046FFF76FFF09E009E02046B8
:102A6000FFF76AFF04E02046FFF766FF002060647E
:102A70007EE7206B012877D105F01000002873D085
:102A800006F010000028FAD000BF00200090206857
:102A90000068009020684068009000BF00BF206878
:102AA000406900F0400000285FD0E06B006840689B
:102AB0001FFA80F8B8F1000F55D0A08D404552DDC7
:102AC000A4F82E80E06B8069202843D000BF00BFAF
:102AD00021680C3151E8001F21F4807021680C310D
:102AE00041E80002002AF3D100BF00BF00BF216807
:102AF000143151E8001F21F001002168143141E830
:102B00000002002AF3D100BF00BF00BF21681431CA
:102B100051E8001F21F040002168143141E8000213
:102B2000002AF3D100BF202084F842000020206357
:102B300000BF00BF21680C3151E8001F21F01000D8
:102B400021680C3141E80002002AF3D100BFE06B9C
:102B5000FEF7E1F902206063A08DE28D801A81B258
:102B60002046FFF7E8FE03E742E0A08DE18D401A22
:102B70001FFA80F8E08DD0B3B8F1000F37D000BF56
:102B800000BF21680C3151E8001F21F490702168CA
:102B90000C3141E80002002AF3D100BF00BF00BFA2
:102BA0002168143151E8001F21F00100216814311F
:102BB00041E80002002AF3D100BF202084F842003F
:102BC0000020206300BF00BF21680C3151E8001FC6
:102BD00021F0100021680C3141E80002002AF3D1F5
:102BE00000BF0220606341462046FFF7A4FEBFE617
:102BF00005F0800030B106F0800018B1204602F0E8
:102C000081F8B5E605F0400030B106F0400018B19B
:102C1000204601F04BFFABE600BFA9E62D4A0008B5
:102C200010B504460CB9012010BDA06900B100E048
:102C300000BF94F8410028B9002084F840002046E5
:102C400000F02AF8242084F841002068C06820F4AD
:102C500000502168C860204601F0B6FF2068006976
:102C600020F49040216808612068406920F02A0023
:102C7000216848612068C06840F400502168C8603D
:102C800000206064202084F8410084F84200002085
:102C9000606300BFC8E7000010B586B0044600209E
:102CA00002900390049005901E492068884236D116
:102CB00000BF1D48806940F480401B498861084678
:102CC000806900F48040019000BF00BF00BF08464B
:102CD000806940F0040088610846806900F00400C3
:102CE000019000BF00BF481502900220039003200E
:102CF000059002A90D48FEF7A5F94FF480600290F7
:102D000000200390049002A90848FEF79BF90022D6
:102D100011462520FEF790FD2520FEF77DFD06B02B
:102D200010BD0000003801400010024000080140C2
:102D300070B504460D46164694F8420020280BD183
:102D400005B10EB9012070BD00202063324629462E
:102D5000204601F0B7FFF6E70220F4E71749884262
:102D60002AD117490978092907D116490978164A3D
:102D700091700021124A11701EE011490978002952
:102D80000BDD0F490978092907DA0E4909780E4A3F
:102D9000D17000210A4A11700EE009490978102902
:102DA0000ADD07490978192906DA06490978064A29
:102DB00011710021024A1170704700001C030020AD
:102DC0003B01002064030020740100202DE9F84F2E
:102DD00004460E46174699464FF0000A94F8410003
:102DE00020284AD106B117B90120BDE8F88F00208C
:102DF0006064212084F84100FEF7C2FA8246A7846D
:102E0000E784A068B0F5805F04D1206910B900257F
:102E1000B04602E035464FF000081BE05346002262
:102E200080212046CDF8009001F09CFF08B10320DE
:102E3000DBE745B9B8F80000C0F308002168486036
:102E400008F1020803E02878216848606D1CE08CD6
:102E5000401EE084E08C0028E0D15346002240214F
:102E60002046CDF8009001F07DFF08B10320BCE7BB
:102E7000202084F841000020B7E70220B5E7704722
:102E800000BFFEE7014608684069C0F38020B0B18A
:102E90006FF480600A68506100200863202081F888
:102EA0003D00002081F83E00086C40F004000864FA
:102EB00000BF002081F83C0000BF012070470020C7
:102EC000FCE700002DE9F84304468846154699467C
:102ED000DDE908672068006840F4807021680860B8
:102EE000334600224FF001112046009700F08DF884
:102EF00060B12068006800F48070B0F5807F02D176
:102F00004FF4007020640320BDE8F88308F0FE0051
:102F1000216808613B4632462149204600F0D4F83A
:102F200008B10120F0E700BF002000902068406950
:102F3000009020688069009000BF00BF3A4631468B
:102F4000204600F03EF950B1206C042805D12068DD
:102F5000006840F40070216808600120D4E7B9F1EE
:102F6000010F03D1E8B22168086117E0C5F307201B
:102F7000216808613A463146204600F022F950B1F6
:102F8000206C042805D12068006840F40070216896
:102F900008600120B8E7E8B2216808610020B3E7C3
:102FA0000200010070B504460D46164625E0204695
:102FB000FFF768FF08B1012070BD681CE8B1FEF79B
:102FC000DFF9801BA84200D8BDB920684069C0F372
:102FD000800090B900202063202084F83D0000206C
:102FE00084F83E00206C40F02000206400BF0020E8
:102FF00084F83C0000BF0120DEE720684069C0F390
:1030000080000028D3D00020D6E72DE9F041044607
:103010000D4617461E46DDF8188038E0701CA8B330
:10302000FEF7AEF9A0EB0800B04200D876BBC5F3BE
:10303000074001280AD120684069A9B20840A9B216
:10304000884201D101200BE0002009E0206880695E
:10305000A9B20840A9B2884201D1012000E00020B5
:10306000B84214D100202063202084F83D000020C5
:1030700084F83E00206C40F02000206400BF002057
:1030800084F83C0000BF0120BDE8F081FFE7C5F3F4
:10309000074001280AD120684069A9B20840A9B2B6
:1030A000884201D101200BE0002009E020688069FE
:1030B000A9B20840A9B2884201D1012000E0002055
:1030C000B842ABD00020DFE72DE9F04104460D46C1
:1030D00016461F4658E020684069C0F38020E8B1DA
:1030E0002068006840F40070216808606FF4806018
:1030F0002168486100202063202084F83D000020E2
:1031000084F83E00206C40F00400206400BF0020E2
:1031100084F83C0000BF0120BDE8F081701C90B332
:10312000FEF72EF9C01BB04200D866BBC5F30740BE
:1031300001280AD120684069A9B20840A9B2884292
:1031400001D101200BE0002009E020688069A9B2CC
:103150000840A9B2884201D1012000E0002090B9C6
:1031600000202063202084F83D00002084F83E00E9
:10317000206C40F02000206400BF002084F83C0058
:1031800000BF0120C8E7FFE7C5F3074001280AD1C7
:1031900020684069A9B20840A9B2884201D1012043
:1031A0000BE0002009E020688069A9B20840A9B2BC
:1031B000884201D1012000E0002000288BD00020AF
:1031C000AAE770B504460D46164625E02046FFF7EF
:1031D00059FE08B1012070BD681CE8B1FEF7D0F8B7
:1031E000801BA84200D8BDB920684069C0F3C01058
:1031F00090B900202063202084F83D00002084F84E
:103200003E00206C40F02000206400BF002084F8C5
:103210003C0000BF0120DEE720684069C0F3C01019
:103220000028D3D00020D6E710B504468CB1012C7D
:1032300004D0022C18D0032C2CD120E00022012134
:103240001548FEF797F8012202211348FEF792F87D
:1032500020E0012211461048FEF78CF800220221DE
:103260000D48FEF787F815E0002201210A48FEF715
:1032700081F8002202210848FEF77CF80AE00122CA
:1032800002210548FEF776F8012211460248FEF7B2
:1032900071F800BF00BF10BD000C014010B5074819
:1032A00002784FF400510648FEF764F84FF480515D
:1032B0000348FEF757F80349087010BD3801002095
:1032C000000C01403901002010B5FFF7E7FF054869
:1032D0000078012802D10449087002E00020024968
:1032E000087010BD390100203A010020194800780B
:1032F00001281CD117484078022806DC0020164916
:10330000087001201349487022E014480078022810
:1033100006D100201249087002200E49487017E0BB
:1033200000201049087003200A49487010E00B483B
:103330000078022806D100200B49087004200549B6
:10334000487005E0002009490870052001494870CF
:103350007047000074010020E20100206E0100208F
:10336000E4010020E6010020E8010020EA0100203D
:1033700010B5012202210448FDF7FCFF012211468D
:103380000148FDF7F7FF10BD000C014000B585B006
:103390000020019002900390049000BF4148806992
:1033A00040F010003F4988610846806900F0100035
:1033B000009000BF00BF00BF0846806940F02000B9
:1033C00088610846806900F02000009000BF00BFBF
:1033D00000BF0846806940F00400886108468069A3
:1033E00000F00400009000BF00BF00BF08468069E5
:1033F00040F0080088610846806900F008000090ED
:1034000000BF00BF00224FF400512748FDF7B2FF74
:10341000002242F23F012548FDF7ACFF00224FF4A5
:1034200000412348FDF7A6FF4FF400500190012012
:103430000290002003900320049001A91A48FDF790
:1034400001FE41F61C10019000200290039001A99A
:103450001748FDF7F7FD42F23F000190012002906E
:10346000002003900320049001A91048FDF7EAFD15
:103470004FF45140019000200290039001A90B48A5
:10348000FDF7E0FD4FF40040019001200290002084
:1034900003900320049001A90548FDF7D3FD05B072
:1034A00000BD00000010024000100140000C01406F
:1034B0000008014010B50B480B4908600B484860F4
:1034C000002109488160C1604FF480410161002101
:1034D00041618161C1610162FDF758FF08B1FDF7EB
:1034E0009FFB10BD00580040F0010020A0860100A5
:1034F00000B58BB0242102A8FCF72DFE002000901F
:1035000001904FF08040174908600020486000217A
:10351000144881604FF6FF71C16000210161816133
:1035200003200290002003900120049000200590C9
:103530000690079001200890002009900A9002A9A7
:103540000848FEF797FE08B1FDF76AFB00200090DF
:10355000019069460348FEF733FD08B1FDF760FBB3
:103560000BB000BD4402002000B58BB0242102A89E
:10357000FCF7F1FD00200090019018481849086000
:10358000002048600021164881604FF6FF71C1603D
:10359000002101618161032002900020039001203D
:1035A00004900020059006900790012008900020CC
:1035B00009900A9002A90A48FEF75CFE08B1FDF7DF
:1035C0002FFB00200090019069460548FEF7F8FCAB
:1035D00008B1FDF725FB0BB000BD00000004004062
:1035E0008C02002000B58DB0002009900A900B904D
:1035F0000C90079008901C216846FCF7ACFD24480D
:10360000244908604720486000212248816040F238
:10361000E731C160002101618161FEF713FD08B14E
:10362000FDF7FEFA4FF48050099009A91948FEF7FA
:103630009BFD08B1FDF7F4FA1648FFF7D2F808B180
:10364000FDF7EEFA00200790089007A91148FEF751
:10365000B7FC08B1FDF7E4FA60200090002001906B
:1036600002900490002269460A48FFF738F808B132
:10367000FDF7D6FA042269460648FFF730F808B18C
:10368000FDF7CEFA0348FEF7FDFF0DB000BD0000C8
:1036900000080040D402002010B50B480B49086018
:1036A0004FF4E1304860002108488160C160016149
:1036B0000C21416100218161C161FFF7B1FA08B1BC
:1036C000FDF7AEFA10BD0000003801401C030020D9
:1036D00010B504210248FDF745FE0249087010BDEF
:1036E000000801405000002000BFFEE710B551481F
:1036F000007807281DD2DFE800F0041D2F44576929
:1037000089004C4800784C490978884207D04948DC
:103710000078494908704FF4FA6000F0A3FB00F00C
:10372000A7FB4648006820B942480078401C414940
:1037300008707DE03F4800783F490978884203D00F
:103740003C4800783C490870FDF756FA3948007843
:10375000401C384908706BE03648007836490978D3
:10376000884205D0334800783349087000F038FEAD
:103770003348007820B92F480078401C2D49087044
:1037800056E02C4800782C490978884203D0294813
:103790000078294908702B48007820B12548007826
:1037A000401C2449087043E02248007822490978E7
:1037B000884205D01F4800781F49087000F0E2FDDC
:1037C0001C480078401C1B49087031E019480078FB
:1037D00019490978884205D01648007816490870BA
:1037E000FDF73EFA1520FDF74DFA17480078174906
:1037F0000978884209D01248007830B9FDF730FACC
:103800000C480078401C0B49087011E0094800780A
:1038100009490978884205D00648007806490870A9
:10382000FFF764FD03480078401C0249087000BFA0
:1038300000BF10BD790100207A0100207C0100202A
:103840003B010020500000206E0100206F0100208D
:1038500010B55D480078062824D2DFE800F0032484
:10386000435676975848007858490978884208D0D6
:103870005548007855490870FDF7F2F90020544981
:103880000870FDF7D1F95248007801280AD1FDF7F8
:10389000E7F90021084600F02DFE4B480078401C57
:1038A000494908708EE048480078484909788842BC
:1038B00005D04548007845490870FDF7D1F9152035
:1038C000FDF7E0F94348007801280ADBFDF7C8F965
:1038D0000021084600F00EFE3B480078401C3A49A3
:1038E00008706FE03848007838490978884203D07A
:1038F00035480078354908703748007820B9324893
:103900000078401C304908705CE02F4800782F494F
:103910000978884205D02C4800782C490870FDF7BA
:103920009FF96FF01400FDF7ADF92A4800780128DF
:103930000ADBFDF795F90021084600F0DBFD22487F
:103940000078401C204908703CE01F4800781F495F
:103950000978884208D01C4800781C49087000206B
:103960001B490870FDF77CF9FDF75EF918480078EF
:1039700001280AD1FDF774F90021084600F0BAFDCC
:1039800011480078401C104908701BE00E48007870
:103990000E490978884203D00B4800780B4908701B
:1039A0001520FDF76FF90B48007801280ADBFDF7B9
:1039B00057F90021084600F09DFD03480078401C9F
:1039C0000149087000BF10BDE2010020E3010020A2
:1039D000800100206E0100205000002010B55648E4
:1039E0000078062824D2DFE800F0032443567696B8
:1039F0005148007851490978884208D04E480078EB
:103A00004E490870FDF72CF900204D490870FDF76C
:103A10000BF94B48007801280AD1FDF721F9002164
:103A2000084600F067FD44480078401C4249087091
:103A30007FE04148007841490978884205D03E48F6
:103A400000783E490870FDF70BF91520FDF71AF9CB
:103A50003C48007802280ADBFDF702F900210846FD
:103A600000F048FD34480078401C3349087060E09D
:103A70003148007831490978884203D02E480078CF
:103A80002E4908703048007820B92B480078401C37
:103A9000294908704DE0284800782849097888426B
:103AA00005D02548007825490870FDF7D9F86FF052
:103AB0001400FDF7E7F82348007801280ADBFDF73A
:103AC000CFF80021084600F015FD1B480078401C87
:103AD000194908702DE0184800781849097888427B
:103AE00008D015480078154908700020144908705E
:103AF000FDF7B6F8FDF798F81148007850B1FDF7DA
:103B0000AFF80021084600F0F5FC0B480078401C97
:103B1000094908700DE0084800780849097888428A
:103B200003D005480078054908701520FDF7AAF86C
:103B300000BF00BF10BD0000E4010020E50100202F
:103B4000800100206E0100205000002010B5BE480A
:103B500000780B2825D2DFE800F00625375486A32D
:103B6000B6D4F4F3F200B8480078B849097888422E
:103B700008D0B5480078B5490870FDF771F8002005
:103B8000B3490870FDF750F8B1480078012808D112
:103B90000021084600F0AEFCAB480078401CAA4962
:103BA00008704FE1A8480078A8490978884205D0F4
:103BB000A5480078A549087000F0CAFBA248007823
:103BC000401CA14908703DE19F4800789F49097851
:103BD000884205D09C4800789C490870FDF740F861
:103BE0001520FDF74FF89B480078012808DB0021DD
:103BF000084600F07FFC94480078401C9249087009
:103C000020E19148007891490978884208D08E488F
:103C100000788E49087000208D490870FDF720F863
:103C20008D49087900EBD0714910A0EB410131B109
:103C30000121084600F0B6FE8549087005E0012123
:103C4000881E00F0AFFE8249087081480078012884
:103C500008D10021084600F04DFC7B480078401C4C
:103C600079490870EEE07848007878490978884208
:103C700005D07548007875490870FCF7F1FF1520EC
:103C8000FDF700F873480078012808DB002108469A
:103C900000F030FC6C480078401C6B490870D1E0A3
:103CA0006948007869490978884203D066480078F5
:103CB000664908706948007820B963480078401C5C
:103CC00061490870BEE06048007860490978884220
:103CD00005D05D4800785D490870FCF7C1FF6FF0C2
:103CE0001400FCF7CFFF5B480078012808DB0021B7
:103CF000084600F0FFFB54480078401C5249087009
:103D0000A0E05148007851490978884208D04E48CF
:103D100000784E49087000204D490870FCF7A0FF5C
:103D20004D49087900EBD0714910A0EB410149B130
:103D30000121084600F036FE4549087008E064E0BD
:103D400031E013E00121881E00F02CFE404908708C
:103D50003F480078012808D10021084600F0CAFB3E
:103D600039480078401C384908706BE036480078C4
:103D700036490978884205D03348007833490870BD
:103D8000FCF76EFF1520FCF77DFF32480078012814
:103D900008DB0021084600F0ADFB2B480078401CF2
:103DA000294908704EE02848007828490978884257
:103DB00008D025480078254908700020244908705B
:103DC000FCF74EFF2449087900EBD0714910A0EBB5
:103DD000410131B10121881E00F0E4FD1C49087049
:103DE00005E00121084600F0DDFD1949087018487A
:103DF0000078012808D10021084600F07BFB12481A
:103E00000078401C104908701CE00F4800780F49EA
:103E10000978884205D00C4800780C490870FCF7F6
:103E20001FFF1520FCF72EFF0A480078032808DB47
:103E30000021084600F05EFB03480078401C024960
:103E4000087000BF00BF10BDE6010020E7010020A0
:103E5000800100206E01002074010020500000202D
:103E60007047704701490860704700007C010020DE
:103E70000448006820B103480068401E01490860FA
:103E8000704700007C01002010B5002208210D4879
:103E9000FDF770FA002210210A48FDF76BFA0022A4
:103EA00020210848FDF766FA002240210548FDF769
:103EB00061FA00210448FEF7C9FC04210248FEF71C
:103EC000C5FC10BD000C0140D402002000BFFEE77D
:103ED00010B5002000F001F810BD70B506460024B2
:103EE00015E004F1B001C8B200F090FF002000F02E
:103EF0008DFF102000F08AFF002504E0304600F01E
:103F000099FF681CC5B2802DF8DB601CC4B2082C78
:103F1000E7DB70BD10B504462B480460AE2000F00E
:103F200075FF202000F072FF102000F06FFFB0201E
:103F300000F06CFFC82000F069FF002000F066FF71
:103F4000102000F063FF402000F060FF812000F0AF
:103F50005DFFFF2000F05AFFA12000F057FFA620D0
:103F600000F054FFA82000F051FF3F2000F04EFF6A
:103F7000A42000F04BFFD32000F048FF002000F009
:103F800045FFD52000F042FFF02000F03FFFD92090
:103F900000F03CFF222000F039FFDA2000F036FF6D
:103FA000122000F033FFDB2000F030FF202000F073
:103FB0002DFF8D2000F02AFF142000F027FFAF20F6
:103FC00000F024FF10BD00003401002070B504464D
:103FD0000D4605F1B001C8B200F018FF102141EA0A
:103FE000141000F013FF04F00F0141F0010000F085
:103FF0000DFF70BD2DE9F04707460E4690469946E5
:1040000000250024A8F12000C5B27F2F02DD002783
:10401000B01CC6B2B9F1100F22D131463846FFF7B5
:10402000D5FF002407E004EB0511174A505C00F0AF
:1040300001FF601CC4B2082CF5DB701CC1B238460D
:10404000FFF7C4FF002408E004EB051108310E4A15
:10405000505C00F0EFFE601CC4B2082CF4DB11E0F1
:1040600031463846FFF7B2FF002409E005EB450171
:10407000064A02EB4101085D00F0DCFE601CC4B2A0
:10408000062CF3DBBDE8F087F0560008C8540008A2
:104090002DE9FF4F87B005461646994600240021BA
:1040A0003046FCF771FB0DD22146621CD4B20622C9
:1040B00002FB0151C8B20C232D220899FFF79AFF89
:1040C00086F000464FF07E513046FCF767FB13D276
:1040D0003046FCF7FAFACDE9000101F005F90022BB
:1040E0004B4BCDE90201FCF709F9CDE90401FCF7DE
:1040F000D3FA00F0FF0A01E04FF0010AD04652E087
:10410000A8F10100C1B20A2001F0BEF90390FCF74A
:1041100086FA014604903046FCF7B2F80590FCF7A9
:10412000A2FAC7B2A8F10100C0B2B0F100081AD1DA
:1041300007F13001CAB22146631CDCB2062303FB3F
:104140000151C8B20C230899FFF754FF2146621CA5
:10415000D4B2062202FB0151C8B20C232E220899C8
:10416000FFF748FF20E04C4502DB0BB0BDE8F08FC5
:1041700007F13001CAB22146631CDCB2062303FBFF
:104180000151C8B20C230899FFF734FF41460A20B9
:1041900001F07AF978430490FCF741FA3146059032
:1041A000FCF739F80646ABE700BF3046FCF75BFA90
:1041B0000490FCF72BFA31460590FCF72CF8834667
:1041C00021E014495846FCF729F883460490FCF78F
:1041D0004AFA3030C0B22146621CD4B2062202FB39
:1041E00001510590C8B20C23059A0899FFF702FF08
:1041F0005846FCF738FA0490FCF708FA594605903F
:10420000FCF709F883464C45DBDB00BFADE7000057
:104210000000F03F000020412DE9F04706468946A6
:1042200017469A464FF0000800240025BAF1010F06
:1042300003D0BAF1020F5ED125E020E0785D20388E
:1042400000F0FF087E2E04DD002609F1010000F0D9
:10425000FF0949463046FFF7B9FE002409E008EBA4
:104260004801264A02EB4101085D00F0E3FD601CB5
:10427000C4B2062CF3DBB01DC6B2681CC5B2785DB3
:104280000028DBD137E032E0785D203800F0FF080D
:10429000782E04DD002609F1010000F0FF094946EF
:1042A0003046FFF793FE002407E004EB0811144AA0
:1042B000505C00F0BFFD601CC4B2082CF5DB09F1B6
:1042C0000100C1B23046FFF781FE002408E004EB94
:1042D000081108310A4A505C00F0ACFD601CC4B201
:1042E000082CF4DB06F10800C6B2681CC5B2785D84
:1042F0000028C9D100BF00BFBDE8F087C85400083E
:10430000F05600082DE9F04106460D4617460123F8
:104310002A4631460020FFF77FFF002400E0641C9E
:10432000285D0028FBD104EB44014906080E012357
:104330003A223146FFF75EFE611C01EB410149065E
:10434000080E06233A463146FFF7A2FEBDE8F0818B
:1043500010B508488078103007490870FF23012203
:104360000648FEF733FD012205490448FEF7E0FC4C
:1043700010BD0000740100203B0100201C03002040
:104380006403002010B50748807807490870FF23B0
:1043900001220648FEF71AFD012205490348FEF7EF
:1043A000C7FC10BD740100203B0100201C0300204D
:1043B0006403002010B5092006490870FF2301227C
:1043C0000548FEF703FD012204490348FEF7B0FC4F
:1043D00010BD00003B0100201C03002064030020EE
:1043E00010B5FFF7E7FF10BD2DE9F84F04460E4664
:1043F000914631466069FBF70BFF8346FCF765F990
:1044000021F000410746204A204BFCF789F903D2EE
:10441000204600F046F8666149466069FBF7F8FE01
:10442000054629462069FBF7A1FE20612846E16880
:10443000FBF7EEFE8346A168FBF7F0FE0746216915
:104440006068FBF7EBFE834629462068FBF7E6FE33
:1044500059460090FBF78AFE80463946FBF786FEF8
:104460008246E5605046E169FCF78EF901D2D4F846
:104470001CA05046A169FCF791F901D2D4F818A00C
:104480005046BDE8F88F000048AFBC9AF2D77A3E9C
:1044900070B504460D462A4620466169FFF7A4FF21
:1044A00070BD0021C1600161704700000021C16042
:1044B0000161024981610249C161704700401C46A7
:1044C00000401CC67047000008B508490968C908C3
:1044D0004FF47A72B1FBF2F14143009100BF00BF8B
:1044E00000994A1E00920029F9D108BD0C00002055
:1044F0007047000070B505460C46002D0DDD012209
:10450000D1031D48FCF736FF002208211B48FCF7A9
:1045100031FF1B48006845630EE000224FF4004164
:104520001548FCF727FF012208211448FCF722FF59
:104530006842134909684863002C0DDD01221021EF
:104540000E48FCF717FF002220210C48FCF712FF51
:104550000B48006884630DE0002210210748FCF737
:1045600009FF012220210548FCF704FF60420449AD
:104570000968886370BD000000080140000C01401C
:10458000D40200202DE9F04105460C461948B0F947
:104590000000FCF73BF807462846FCF737F8804652
:1045A0003A4641461448FFF71FFF0646FCF75BF802
:1045B00000B2124908801248B0F90000FCF726F852
:1045C00007462046FCF722F880463A4641460D4809
:1045D000FFF70AFF0646FCF746F800B20A490880D2
:1045E0000846B0F900100548B0F90000FFF782FF57
:1045F000BDE8F0811400002084010020C4010020E7
:1046000016000020A4010020C601002010B5FDF70F
:1046100093F810BD00B58FB0282105A8FBF79BFDCE
:1046200014216846FBF797FD0120059000040690D1
:10463000002007900120099002200C90C1030D91E9
:104640004FF4E0110E9105A8FDF76CFA08B1FCF7E4
:10465000E7FA0F20009002200190002002904FF412
:10466000806003900020049002216846FDF736F92F
:1046700008B1FCF7D5FA0FB000BD704710B502487D
:10468000FDF735FF10BD00004402002010B50248C0
:10469000FDF72DFF10BD00008C02002010B5024870
:1046A000FDF725FF10BD0000D402002010B5026800
:1046B000184B984208D0B0F1804F05D0164B984265
:1046C00002D0164B984203D122F070024B681A4375
:1046D000104B984208D0B0F1804F05D00E4B984255
:1046E00002D00E4B984203D122F44072CB681A4399
:1046F00022F080034C6943EA040202608B68C362C3
:104700000B688362034B984201D10B690363012359
:10471000436110BD002C014000040040000800402F
:1047200030B501F01F05012404FA05F3046A9C4327
:104730000462046A01F01F0502FA05F52C430462C5
:1047400030BD30B50C46816821F47F4142EA032533
:1047500025432943816030BD0A46816821F07001FC
:1047600042F00703194381607047000030B5026AC8
:10477000056A25F0010505624368846924F0700428
:1047800024F003040D682C4322F002028D682A43B2
:104790000D4DA84206D100BF22F00802CD682A4381
:1047A00022F00402084DA84207D123F4807323F4B9
:1047B00000734D692B438D692B43436084614D68C1
:1047C0004563026230BD0000002C014030B5026A32
:1047D000056A25F0100505624368846924F4E04405
:1047E00024F440740D6844EA052422F020028D6808
:1047F00042EA05120E4DA84207D100BF22F0800206
:10480000CD6842EA051222F04002094DA84209D1C2
:1048100023F4806323F400634D6943EA85038D69C3
:1048200043EA8503436084614D688563026230BD5D
:10483000002C014030B5026A056A25F480750562D6
:104840004368C46924F0700424F003040D682C4309
:1048500022F400728D6842EA05220F4DA84207D16A
:1048600000BF22F40062CD6842EA052222F4806291
:10487000094DA84209D123F4805323F400534D6914
:1048800043EA05138D6943EA05134360C4614D682B
:10489000C563026230BD0000002C014030B5036AE0
:1048A000056A25F4805505624468C26922F4E04235
:1048B00022F440720D6842EA052223F400538D6809
:1048C00043EA0533064DA84204D124F480444D69DF
:1048D00044EA85144460C2614D680564036230BDDA
:1048E000002C014030B50B461446026A056A25F0DB
:1048F00001050562816921F0F00141EA041122F00D
:104900000A021A438161026230BD30B50B4614467B
:10491000026A056A25F010050562816921F470417B
:1049200041EA043122F0A00242EA031281610262EC
:1049300030BD000010B50E484078062816D2DFE8DA
:1049400000F00306090C0F12FEF7D0FE0EE0FEF792
:104950007FFF0BE0FFF742F808E0FFF7F7F805E00C
:10496000FFF77EFA02E0FFF77CFA00BF00BF10BD40
:1049700074010020002006490870064908700649A5
:1049800048700220054908700120054908707047E9
:10499000800100207B0100207401002079010020AB
:1049A0007A01002070B504460D46FCF7A1F8FCF72B
:1049B0006FFA1B480078012805D11A48007810B911
:1049C00000201749087017480078B8B114480078DB
:1049D000A0B901201249087013480078401CC0B2E9
:1049E00011490870A84209D101200D490870002022
:1049F0000D490870FCF734F9012070BD2CB96FF037
:104A00000B010C20FFF7BEFD08E004EB440291000F
:104A1000624202EB42029000FFF7B4FD0020ECE797
:104A2000E101002027000020C801002070B50546E4
:104A30006C6A0020E085E0842046FDF77DFF70BDB4
:104A400000BF00BF02680C3252E8002F22F49071C0
:104A500002680C3242E80013002BF3D100BF00BF04
:104A600000BF0268143252E8002F22F001010268F0
:104A7000143242E80013002BF3D100BF016B01296F
:104A80000ED100BF00BF02680C3252E8002F22F0A6
:104A9000100102680C3242E80013002BF3D100BF72
:104AA000202180F8421000210163704710B50446B0
:104AB0002068C06820F040002168C860202084F889
:104AC00041002046FEF7DBF9002010BDF8B5044692
:104AD00094F84200222875D1A068B0F5805F0CD10F
:104AE000206950B90025A66A20684068C0F3080014
:104AF0003080A06A801CA06215E0A56A0026A0682C
:104B0000B0F5805F03D0A06828B9206918B9206883
:104B10004068287004E02068406800F07F0028703A
:104B2000A06A401CA062E08D401E80B2E085002893
:104B300046D12068C06820F020002168C860206845
:104B4000C06820F480702168C8602068406920F047
:104B5000010021684861202084F842000020606341
:104B6000206B012826D10020206300BF00BF2168F0
:104B70000C3151E8001F21F0100021680C3141E890
:104B80000002002AF3D100BF2068006800F0100086
:104B900010280AD100BF0020009020680068009013
:104BA00020684068009000BF00BFA18D2046FDF73F
:104BB000C2FE02E02046FEF7D1F80020F8BD01E079
:104BC0000020FBE70220F9E770B504462168096977
:104BD00021F44051E2681143226811612269A16801
:104BE0001143626941EA02052168C96841F20C6219
:104BF000914329432268D1602168496921F44071B9
:104C0000A2691143226851612D4A2168914202D163
:104C1000FCF740FF01E0FCF72DFF00EBC00101EBCA
:104C2000001162689200B1FBF2F100EBC00202EBEE
:104C3000001263689B00B2FBF3F26423B2FBF3F251
:104C400002EBC20303EB0212A1EB8201322202EB60
:104C500001116422B1FBF2F101F0F00100EBC0029E
:104C600002EB001263689B00B2FBF3F26423B2FB19
:104C7000F3F201EB021200EBC00101EB00116368DB
:104C80009B00B1FBF3F100EBC00303EB001366687C
:104C9000B600B3FBF6F36426B3FBF6F303EBC306EF
:104CA00006EB0313A1EB8301322303EB0111642311
:104CB000B1FBF3F101F00F0111442268916070BD66
:104CC0000038014010B5034699629A85DA850020C4
:104CD0005864222083F84200186928B11868C06817
:104CE00040F480701C68E0601868406940F0010082
:104CF0001C6860611868C06840F020001C68E060B3
:104D0000002010BD014691F84100212828D1886873
:104D1000B0F5805F0BD1086948B90A6A1088C0F302
:104D200008000B685860086A801C086205E00B6A7E
:104D3000581C086218780B685860C88C401E80B2F6
:104D4000C88458B90868C06820F080000B68D86033
:104D50000868C06840F040000B68D86000207047C9
:104D60000220FCE72DE9F04104460D46174698461F
:104D7000069E34E0701C88B32EB1FCF701FBA0EB5B
:104D80000800B0422BD900BF00BF21680C3151E8A8
:104D9000001F21F4D07021680C3141E80002002A84
:104DA000F3D100BF00BF00BF2168143151E8001FDC
:104DB00021F001002168143141E80002002AF3D1FA
:104DC00000BF202084F8410084F8420000BF00208A
:104DD00084F8400000BF0320BDE8F081FFE72068B1
:104DE00000682840A84201D1012000E00020B8421C
:104DF000C0D00020F0E7000010B50248FDF79EFD8E
:104E000010BD00001C03002000BFFEE701B584B008
:104E10006420012104AA0B46CDE900210290002262
:104E2000782103480068FCF799FB05B000BD00003D
:104E30003401002001B584B06420012104AA0B468E
:104E4000CDE9002102904022782103480068FCF758
:104E500085FB05B000BD0000340100200248006859
:104E6000C0F30220704700000CED00E010B50028F0
:104E700004DB0A07130E054A135406E00A07140E52
:104E8000034A00F00F031B1FD45410BD00E400E0E0
:104E900018ED00E02DE9F0414F1E00EBC70104467C
:104EA000D1E9000115461E4637F006020DD02A460C
:104EB0003346FBF7CAFA7F1E04EBC703D3E900238E
:104EC000FBF71CFA37F00602F1D1022F25D0042F90
:104ED00013D0062F18BFBDE8F0812A463346FBF7F2
:104EE000B4FAD4E90A23FBF709FA2A463346FBF75A
:104EF000ACFAD4E90823FBF701FA2A463346FBF75C
:104F0000A4FAD4E90623FBF7F9F92A463346FBF75E
:104F10009CFAD4E90423FBF7F1F92A463346FBF760
:104F200094FAD4E90223FBF7E9F92A463346FBF762
:104F30008CFAD4E90023BDE8F041FBF7DFB90000AB
:104F40000022134610460149FBF7F1BA0000F03F7A
:104F50000122FBF7E2BC0022134610461146FBF784
:104F6000E6BA02E008C8121F08C1002AFAD1704749
:104F70007047002001E001C1121F002AFBD17047D9
:104F80000149086070470000EC0100202DE9F04D58
:104F9000C84A002490B0914205DA21F000439342C0
:104FA00001D805D120B110B0BDE8F04DFFF7D0BF5A
:104FB000B1F5801F1BDA53EA000209D0002911DA8B
:104FC0000120FFF7DDFF10B0BDE8F04DFFF7C3BFD4
:104FD0000220FFF7D5FFFFF7B3FF10B081F00041CB
:104FE000BDE8F08D6FF035043622FBF796FC04EB3C
:104FF0002152C1F31308B049A2F2FF33414401F436
:10500000801282F07F6103EB225281F040510092C6
:1050100041EA08010022A94BFBF711FA044608F106
:105020000200A74EC0F313000D467E44032867D24A
:10503000D6E900232046FBF75BFB1ED10098002831
:1050400002BFD6E9000110B0BDE8F08DFBF7FAFA17
:1050500007460C469B4A9C4BFBF7F7F906460D4664
:105060009A4A9B4B38462146FBF7EFF910B032467F
:105070002B46BDE8F04DFBF741B94FF05532954B4B
:1050800020462946FBF7E1F90022934BFBF7DAF9BA
:1050900006460F4622462B4610461946FBF7D5F921
:1050A00032463B46FBF7D1F9064600980F46F0B171
:1050B000FBF7C8FA80468A46824A834BFBF7C5F95C
:1050C00032463B46FBF7BEF922462B46FBF7B7F9C3
:1050D00005460C467D4A7E4B40465146FBF7B5F9E6
:1050E00010B02A462346BDE8F04DFBF7A8B90B46A1
:1050F00010B0324620462946BDE8F04DFBF79FB977
:1051000000224FF080432046FBF7F8F802460B469A
:1051100020462946FBF70BFA06460F460098FBF798
:1051200091FACDE9040132463B4610463946FBF779
:105130008CF90C9069480C9A4044019009910B46F7
:105140001046FBF782F98246024665488B46C8F155
:1051500051080B4608F5D72803217844FFF79AFE3B
:1051600052465B46FBF771F90A905E480D91524634
:105170005B4604217844FFF78DFE099B0C9AFBF7F0
:1051800064F9844601980D9B40EA080860460A9A33
:10519000FBF7B4F883460891B8F1000F4EDD4FF0ED
:1051A000FF3220462946FBF7B8FB22462B46FBF789
:1051B0004CF9804600988A4660B3DDE90401414A13
:1051C000414BFBF742F9099100905A46404651463F
:1051D000089BFBF793F832463B46FBF736F9099BF1
:1051E000009AFBF78BF842465346FBF72BF9224611
:1051F0002B46FBF724F904460D46DDE90401334A4A
:10520000334BFBF722F910B022462B46BDE8F04D98
:10521000FBF715B95A464046089BFBF76FF8324634
:105220003B46FBF712F942465346FBF70BF910B029
:1052300022462B46BDE8F04DFBF704B9009840B379
:10524000DDE904011F4A204BFBF7FFF880468A4640
:105250005A4620462946089BFBF7F1F832463B4662
:10526000FBF7F3F842465346FBF7E9F822462B4694
:10527000FBF7E5F804460D46DDE90401134A144B3B
:10528000FBF7E3F810B022462B46BDE8F04DFBF7E4
:10529000D6B80B465A4620462946FBF7D0F8324688
:1052A0003B46FBF7D2F810B022462B46BDE8F04D46
:1052B000FBF7C8B80000F07F645F09000000F03F12
:1052C000EA0C0000763C7935EF39EA3D0000E0FE5B
:1052D000422EE63F5555D53F0000E03F86EBF9FFF3
:1052E000820B0000800B00002DE9F041044630489D
:1052F0000025814205DA21F00042824201D805D121
:1053000024B12046BDE8F041FFF722BEB1F5801F71
:105310001BDA52EA040008D000290FDA0120FFF757
:105320002FFEBDE8F041FFF716BE0220FFF728FE72
:10533000FFF706FE81F00041BDE8F0816FF0350512
:1053400036222046FBF7E9FA044605EB2150A0F28D
:10535000FF32D00F40F2FF331B1A0D4663F31F5587
:105360001044FBF76FF906460F4629462046FFF723
:105370000DFE104A104BFBF768F804460D460F4A25
:105380000F4B30463946FBF760F822462B46FAF7BA
:10539000B5FF05460C460B4A0B4B30463946FBF72A
:1053A00054F82A462346BDE8F041FAF7A7BF0000AB
:1053B0000000F07F0EE526157BCBDB3F362BF1118D
:1053C000F3FE593D00609F501344D33FFCF7C0F9F2
:1053D000FFF720F9FDF7DAFFFEF75EF9FEF788F830
:1053E000FEF7C2F8FEF7FEF8FEF764F84FF47A70A5
:1053F000FBF714FEFBF73EFB29E015480078FBF7AE
:105400000EF90446224613A10020FEF77BFF144943
:1054100003C9FBF709F90446224612A10120FEF751
:1054200071FF1148B0F90000FBF7F0F8044622467E
:105430000EA10220FEF766FF0F48B0F90000FBF74F
:10544000E5F8044622460DA10320FEF75BFFD4E7F2
:10545000DD010020506174685F6E6F77000000000E
:10546000480100206670730014000020656E636FB1
:105470006465724C0000000016000020656E636FCA
:10548000646572520000000010B50246012000E081
:1054900050430B1EA1F10104E1B2F9D110BD02038A
:1054A0000405060708090A0B0C0D0E0F1010010267
:1054B00000000000000000000102030406070809C4
:1054C00000000000010203040000000000000000D2
:1054D000002F000000000700070000147F147F1455
:1054E00000242A7F2A1200626408132300364955DB
:1054F000225000000503000000001C2241000000B3
:1055000041221C000014083E08140008083E080848
:10551000000000A0600000080808080800006060A3
:105520000000002010080402003E5149453E0000E2
:10553000427F4000004261514946002141454B31C4
:10554000001814127F10002745454539003C4A4990
:105550004930000171090503003649494936000602
:105560004949291E0000363600000000563600006A
:1055700000081422410000141414141400004122E5
:10558000140800020151090600324959513E007CBD
:105590001211127C007F49494936003E41414122A7
:1055A000007F4141221C007F49494941007F090990
:1055B0000901003E4149497A007F0808087F000040
:1055C000417F4100002040413F01007F08142241FB
:1055D000007F40404040007F020C027F007F0408B3
:1055E000107F003E4141413E007F09090906003E0F
:1055F0004151215E007F0919294600464949493138
:105600000001017F0101003F4040403F001F20405A
:10561000201F003F4038403F006314081463000718
:105620000870080700615149454300007F4141006F
:1056300000552A552A55000041417F00000402010F
:1056400002040040404040400000010204000020ED
:1056500054545478007F484444380038444444202B
:1056600000384444487F00385454541800087E09D8
:1056700001020018A4A4A47C007F080404780000A0
:10568000447D4000004080847D00007F102844005D
:105690000000417F4000007C04180478007C08046E
:1056A000047800384444443800FC242424180018AA
:1056B000242418FC007C0804040800485454542096
:1056C00000043F444020003C4040207C001C20401F
:1056D000201C003C4030403C004428102844001C62
:1056E000A0A0A07C004464544C441414141414145A
:1056F00000000000000000000000000000000000AA
:10570000000000F80000000000000033300000003E
:1057100000100C06100C0600000000000000000045
:1057200040C07840C0784000043F04043F040400B7
:10573000007088FC08300000001820FF211E0000C7
:10574000F008F000E018000000211C031E211E00DC
:1057500000F00888700000001E2123241927211062
:1057600010160E0000000000000000000000000005
:10577000000000E0180402000000000718204000AC
:1057800000020418E000000000402018070000009C
:10579000404080F0804040000202010F0102020000
:1057A000000000F0000000000101011F01010100E4
:1057B000000000000000000080B070000000000049
:1057C00000000000000000000001010101010101D2
:1057D0000000000000000000003030000000000069
:1057E000000000008060180400601806010000003E
:1057F00000E010080810E000000F102020100F003B
:10580000001010F8000000000020203F20200000C1
:105810000070080808887000003028242221300019
:1058200000300888884830000018202020110E0021
:105830000000C02010F8000000070424243F2400CA
:1058400000F80888880808000019212020110E009F
:1058500000E0108888180000000F112020110E00B1
:1058600000380808C83808000000003F00000000A9
:105870000070880808887000001C222121221C006A
:1058800000E010080810E0000000312222110F0093
:10589000000000C0C0000000000000303000000028
:1058A0000000008000000000000080600000000098
:1058B00000008040201008000001020408102000B1
:1058C00040404040404040000404040404040400FC
:1058D0000008102040800000002010080402010091
:1058E000007048080808F000000000303601000091
:1058F000C030C828E810E0000718272423140B0044
:105900000000C038E0000000203C230202273820BD
:1059100008F8888888700000203F202020110E00A1
:10592000C030080808083800071820202010080098
:1059300008F808080810E000203F202020100F0081
:1059400008F88888E8081000203F2020232018004D
:1059500008F88888E8081000203F200003000000B5
:10596000C03008080838000007182020221E020056
:1059700008F808000008F808203F210101213F2015
:10598000000808F8080800000020203F2020000040
:1059900000000808F8080800C08080807F00000030
:1059A00008F888C028180800203F20012638200069
:1059B00008F8080000000000203F202020203000D0
:1059C00008F8F800F8F80800203F003F003F2000EA
:1059D00008F830C00008F808203F200007183F00F2
:1059E000E01008080810E0000F10202020100F0021
:1059F00008F808080808F000203F21010101000014
:105A0000E01008080810E0000F18242438504F0058
:105A100008F8888888887000203F2000030C302018
:105A200000708808080838000038202121221C0056
:105A3000180808F8080818000000203F200000009F
:105A400008F808000008F808001F202020201F0088
:105A50000878880000C83808000007380E010000E8
:105A6000F80800F80008F800033C0700073C0300B2
:105A7000081868808068180820302C03032C302018
:105A80000838C800C83808000000203F2000000087
:105A900010080808C83808002038262120201800DF
:105AA000000000FE020202000000007F40404000B3
:105AB000000C30C000000000000000010638C000EB
:105AC00000020202FE000000004040407F00000093
:105AD00000000402020204000000000000000000B8
